ARM GAS  /tmp/ccvtueob.s 			page 1


   1              		.syntax unified
   2              		.cpu cortex-m3
   3              		.fpu softvfp
   4              		.eabi_attribute 20, 1
   5              		.eabi_attribute 21, 1
   6              		.eabi_attribute 23, 3
   7              		.eabi_attribute 24, 1
   8              		.eabi_attribute 25, 1
   9              		.eabi_attribute 26, 1
  10              		.eabi_attribute 30, 2
  11              		.eabi_attribute 34, 1
  12              		.eabi_attribute 18, 4
  13              		.thumb
  14              		.file	"chcond.c"
  15              		.text
  16              	.Ltext0:
  17              		.cfi_sections	.debug_frame
  18              		.section	.text.chCondInit,"ax",%progbits
  19              		.align	2
  20              		.p2align 4,,15
  21              		.global	chCondInit
  22              		.thumb
  23              		.thumb_func
  24              		.type	chCondInit, %function
  25              	chCondInit:
  26              	.LFB7:
  27              		.file 1 "../../os/kernel/src/chcond.c"
  28              		.loc 1 59 0
  29              		.cfi_startproc
  30              		@ args = 0, pretend = 0, frame = 0
  31              		@ frame_needed = 0, uses_anonymous_args = 0
  32              		@ link register save eliminated.
  33              	.LVL0:
  34              		.loc 1 63 0
  35 0000 4060     		str	r0, [r0, #4]
  36 0002 0060     		str	r0, [r0, #0]
  37              		.loc 1 64 0
  38 0004 7047     		bx	lr
  39              		.cfi_endproc
  40              	.LFE7:
  41              		.size	chCondInit, .-chCondInit
  42 0006 00BFAFF3 		.section	.text.chCondSignal,"ax",%progbits
  42      0080AFF3 
  42      0080
  43              		.align	2
  44              		.p2align 4,,15
  45              		.global	chCondSignal
  46              		.thumb
  47              		.thumb_func
  48              		.type	chCondSignal, %function
  49              	chCondSignal:
  50              	.LFB8:
  51              		.loc 1 73 0
  52              		.cfi_startproc
  53              		@ args = 0, pretend = 0, frame = 0
  54              		@ frame_needed = 0, uses_anonymous_args = 0
  55              	.LVL1:
ARM GAS  /tmp/ccvtueob.s 			page 2


  56 0000 08B5     		push	{r3, lr}
  57              	.LCFI0:
  58              		.cfi_def_cfa_offset 8
  59              		.cfi_offset 14, -4
  60              		.cfi_offset 3, -8
  61              		.loc 1 73 0
  62 0002 0246     		mov	r2, r0
  63              	.LBB14:
  64              		.loc 1 77 0
  65 0004 2023     		movs	r3, #32
  66              	.LVL2:
  67              	@ 77 "../../os/kernel/src/chcond.c" 1
  68 0006 83F31188 		msr     BASEPRI, r3
  69              	@ 0 "" 2
  70              	.LVL3:
  71              		.thumb
  72              	.LBE14:
  73              		.loc 1 78 0
  74 000a 0068     		ldr	r0, [r0, #0]
  75              	.LVL4:
  76 000c 9042     		cmp	r0, r2
  77 000e 05D0     		beq	.L3
  78              	.LVL5:
  79              	.LBB15:
  80              	.LBB16:
  81              		.file 2 "../../os/kernel/include/chinline.h"
  82              		.loc 2 62 0
  83 0010 0368     		ldr	r3, [r0, #0]
  84              	.LVL6:
  85              	.LBE16:
  86              	.LBE15:
  87              		.loc 1 79 0
  88 0012 0021     		movs	r1, #0
  89              	.LBB18:
  90              	.LBB17:
  91              		.loc 2 62 0
  92 0014 1360     		str	r3, [r2, #0]
  93 0016 5A60     		str	r2, [r3, #4]
  94              	.LBE17:
  95              	.LBE18:
  96              		.loc 1 79 0
  97 0018 FFF7FEFF 		bl	chSchWakeupS
  98              	.LVL7:
  99              	.L3:
 100              	.LBB19:
 101              		.loc 1 80 0
 102 001c 0023     		movs	r3, #0
 103              	.LVL8:
 104              	@ 80 "../../os/kernel/src/chcond.c" 1
 105 001e 83F31188 		msr     BASEPRI, r3
 106              	@ 0 "" 2
 107              	.LVL9:
 108              		.thumb
 109              	.LBE19:
 110              		.loc 1 81 0
 111 0022 08BD     		pop	{r3, pc}
 112              		.cfi_endproc
ARM GAS  /tmp/ccvtueob.s 			page 3


 113              	.LFE8:
 114              		.size	chCondSignal, .-chCondSignal
 115 0024 AFF30080 		.section	.text.chCondSignalI,"ax",%progbits
 115      AFF30080 
 115      AFF30080 
 116              		.align	2
 117              		.p2align 4,,15
 118              		.global	chCondSignalI
 119              		.thumb
 120              		.thumb_func
 121              		.type	chCondSignalI, %function
 122              	chCondSignalI:
 123              	.LFB9:
 124              		.loc 1 94 0
 125              		.cfi_startproc
 126              		@ args = 0, pretend = 0, frame = 0
 127              		@ frame_needed = 0, uses_anonymous_args = 0
 128              	.LVL10:
 129 0000 08B5     		push	{r3, lr}
 130              	.LCFI1:
 131              		.cfi_def_cfa_offset 8
 132              		.cfi_offset 14, -4
 133              		.cfi_offset 3, -8
 134              		.loc 1 94 0
 135 0002 0346     		mov	r3, r0
 136              		.loc 1 99 0
 137 0004 0068     		ldr	r0, [r0, #0]
 138              	.LVL11:
 139 0006 9842     		cmp	r0, r3
 140 0008 06D0     		beq	.L5
 141              	.LVL12:
 142              	.LBB20:
 143              	.LBB21:
 144              		.loc 2 62 0
 145 000a 0268     		ldr	r2, [r0, #0]
 146 000c 1A60     		str	r2, [r3, #0]
 147 000e 5360     		str	r3, [r2, #4]
 148              	.LBE21:
 149              	.LBE20:
 150              		.loc 1 100 0
 151 0010 FFF7FEFF 		bl	chSchReadyI
 152              	.LVL13:
 153 0014 0023     		movs	r3, #0
 154 0016 4362     		str	r3, [r0, #36]
 155              	.L5:
 156 0018 08BD     		pop	{r3, pc}
 157              		.cfi_endproc
 158              	.LFE9:
 159              		.size	chCondSignalI, .-chCondSignalI
 160 001a 00BFAFF3 		.section	.text.chCondBroadcastI,"ax",%progbits
 160      0080
 161              		.align	2
 162              		.p2align 4,,15
 163              		.global	chCondBroadcastI
 164              		.thumb
 165              		.thumb_func
 166              		.type	chCondBroadcastI, %function
ARM GAS  /tmp/ccvtueob.s 			page 4


 167              	chCondBroadcastI:
 168              	.LFB11:
 169              		.loc 1 129 0
 170              		.cfi_startproc
 171              		@ args = 0, pretend = 0, frame = 0
 172              		@ frame_needed = 0, uses_anonymous_args = 0
 173              	.LVL14:
 174 0000 38B5     		push	{r3, r4, r5, lr}
 175              	.LCFI2:
 176              		.cfi_def_cfa_offset 16
 177              		.cfi_offset 14, -4
 178              		.cfi_offset 5, -8
 179              		.cfi_offset 4, -12
 180              		.cfi_offset 3, -16
 181              		.loc 1 129 0
 182 0002 0446     		mov	r4, r0
 183              		.loc 1 137 0
 184 0004 0068     		ldr	r0, [r0, #0]
 185              	.LVL15:
 186 0006 A042     		cmp	r0, r4
 187 0008 0AD0     		beq	.L7
 188              		.loc 1 138 0
 189 000a 6FF00105 		mvn	r5, #1
 190              	.L10:
 191              	.LVL16:
 192              	.LBB22:
 193              	.LBB23:
 194              		.loc 2 62 0
 195 000e 0368     		ldr	r3, [r0, #0]
 196 0010 2360     		str	r3, [r4, #0]
 197 0012 5C60     		str	r4, [r3, #4]
 198              	.LBE23:
 199              	.LBE22:
 200              		.loc 1 138 0
 201 0014 FFF7FEFF 		bl	chSchReadyI
 202              	.LVL17:
 203 0018 4562     		str	r5, [r0, #36]
 204              		.loc 1 137 0
 205 001a 2068     		ldr	r0, [r4, #0]
 206 001c A042     		cmp	r0, r4
 207 001e F6D1     		bne	.L10
 208              	.LVL18:
 209              	.L7:
 210 0020 38BD     		pop	{r3, r4, r5, pc}
 211              		.cfi_endproc
 212              	.LFE11:
 213              		.size	chCondBroadcastI, .-chCondBroadcastI
 214 0022 00BFAFF3 		.section	.text.chCondBroadcast,"ax",%progbits
 214      0080AFF3 
 214      0080AFF3 
 214      0080
 215              		.align	2
 216              		.p2align 4,,15
 217              		.global	chCondBroadcast
 218              		.thumb
 219              		.thumb_func
 220              		.type	chCondBroadcast, %function
ARM GAS  /tmp/ccvtueob.s 			page 5


 221              	chCondBroadcast:
 222              	.LFB10:
 223              		.loc 1 110 0
 224              		.cfi_startproc
 225              		@ args = 0, pretend = 0, frame = 0
 226              		@ frame_needed = 0, uses_anonymous_args = 0
 227              	.LVL19:
 228 0000 08B5     		push	{r3, lr}
 229              	.LCFI3:
 230              		.cfi_def_cfa_offset 8
 231              		.cfi_offset 14, -4
 232              		.cfi_offset 3, -8
 233              	.LBB24:
 234              		.loc 1 112 0
 235 0002 2023     		movs	r3, #32
 236              	.LVL20:
 237              	@ 112 "../../os/kernel/src/chcond.c" 1
 238 0004 83F31188 		msr     BASEPRI, r3
 239              	@ 0 "" 2
 240              	.LVL21:
 241              		.thumb
 242              	.LBE24:
 243              		.loc 1 113 0
 244 0008 FFF7FEFF 		bl	chCondBroadcastI
 245              	.LVL22:
 246              		.loc 1 114 0
 247 000c FFF7FEFF 		bl	chSchRescheduleS
 248              	.LBB25:
 249              		.loc 1 115 0
 250 0010 0023     		movs	r3, #0
 251              	.LVL23:
 252              	@ 115 "../../os/kernel/src/chcond.c" 1
 253 0012 83F31188 		msr     BASEPRI, r3
 254              	@ 0 "" 2
 255              	.LVL24:
 256              		.thumb
 257              	.LBE25:
 258              		.loc 1 116 0
 259 0016 08BD     		pop	{r3, pc}
 260              		.cfi_endproc
 261              	.LFE10:
 262              		.size	chCondBroadcast, .-chCondBroadcast
 263 0018 AFF30080 		.section	.text.chCondWaitS,"ax",%progbits
 263      AFF30080 
 264              		.align	2
 265              		.p2align 4,,15
 266              		.global	chCondWaitS
 267              		.thumb
 268              		.thumb_func
 269              		.type	chCondWaitS, %function
 270              	chCondWaitS:
 271              	.LFB13:
 272              		.loc 1 184 0
 273              		.cfi_startproc
 274              		@ args = 0, pretend = 0, frame = 0
 275              		@ frame_needed = 0, uses_anonymous_args = 0
 276              	.LVL25:
ARM GAS  /tmp/ccvtueob.s 			page 6


 277              		.loc 1 185 0
 278 0000 40F20003 		movw	r3, #:lower16:rlist
 279              		.loc 1 184 0
 280 0004 70B5     		push	{r4, r5, r6, lr}
 281              	.LCFI4:
 282              		.cfi_def_cfa_offset 16
 283              		.cfi_offset 14, -4
 284              		.cfi_offset 6, -8
 285              		.cfi_offset 5, -12
 286              		.cfi_offset 4, -16
 287              		.loc 1 185 0
 288 0006 C0F20003 		movt	r3, #:upper16:rlist
 289              		.loc 1 184 0
 290 000a 0546     		mov	r5, r0
 291              		.loc 1 185 0
 292 000c DC69     		ldr	r4, [r3, #28]
 293              	.LVL26:
 294              		.loc 1 195 0
 295 000e FFF7FEFF 		bl	chMtxUnlockS
 296              	.LVL27:
 297              		.loc 1 196 0
 298 0012 6562     		str	r5, [r4, #36]
 299              		.loc 1 195 0
 300 0014 0646     		mov	r6, r0
 301              	.LVL28:
 302              		.loc 1 197 0
 303 0016 2B46     		mov	r3, r5
 304              	.LVL29:
 305              		.loc 2 43 0
 306 0018 2A46     		mov	r2, r5
 307 001a 03E0     		b	.L15
 308              	.LVL30:
 309              	.L18:
 310              	.LBB26:
 311              	.LBB27:
 312              		.loc 2 46 0
 313 001c 9068     		ldr	r0, [r2, #8]
 314 001e A168     		ldr	r1, [r4, #8]
 315 0020 8842     		cmp	r0, r1
 316 0022 10D3     		bcc	.L17
 317              	.L15:
 318              		.loc 2 45 0
 319 0024 1268     		ldr	r2, [r2, #0]
 320              	.LVL31:
 321              		.loc 2 46 0
 322 0026 9542     		cmp	r5, r2
 323 0028 F8D1     		bne	.L18
 324              	.L14:
 325              		.loc 2 48 0
 326 002a 5A68     		ldr	r2, [r3, #4]
 327              	.LVL32:
 328              		.loc 2 47 0
 329 002c 2360     		str	r3, [r4, #0]
 330              		.loc 2 48 0
 331 002e 6260     		str	r2, [r4, #4]
 332              		.loc 2 49 0
 333 0030 1460     		str	r4, [r2, #0]
ARM GAS  /tmp/ccvtueob.s 			page 7


 334 0032 5C60     		str	r4, [r3, #4]
 335              	.LBE27:
 336              	.LBE26:
 337              		.loc 1 198 0
 338 0034 0520     		movs	r0, #5
 339 0036 FFF7FEFF 		bl	chSchGoSleepS
 340              		.loc 1 199 0
 341 003a 646A     		ldr	r4, [r4, #36]
 342              	.LVL33:
 343              		.loc 1 200 0
 344 003c 3046     		mov	r0, r6
 345 003e FFF7FEFF 		bl	chMtxLockS
 346              		.loc 1 202 0
 347 0042 2046     		mov	r0, r4
 348 0044 70BD     		pop	{r4, r5, r6, pc}
 349              	.LVL34:
 350              	.L17:
 351              	.LBB29:
 352              	.LBB28:
 353              		.loc 2 45 0
 354 0046 1346     		mov	r3, r2
 355 0048 EFE7     		b	.L14
 356              	.LBE28:
 357              	.LBE29:
 358              		.cfi_endproc
 359              	.LFE13:
 360              		.size	chCondWaitS, .-chCondWaitS
 361 004a 00BFAFF3 		.section	.text.chCondWait,"ax",%progbits
 361      0080
 362              		.align	2
 363              		.p2align 4,,15
 364              		.global	chCondWait
 365              		.thumb
 366              		.thumb_func
 367              		.type	chCondWait, %function
 368              	chCondWait:
 369              	.LFB12:
 370              		.loc 1 158 0
 371              		.cfi_startproc
 372              		@ args = 0, pretend = 0, frame = 0
 373              		@ frame_needed = 0, uses_anonymous_args = 0
 374              	.LVL35:
 375 0000 08B5     		push	{r3, lr}
 376              	.LCFI5:
 377              		.cfi_def_cfa_offset 8
 378              		.cfi_offset 14, -4
 379              		.cfi_offset 3, -8
 380              	.LBB30:
 381              		.loc 1 161 0
 382 0002 2023     		movs	r3, #32
 383              	.LVL36:
 384              	@ 161 "../../os/kernel/src/chcond.c" 1
 385 0004 83F31188 		msr     BASEPRI, r3
 386              	@ 0 "" 2
 387              	.LVL37:
 388              		.thumb
 389              	.LBE30:
ARM GAS  /tmp/ccvtueob.s 			page 8


 390              		.loc 1 162 0
 391 0008 FFF7FEFF 		bl	chCondWaitS
 392              	.LVL38:
 393              	.LBB31:
 394              		.loc 1 163 0
 395 000c 0023     		movs	r3, #0
 396              	.LVL39:
 397              	@ 163 "../../os/kernel/src/chcond.c" 1
 398 000e 83F31188 		msr     BASEPRI, r3
 399              	@ 0 "" 2
 400              	.LVL40:
 401              		.thumb
 402              	.LBE31:
 403              		.loc 1 165 0
 404 0012 08BD     		pop	{r3, pc}
 405              		.cfi_endproc
 406              	.LFE12:
 407              		.size	chCondWait, .-chCondWait
 408 0014 AFF30080 		.section	.text.chCondWaitTimeoutS,"ax",%progbits
 408      AFF30080 
 408      AFF30080 
 409              		.align	2
 410              		.p2align 4,,15
 411              		.global	chCondWaitTimeoutS
 412              		.thumb
 413              		.thumb_func
 414              		.type	chCondWaitTimeoutS, %function
 415              	chCondWaitTimeoutS:
 416              	.LFB15:
 417              		.loc 1 270 0
 418              		.cfi_startproc
 419              		@ args = 0, pretend = 0, frame = 0
 420              		@ frame_needed = 0, uses_anonymous_args = 0
 421              	.LVL41:
 422 0000 F8B5     		push	{r3, r4, r5, r6, r7, lr}
 423              	.LCFI6:
 424              		.cfi_def_cfa_offset 24
 425              		.cfi_offset 14, -4
 426              		.cfi_offset 7, -8
 427              		.cfi_offset 6, -12
 428              		.cfi_offset 5, -16
 429              		.cfi_offset 4, -20
 430              		.cfi_offset 3, -24
 431              		.loc 1 270 0
 432 0002 0446     		mov	r4, r0
 433 0004 0E46     		mov	r6, r1
 434              		.loc 1 280 0
 435 0006 FFF7FEFF 		bl	chMtxUnlockS
 436              	.LVL42:
 437              		.loc 1 281 0
 438 000a 40F20003 		movw	r3, #:lower16:rlist
 439 000e C0F20003 		movt	r3, #:upper16:rlist
 440              		.loc 1 280 0
 441 0012 0546     		mov	r5, r0
 442              	.LVL43:
 443              		.loc 1 281 0
 444 0014 D869     		ldr	r0, [r3, #28]
ARM GAS  /tmp/ccvtueob.s 			page 9


 445              	.LVL44:
 446              		.loc 1 282 0
 447 0016 2746     		mov	r7, r4
 448              	.LVL45:
 449              		.loc 1 281 0
 450 0018 4462     		str	r4, [r0, #36]
 451              		.loc 2 43 0
 452 001a 2346     		mov	r3, r4
 453              	.LVL46:
 454 001c 03E0     		b	.L22
 455              	.LVL47:
 456              	.L26:
 457              	.LBB32:
 458              	.LBB33:
 459              		.loc 2 46 0
 460 001e 9968     		ldr	r1, [r3, #8]
 461 0020 8268     		ldr	r2, [r0, #8]
 462 0022 9142     		cmp	r1, r2
 463 0024 13D3     		bcc	.L25
 464              	.L22:
 465              		.loc 2 45 0
 466 0026 1B68     		ldr	r3, [r3, #0]
 467              	.LVL48:
 468              		.loc 2 46 0
 469 0028 9C42     		cmp	r4, r3
 470 002a F8D1     		bne	.L26
 471              	.L21:
 472              		.loc 2 48 0
 473 002c 7C68     		ldr	r4, [r7, #4]
 474              	.LVL49:
 475              		.loc 2 47 0
 476 002e 0760     		str	r7, [r0, #0]
 477              		.loc 2 48 0
 478 0030 4460     		str	r4, [r0, #4]
 479              		.loc 2 49 0
 480 0032 2060     		str	r0, [r4, #0]
 481 0034 7860     		str	r0, [r7, #4]
 482              	.LBE33:
 483              	.LBE32:
 484              		.loc 1 283 0
 485 0036 3146     		mov	r1, r6
 486 0038 0520     		movs	r0, #5
 487 003a FFF7FEFF 		bl	chSchGoSleepTimeoutS
 488              	.LVL50:
 489 003e 0446     		mov	r4, r0
 490              	.LVL51:
 491              		.loc 1 284 0
 492 0040 0130     		adds	r0, r0, #1
 493              	.LVL52:
 494 0042 02D0     		beq	.L23
 495              		.loc 1 285 0
 496 0044 2846     		mov	r0, r5
 497 0046 FFF7FEFF 		bl	chMtxLockS
 498              	.L23:
 499              		.loc 1 287 0
 500 004a 2046     		mov	r0, r4
 501 004c F8BD     		pop	{r3, r4, r5, r6, r7, pc}
ARM GAS  /tmp/ccvtueob.s 			page 10


 502              	.LVL53:
 503              	.L25:
 504              	.LBB35:
 505              	.LBB34:
 506              		.loc 2 45 0
 507 004e 1F46     		mov	r7, r3
 508 0050 ECE7     		b	.L21
 509              	.LBE34:
 510              	.LBE35:
 511              		.cfi_endproc
 512              	.LFE15:
 513              		.size	chCondWaitTimeoutS, .-chCondWaitTimeoutS
 514 0052 00BFAFF3 		.section	.text.chCondWaitTimeout,"ax",%progbits
 514      0080AFF3 
 514      0080AFF3 
 514      0080
 515              		.align	2
 516              		.p2align 4,,15
 517              		.global	chCondWaitTimeout
 518              		.thumb
 519              		.thumb_func
 520              		.type	chCondWaitTimeout, %function
 521              	chCondWaitTimeout:
 522              	.LFB14:
 523              		.loc 1 233 0
 524              		.cfi_startproc
 525              		@ args = 0, pretend = 0, frame = 0
 526              		@ frame_needed = 0, uses_anonymous_args = 0
 527              	.LVL54:
 528 0000 08B5     		push	{r3, lr}
 529              	.LCFI7:
 530              		.cfi_def_cfa_offset 8
 531              		.cfi_offset 14, -4
 532              		.cfi_offset 3, -8
 533              	.LBB36:
 534              		.loc 1 236 0
 535 0002 2023     		movs	r3, #32
 536              	.LVL55:
 537              	@ 236 "../../os/kernel/src/chcond.c" 1
 538 0004 83F31188 		msr     BASEPRI, r3
 539              	@ 0 "" 2
 540              	.LVL56:
 541              		.thumb
 542              	.LBE36:
 543              		.loc 1 237 0
 544 0008 FFF7FEFF 		bl	chCondWaitTimeoutS
 545              	.LVL57:
 546              	.LBB37:
 547              		.loc 1 238 0
 548 000c 0023     		movs	r3, #0
 549              	.LVL58:
 550              	@ 238 "../../os/kernel/src/chcond.c" 1
 551 000e 83F31188 		msr     BASEPRI, r3
 552              	@ 0 "" 2
 553              	.LVL59:
 554              		.thumb
 555              	.LBE37:
ARM GAS  /tmp/ccvtueob.s 			page 11


 556              		.loc 1 240 0
 557 0012 08BD     		pop	{r3, pc}
 558              		.cfi_endproc
 559              	.LFE14:
 560              		.size	chCondWaitTimeout, .-chCondWaitTimeout
 561 0014 AFF30080 		.text
 561      AFF30080 
 561      AFF30080 
 562              	.Letext0:
 563              		.file 3 "/home/laura/Documentos/Embebidos/arm-2011q3/bin/../lib/gcc/arm-none-eabi/4.6.1/../../../.
 564              		.file 4 "../../os/ports/GCC/ARMCMx/chtypes.h"
 565              		.file 5 "../../os/kernel/include/chlists.h"
 566              		.file 6 "../../os/kernel/include/chthreads.h"
 567              		.file 7 "../../os/ports/GCC/ARMCMx/chcore_v7m.h"
 568              		.file 8 "../../os/kernel/include/chschd.h"
 569              		.file 9 "../../os/kernel/include/chmtx.h"
 570              		.file 10 "../../os/kernel/include/chcond.h"
