ARM GAS  /tmp/ccDVAA0L.s 			page 1


   1              		.syntax unified
   2              		.cpu cortex-m3
   3              		.fpu softvfp
   4              		.eabi_attribute 20, 1
   5              		.eabi_attribute 21, 1
   6              		.eabi_attribute 23, 3
   7              		.eabi_attribute 24, 1
   8              		.eabi_attribute 25, 1
   9              		.eabi_attribute 26, 1
  10              		.eabi_attribute 30, 2
  11              		.eabi_attribute 34, 1
  12              		.eabi_attribute 18, 4
  13              		.thumb
  14              		.file	"chheap.c"
  15              		.text
  16              	.Ltext0:
  17              		.cfi_sections	.debug_frame
  18              		.section	.text._heap_init,"ax",%progbits
  19              		.align	2
  20              		.p2align 4,,15
  21              		.global	_heap_init
  22              		.thumb
  23              		.thumb_func
  24              		.type	_heap_init, %function
  25              	_heap_init:
  26              	.LFB7:
  27              		.file 1 "../../os/kernel/src/chheap.c"
  28              		.loc 1 75 0
  29              		.cfi_startproc
  30              		@ args = 0, pretend = 0, frame = 0
  31              		@ frame_needed = 0, uses_anonymous_args = 0
  32              		@ link register save eliminated.
  33              		.loc 1 76 0
  34 0000 40F20003 		movw	r3, #:lower16:.LANCHOR0
  35 0004 C0F20003 		movt	r3, #:upper16:.LANCHOR0
  36 0008 40F20002 		movw	r2, #:lower16:chCoreAlloc
  37              		.loc 1 77 0
  38 000c 0021     		movs	r1, #0
  39              		.loc 1 76 0
  40 000e C0F20002 		movt	r2, #:upper16:chCoreAlloc
  41              		.loc 1 80 0
  42 0012 03F11000 		add	r0, r3, #16
  43              		.loc 1 76 0
  44 0016 1A60     		str	r2, [r3, #0]
  45              		.loc 1 77 0
  46 0018 9960     		str	r1, [r3, #8]
  47              		.loc 1 78 0
  48 001a D960     		str	r1, [r3, #12]
  49              		.loc 1 84 0
  50              		.loc 1 80 0
  51 001c FFF7FEBF 		b	chMtxInit
  52              		.cfi_endproc
  53              	.LFE7:
  54              		.size	_heap_init, .-_heap_init
  55              		.section	.text.chHeapInit,"ax",%progbits
  56              		.align	2
  57              		.p2align 4,,15
ARM GAS  /tmp/ccDVAA0L.s 			page 2


  58              		.global	chHeapInit
  59              		.thumb
  60              		.thumb_func
  61              		.type	chHeapInit, %function
  62              	chHeapInit:
  63              	.LFB8:
  64              		.loc 1 99 0
  65              		.cfi_startproc
  66              		@ args = 0, pretend = 0, frame = 0
  67              		@ frame_needed = 0, uses_anonymous_args = 0
  68              		@ link register save eliminated.
  69              	.LVL0:
  70              		.loc 1 104 0
  71 0000 0023     		movs	r3, #0
  72 0002 0360     		str	r3, [r0, #0]
  73              	.LVL1:
  74              		.loc 1 105 0
  75 0004 8160     		str	r1, [r0, #8]
  76              		.loc 1 106 0
  77 0006 C360     		str	r3, [r0, #12]
  78              		.loc 1 108 0
  79 0008 083A     		subs	r2, r2, #8
  80              	.LVL2:
  81              		.loc 1 110 0
  82 000a 1030     		adds	r0, r0, #16
  83              	.LVL3:
  84              		.loc 1 107 0
  85 000c 0B60     		str	r3, [r1, #0]
  86              		.loc 1 108 0
  87 000e 4A60     		str	r2, [r1, #4]
  88              		.loc 1 114 0
  89              		.loc 1 110 0
  90 0010 FFF7FEBF 		b	chMtxInit
  91              	.LVL4:
  92              	.LVL5:
  93              	.LVL6:
  94              	.LVL7:
  95              		.cfi_endproc
  96              	.LFE8:
  97              		.size	chHeapInit, .-chHeapInit
  98 0014 AFF30080 		.section	.text.chHeapAlloc,"ax",%progbits
  98      AFF30080 
  98      AFF30080 
  99              		.align	2
 100              		.p2align 4,,15
 101              		.global	chHeapAlloc
 102              		.thumb
 103              		.thumb_func
 104              		.type	chHeapAlloc, %function
 105              	chHeapAlloc:
 106              	.LFB9:
 107              		.loc 1 132 0
 108              		.cfi_startproc
 109              		@ args = 0, pretend = 0, frame = 0
 110              		@ frame_needed = 0, uses_anonymous_args = 0
 111              	.LVL8:
 112 0000 F8B5     		push	{r3, r4, r5, r6, r7, lr}
ARM GAS  /tmp/ccDVAA0L.s 			page 3


 113              	.LCFI0:
 114              		.cfi_def_cfa_offset 24
 115              		.cfi_offset 14, -4
 116              		.cfi_offset 7, -8
 117              		.cfi_offset 6, -12
 118              		.cfi_offset 5, -16
 119              		.cfi_offset 4, -20
 120              		.cfi_offset 3, -24
 121              		.loc 1 136 0
 122 0002 40F20004 		movw	r4, #:lower16:.LANCHOR0
 123 0006 C0F20004 		movt	r4, #:upper16:.LANCHOR0
 124 000a 0028     		cmp	r0, #0
 125 000c 18BF     		it	ne
 126 000e 0446     		movne	r4, r0
 127              		.loc 1 138 0
 128 0010 0731     		adds	r1, r1, #7
 129              	.LVL9:
 130              		.loc 1 140 0
 131 0012 04F11000 		add	r0, r4, #16
 132              	.LVL10:
 133              		.loc 1 138 0
 134 0016 21F00706 		bic	r6, r1, #7
 135              	.LVL11:
 136              		.loc 1 139 0
 137 001a 04F10805 		add	r5, r4, #8
 138              	.LVL12:
 139              		.loc 1 140 0
 140 001e FFF7FEFF 		bl	chMtxLock
 141              		.loc 1 142 0
 142 0022 00E0     		b	.L5
 143              	.LVL13:
 144              	.L11:
 145              		.loc 1 144 0
 146 0024 1D46     		mov	r5, r3
 147              	.LVL14:
 148              	.L5:
 149              		.loc 1 142 0 discriminator 1
 150 0026 2B68     		ldr	r3, [r5, #0]
 151 0028 03B3     		cbz	r3, .L14
 152              	.LVL15:
 153              		.loc 1 144 0
 154 002a 5A68     		ldr	r2, [r3, #4]
 155 002c 9642     		cmp	r6, r2
 156 002e F9D8     		bhi	.L11
 157              		.loc 1 145 0
 158 0030 06F10801 		add	r1, r6, #8
 159 0034 8A42     		cmp	r2, r1
 160 0036 16D3     		bcc	.L15
 161              		.loc 1 155 0
 162 0038 4FF6F877 		movw	r7, #65528
 163 003c CFF6FF77 		movt	r7, 65535
 164              		.loc 1 154 0
 165 0040 D3F800E0 		ldr	lr, [r3, #0]
 166              		.loc 1 155 0
 167 0044 C6EB070C 		rsb	ip, r6, r7
 168 0048 0CEB0200 		add	r0, ip, r2
 169              		.loc 1 153 0
ARM GAS  /tmp/ccDVAA0L.s 			page 4


 170 004c 5F18     		adds	r7, r3, r1
 171              	.LVL16:
 172              		.loc 1 154 0
 173 004e 43F801E0 		str	lr, [r3, r1]
 174              		.loc 1 155 0
 175 0052 7860     		str	r0, [r7, #4]
 176              		.loc 1 156 0
 177 0054 2F60     		str	r7, [r5, #0]
 178              		.loc 1 157 0
 179 0056 5E60     		str	r6, [r3, #4]
 180              	.LVL17:
 181              	.L7:
 182              		.loc 1 159 0
 183 0058 1D46     		mov	r5, r3
 184              	.LVL18:
 185 005a 45F8084B 		str	r4, [r5], #8
 186              		.loc 1 161 0
 187 005e FFF7FEFF 		bl	chMtxUnlock
 188              	.LVL19:
 189              	.L8:
 190              		.loc 1 181 0
 191 0062 2846     		mov	r0, r5
 192 0064 F8BD     		pop	{r3, r4, r5, r6, r7, pc}
 193              	.LVL20:
 194              	.L15:
 195              		.loc 1 149 0
 196 0066 1A68     		ldr	r2, [r3, #0]
 197 0068 2A60     		str	r2, [r5, #0]
 198 006a F5E7     		b	.L7
 199              	.LVL21:
 200              	.L14:
 201              		.loc 1 167 0
 202 006c FFF7FEFF 		bl	chMtxUnlock
 203              		.loc 1 171 0
 204 0070 2568     		ldr	r5, [r4, #0]
 205              	.LVL22:
 206 0072 002D     		cmp	r5, #0
 207 0074 F5D0     		beq	.L8
 208              		.loc 1 172 0
 209 0076 06F10800 		add	r0, r6, #8
 210 007a A847     		blx	r5
 211              	.LVL23:
 212              		.loc 1 173 0
 213 007c 0546     		mov	r5, r0
 214 007e 0028     		cmp	r0, #0
 215 0080 EFD0     		beq	.L8
 216              		.loc 1 177 0
 217 0082 00F10805 		add	r5, r0, #8
 218              		.loc 1 175 0
 219 0086 80E85000 		stmia	r0, {r4, r6}
 220              	.LVL24:
 221              		.loc 1 181 0
 222 008a 2846     		mov	r0, r5
 223 008c F8BD     		pop	{r3, r4, r5, r6, r7, pc}
 224              		.cfi_endproc
 225              	.LFE9:
 226              		.size	chHeapAlloc, .-chHeapAlloc
ARM GAS  /tmp/ccDVAA0L.s 			page 5


 227 008e 00BF     		.section	.text.chHeapFree,"ax",%progbits
 228              		.align	2
 229              		.p2align 4,,15
 230              		.global	chHeapFree
 231              		.thumb
 232              		.thumb_func
 233              		.type	chHeapFree, %function
 234              	chHeapFree:
 235              	.LFB10:
 236              		.loc 1 194 0
 237              		.cfi_startproc
 238              		@ args = 0, pretend = 0, frame = 0
 239              		@ frame_needed = 0, uses_anonymous_args = 0
 240              	.LVL25:
 241 0000 70B5     		push	{r4, r5, r6, lr}
 242              	.LCFI1:
 243              		.cfi_def_cfa_offset 16
 244              		.cfi_offset 14, -4
 245              		.cfi_offset 6, -8
 246              		.cfi_offset 5, -12
 247              		.cfi_offset 4, -16
 248              		.loc 1 194 0
 249 0002 0646     		mov	r6, r0
 250              		.loc 1 201 0
 251 0004 50F8080C 		ldr	r0, [r0, #-8]
 252              	.LVL26:
 253              		.loc 1 200 0
 254 0008 A6F10804 		sub	r4, r6, #8
 255              	.LVL27:
 256              		.loc 1 202 0
 257 000c 00F10805 		add	r5, r0, #8
 258              	.LVL28:
 259              		.loc 1 203 0
 260 0010 1030     		adds	r0, r0, #16
 261 0012 FFF7FEFF 		bl	chMtxLock
 262              	.LVL29:
 263              		.loc 1 202 0
 264 0016 2B46     		mov	r3, r5
 265              	.LVL30:
 266              	.L24:
 267              		.loc 1 210 0
 268 0018 591B     		subs	r1, r3, r5
 269 001a 4842     		rsbs	r0, r1, #0
 270 001c 40EB0102 		adc	r2, r0, r1
 271 0020 9C42     		cmp	r4, r3
 272 0022 88BF     		it	hi
 273 0024 42F00102 		orrhi	r2, r2, #1
 274 0028 72B1     		cbz	r2, .L17
 275              	.L25:
 276              		.loc 1 211 0 discriminator 1
 277 002a 1A68     		ldr	r2, [r3, #0]
 278              		.loc 1 210 0 discriminator 1
 279 002c 72B1     		cbz	r2, .L18
 280              		.loc 1 211 0
 281 002e 9442     		cmp	r4, r2
 282 0030 0CD3     		bcc	.L18
 283 0032 1346     		mov	r3, r2
ARM GAS  /tmp/ccDVAA0L.s 			page 6


 284              	.LVL31:
 285              		.loc 1 210 0
 286 0034 591B     		subs	r1, r3, r5
 287 0036 4842     		rsbs	r0, r1, #0
 288 0038 40EB0102 		adc	r2, r0, r1
 289              	.LVL32:
 290 003c 9C42     		cmp	r4, r3
 291 003e 88BF     		it	hi
 292 0040 42F00102 		orrhi	r2, r2, #1
 293 0044 002A     		cmp	r2, #0
 294 0046 F0D1     		bne	.L25
 295              	.L17:
 296              		.loc 1 224 0
 297 0048 1B68     		ldr	r3, [r3, #0]
 298              	.LVL33:
 299 004a E5E7     		b	.L24
 300              	.LVL34:
 301              	.L18:
 302              		.loc 1 216 0
 303 004c 56F8041C 		ldr	r1, [r6, #-4]
 304              		.loc 1 213 0
 305 0050 46F8082C 		str	r2, [r6, #-8]
 306              		.loc 1 214 0
 307 0054 1C60     		str	r4, [r3, #0]
 308              		.loc 1 216 0
 309 0056 01F10802 		add	r2, r1, #8
 310 005a 56F8085C 		ldr	r5, [r6, #-8]
 311              	.LVL35:
 312 005e A018     		adds	r0, r4, r2
 313 0060 A842     		cmp	r0, r5
 314 0062 0AD0     		beq	.L26
 315              		.loc 1 221 0
 316 0064 5A68     		ldr	r2, [r3, #4]
 317 0066 02F1080E 		add	lr, r2, #8
 318 006a 03EB0E0C 		add	ip, r3, lr
 319 006e 6445     		cmp	r4, ip
 320 0070 12D0     		beq	.L27
 321              	.L21:
 322              		.loc 1 233 0
 323 0072 BDE87040 		pop	{r4, r5, r6, lr}
 324              		.loc 1 231 0
 325 0076 FFF7FEBF 		b	chMtxUnlock
 326              	.LVL36:
 327              	.L26:
 328              		.loc 1 218 0
 329 007a 4068     		ldr	r0, [r0, #4]
 330              		.loc 1 219 0
 331 007c A258     		ldr	r2, [r4, r2]
 332              		.loc 1 218 0
 333 007e 0818     		adds	r0, r1, r0
 334 0080 0830     		adds	r0, r0, #8
 335 0082 46F8040C 		str	r0, [r6, #-4]
 336              		.loc 1 219 0
 337 0086 46F8082C 		str	r2, [r6, #-8]
 338              		.loc 1 221 0
 339 008a 5A68     		ldr	r2, [r3, #4]
 340 008c 02F1080E 		add	lr, r2, #8
ARM GAS  /tmp/ccDVAA0L.s 			page 7


 341 0090 03EB0E0C 		add	ip, r3, lr
 342 0094 6445     		cmp	r4, ip
 343 0096 ECD1     		bne	.L21
 344              	.L27:
 345              		.loc 1 223 0
 346 0098 56F8040C 		ldr	r0, [r6, #-4]
 347              		.loc 1 224 0
 348 009c 56F8081C 		ldr	r1, [r6, #-8]
 349              		.loc 1 223 0
 350 00a0 1218     		adds	r2, r2, r0
 351 00a2 0832     		adds	r2, r2, #8
 352              		.loc 1 224 0
 353 00a4 83E80600 		stmia	r3, {r1, r2}
 354 00a8 E3E7     		b	.L21
 355              		.cfi_endproc
 356              	.LFE10:
 357              		.size	chHeapFree, .-chHeapFree
 358              		.section	.text.chHeapStatus,"ax",%progbits
 359              		.align	2
 360              		.p2align 4,,15
 361              		.global	chHeapStatus
 362              		.thumb
 363              		.thumb_func
 364              		.type	chHeapStatus, %function
 365              	chHeapStatus:
 366              	.LFB11:
 367              		.loc 1 250 0
 368              		.cfi_startproc
 369              		@ args = 0, pretend = 0, frame = 0
 370              		@ frame_needed = 0, uses_anonymous_args = 0
 371              	.LVL37:
 372 0000 38B5     		push	{r3, r4, r5, lr}
 373              	.LCFI2:
 374              		.cfi_def_cfa_offset 16
 375              		.cfi_offset 14, -4
 376              		.cfi_offset 5, -8
 377              		.cfi_offset 4, -12
 378              		.cfi_offset 3, -16
 379              		.loc 1 255 0
 380 0002 40F20004 		movw	r4, #:lower16:.LANCHOR0
 381 0006 C0F20004 		movt	r4, #:upper16:.LANCHOR0
 382 000a 0028     		cmp	r0, #0
 383 000c 18BF     		it	ne
 384 000e 0446     		movne	r4, r0
 385              		.loc 1 257 0
 386 0010 04F11000 		add	r0, r4, #16
 387              	.LVL38:
 388              		.loc 1 250 0
 389 0014 0D46     		mov	r5, r1
 390              		.loc 1 257 0
 391 0016 FFF7FEFF 		bl	chMtxLock
 392              	.LVL39:
 393              		.loc 1 260 0
 394 001a A368     		ldr	r3, [r4, #8]
 395              		.loc 1 259 0
 396 001c 1A46     		mov	r2, r3
 397              		.loc 1 260 0
ARM GAS  /tmp/ccDVAA0L.s 			page 8


 398 001e 1C46     		mov	r4, r3
 399 0020 3BB1     		cbz	r3, .L30
 400 0022 0022     		movs	r2, #0
 401 0024 1446     		mov	r4, r2
 402              	.LVL40:
 403              	.L31:
 404              		.loc 1 261 0 discriminator 2
 405 0026 5968     		ldr	r1, [r3, #4]
 406              		.loc 1 260 0 discriminator 2
 407 0028 1B68     		ldr	r3, [r3, #0]
 408              		.loc 1 261 0 discriminator 2
 409 002a 5218     		adds	r2, r2, r1
 410              	.LVL41:
 411              		.loc 1 260 0 discriminator 2
 412 002c 0134     		adds	r4, r4, #1
 413              	.LVL42:
 414 002e 002B     		cmp	r3, #0
 415 0030 F9D1     		bne	.L31
 416              	.LVL43:
 417              	.L30:
 418              		.loc 1 262 0
 419 0032 05B1     		cbz	r5, .L32
 420              		.loc 1 263 0
 421 0034 2A60     		str	r2, [r5, #0]
 422              	.L32:
 423              		.loc 1 265 0
 424 0036 FFF7FEFF 		bl	chMtxUnlock
 425              		.loc 1 267 0
 426 003a 2046     		mov	r0, r4
 427 003c 38BD     		pop	{r3, r4, r5, pc}
 428              		.cfi_endproc
 429              	.LFE11:
 430              		.size	chHeapStatus, .-chHeapStatus
 431 003e 00BF     		.section	.bss.default_heap,"aw",%nobits
 432              		.align	3
 433              		.set	.LANCHOR0,. + 0
 434              		.type	default_heap, %object
 435              		.size	default_heap, 32
 436              	default_heap:
 437 0000 00000000 		.space	32
 437      00000000 
 437      00000000 
 437      00000000 
 437      00000000 
 438              		.text
 439              	.Letext0:
 440              		.file 2 "/home/laura/Documentos/Embebidos/arm-2011q3/bin/../lib/gcc/arm-none-eabi/4.6.1/include/st
 441              		.file 3 "/home/laura/Documentos/Embebidos/arm-2011q3/bin/../lib/gcc/arm-none-eabi/4.6.1/../../../.
 442              		.file 4 "../../os/ports/GCC/ARMCMx/chtypes.h"
 443              		.file 5 "../../os/kernel/include/chlists.h"
 444              		.file 6 "../../os/kernel/include/chthreads.h"
 445              		.file 7 "../../os/ports/GCC/ARMCMx/chcore_v7m.h"
 446              		.file 8 "../../os/kernel/include/chmtx.h"
 447              		.file 9 "../../os/kernel/include/chmemcore.h"
 448              		.file 10 "../../os/kernel/include/chheap.h"
