ARM GAS  /tmp/cciFuKlO.s 			page 1


   1              		.syntax unified
   2              		.cpu cortex-m3
   3              		.fpu softvfp
   4              		.eabi_attribute 20, 1
   5              		.eabi_attribute 21, 1
   6              		.eabi_attribute 23, 3
   7              		.eabi_attribute 24, 1
   8              		.eabi_attribute 25, 1
   9              		.eabi_attribute 26, 1
  10              		.eabi_attribute 30, 2
  11              		.eabi_attribute 34, 1
  12              		.eabi_attribute 18, 4
  13              		.thumb
  14              		.file	"chthreads.c"
  15              		.text
  16              	.Ltext0:
  17              		.cfi_sections	.debug_frame
  18              		.section	.text._thread_init,"ax",%progbits
  19              		.align	2
  20              		.p2align 4,,15
  21              		.global	_thread_init
  22              		.thumb
  23              		.thumb_func
  24              		.type	_thread_init, %function
  25              	_thread_init:
  26              	.LFB7:
  27              		.file 1 "../../os/kernel/src/chthreads.c"
  28              		.loc 1 76 0
  29              		.cfi_startproc
  30              		@ args = 0, pretend = 0, frame = 0
  31              		@ frame_needed = 0, uses_anonymous_args = 0
  32              		@ link register save eliminated.
  33              	.LVL0:
  34 0000 F0B4     		push	{r4, r5, r6, r7}
  35              	.LCFI0:
  36              		.cfi_def_cfa_offset 16
  37              		.cfi_offset 7, -4
  38              		.cfi_offset 6, -8
  39              		.cfi_offset 5, -12
  40              		.cfi_offset 4, -16
  41              		.loc 1 96 0
  42 0002 40F20004 		movw	r4, #:lower16:rlist
  43 0006 C0F20004 		movt	r4, #:upper16:rlist
  44 000a 6569     		ldr	r5, [r4, #20]
  45              		.loc 1 80 0
  46 000c 0022     		movs	r2, #0
  47              		.loc 1 102 0
  48 000e 00F12C06 		add	r6, r0, #44
  49              		.loc 1 78 0
  50 0012 8160     		str	r1, [r0, #8]
  51              		.loc 1 99 0
  52 0014 00F12807 		add	r7, r0, #40
  53              		.loc 1 79 0
  54 0018 4FF00203 		mov	r3, #2
  55              		.loc 1 82 0
  56 001c 0164     		str	r1, [r0, #64]
  57              		.loc 1 92 0
ARM GAS  /tmp/cciFuKlO.s 			page 2


  58 001e 0121     		movs	r1, #1
  59              	.LVL1:
  60              		.loc 1 96 0
  61 0020 0461     		str	r4, [r0, #16]
  62 0022 4561     		str	r5, [r0, #20]
  63              		.loc 1 79 0
  64 0024 0377     		strb	r3, [r0, #28]
  65              		.loc 1 96 0
  66 0026 6061     		str	r0, [r4, #20]
  67              		.loc 1 80 0
  68 0028 4277     		strb	r2, [r0, #29]
  69              		.loc 1 83 0
  70 002a C263     		str	r2, [r0, #60]
  71              		.loc 1 86 0
  72 002c 8263     		str	r2, [r0, #56]
  73              		.loc 1 89 0
  74 002e 0262     		str	r2, [r0, #32]
  75              		.loc 1 92 0
  76 0030 8177     		strb	r1, [r0, #30]
  77              		.loc 1 95 0
  78 0032 8261     		str	r2, [r0, #24]
  79              		.loc 1 96 0
  80 0034 2861     		str	r0, [r5, #16]
  81              		.loc 1 99 0
  82 0036 8762     		str	r7, [r0, #40]
  83              		.loc 1 102 0
  84 0038 0663     		str	r6, [r0, #48]
  85 003a C662     		str	r6, [r0, #44]
  86              		.loc 1 111 0
  87 003c F0BC     		pop	{r4, r5, r6, r7}
  88 003e 7047     		bx	lr
  89              		.cfi_endproc
  90              	.LFE7:
  91              		.size	_thread_init, .-_thread_init
  92              		.section	.text.chThdCreateI,"ax",%progbits
  93              		.align	2
  94              		.p2align 4,,15
  95              		.global	chThdCreateI
  96              		.thumb
  97              		.thumb_func
  98              		.type	chThdCreateI, %function
  99              	chThdCreateI:
 100              	.LFB8:
 101              		.loc 1 155 0
 102              		.cfi_startproc
 103              		@ args = 4, pretend = 0, frame = 0
 104              		@ frame_needed = 0, uses_anonymous_args = 0
 105              		@ link register save eliminated.
 106              	.LVL2:
 107 0000 2DE9F007 		push	{r4, r5, r6, r7, r8, r9, sl}
 108              	.LCFI1:
 109              		.cfi_def_cfa_offset 28
 110              		.cfi_offset 10, -4
 111              		.cfi_offset 9, -8
 112              		.cfi_offset 8, -12
 113              		.cfi_offset 7, -16
 114              		.cfi_offset 6, -20
ARM GAS  /tmp/cciFuKlO.s 			page 3


 115              		.cfi_offset 5, -24
 116              		.cfi_offset 4, -28
 117              		.loc 1 164 0
 118 0004 A1F1240C 		sub	ip, r1, #36
 119              	.LBB10:
 120              	.LBB11:
 121              		.loc 1 96 0
 122 0008 40F20005 		movw	r5, #:lower16:rlist
 123 000c C0F20005 		movt	r5, #:upper16:rlist
 124              	.LVL3:
 125              	.LBE11:
 126              	.LBE10:
 127              		.loc 1 164 0
 128 0010 00EB0C07 		add	r7, r0, ip
 129              	.LBB15:
 130              	.LBB12:
 131              		.loc 1 96 0
 132 0014 D5F81490 		ldr	r9, [r5, #20]
 133              	.LBE12:
 134              	.LBE15:
 135              		.loc 1 164 0
 136 0018 40F20001 		movw	r1, #:lower16:_port_thread_start
 137              	.LVL4:
 138 001c C760     		str	r7, [r0, #12]
 139 001e 40F80C30 		str	r3, [r0, ip]
 140 0022 079B     		ldr	r3, [sp, #28]
 141              	.LVL5:
 142 0024 C0F20001 		movt	r1, #:upper16:_port_thread_start
 143 0028 7B60     		str	r3, [r7, #4]
 144 002a 3962     		str	r1, [r7, #32]
 145              	.LVL6:
 146              	.LBB16:
 147              	.LBB13:
 148              		.loc 1 80 0
 149 002c 0026     		movs	r6, #0
 150              	.LBE13:
 151              	.LBE16:
 152              		.loc 1 155 0
 153 002e 9046     		mov	r8, r2
 154              	.LVL7:
 155              	.LBB17:
 156              	.LBB14:
 157              		.loc 1 99 0
 158 0030 00F1280A 		add	sl, r0, #40
 159              		.loc 1 102 0
 160 0034 00F12C02 		add	r2, r0, #44
 161              	.LVL8:
 162              		.loc 1 79 0
 163 0038 0221     		movs	r1, #2
 164              		.loc 1 92 0
 165 003a 0123     		movs	r3, #1
 166              		.loc 1 96 0
 167 003c 0561     		str	r5, [r0, #16]
 168              		.loc 1 78 0
 169 003e C0F80880 		str	r8, [r0, #8]
 170              		.loc 1 96 0
 171 0042 C0F81490 		str	r9, [r0, #20]
ARM GAS  /tmp/cciFuKlO.s 			page 4


 172              		.loc 1 79 0
 173 0046 0177     		strb	r1, [r0, #28]
 174              		.loc 1 96 0
 175 0048 6861     		str	r0, [r5, #20]
 176              		.loc 1 80 0
 177 004a 4677     		strb	r6, [r0, #29]
 178              		.loc 1 82 0
 179 004c C0F84080 		str	r8, [r0, #64]
 180              		.loc 1 83 0
 181 0050 C663     		str	r6, [r0, #60]
 182              		.loc 1 86 0
 183 0052 8663     		str	r6, [r0, #56]
 184              		.loc 1 89 0
 185 0054 0662     		str	r6, [r0, #32]
 186              		.loc 1 92 0
 187 0056 8377     		strb	r3, [r0, #30]
 188              		.loc 1 95 0
 189 0058 8661     		str	r6, [r0, #24]
 190              		.loc 1 96 0
 191 005a C9F81000 		str	r0, [r9, #16]
 192              		.loc 1 99 0
 193 005e C0F828A0 		str	sl, [r0, #40]
 194              		.loc 1 102 0
 195 0062 0263     		str	r2, [r0, #48]
 196 0064 C262     		str	r2, [r0, #44]
 197              	.LBE14:
 198              	.LBE17:
 199              		.loc 1 166 0
 200 0066 BDE8F007 		pop	{r4, r5, r6, r7, r8, r9, sl}
 201 006a 7047     		bx	lr
 202              		.cfi_endproc
 203              	.LFE8:
 204              		.size	chThdCreateI, .-chThdCreateI
 205 006c AFF30080 		.section	.text.chThdCreateStatic,"ax",%progbits
 206              		.align	2
 207              		.p2align 4,,15
 208              		.global	chThdCreateStatic
 209              		.thumb
 210              		.thumb_func
 211              		.type	chThdCreateStatic, %function
 212              	chThdCreateStatic:
 213              	.LFB9:
 214              		.loc 1 185 0
 215              		.cfi_startproc
 216              		@ args = 4, pretend = 0, frame = 0
 217              		@ frame_needed = 0, uses_anonymous_args = 0
 218              	.LVL9:
 219 0000 10B5     		push	{r4, lr}
 220              	.LCFI2:
 221              		.cfi_def_cfa_offset 8
 222              		.cfi_offset 14, -4
 223              		.cfi_offset 4, -8
 224 0002 9C46     		mov	ip, r3
 225 0004 82B0     		sub	sp, sp, #8
 226              	.LCFI3:
 227              		.cfi_def_cfa_offset 16
 228              	.LBB18:
ARM GAS  /tmp/cciFuKlO.s 			page 5


 229              		.loc 1 196 0
 230 0006 2023     		movs	r3, #32
 231              	.LVL10:
 232              	@ 196 "../../os/kernel/src/chthreads.c" 1
 233 0008 83F31188 		msr     BASEPRI, r3
 234              	@ 0 "" 2
 235              	.LVL11:
 236              		.thumb
 237              	.LBE18:
 238              		.loc 1 197 0
 239 000c 049C     		ldr	r4, [sp, #16]
 240 000e 6346     		mov	r3, ip
 241              	.LVL12:
 242 0010 0094     		str	r4, [sp, #0]
 243 0012 FFF7FEFF 		bl	chThdCreateI
 244              	.LVL13:
 245 0016 0021     		movs	r1, #0
 246 0018 0446     		mov	r4, r0
 247              	.LVL14:
 248 001a FFF7FEFF 		bl	chSchWakeupS
 249              	.LVL15:
 250              	.LBB19:
 251              		.loc 1 198 0
 252 001e 0023     		movs	r3, #0
 253              	.LVL16:
 254              	@ 198 "../../os/kernel/src/chthreads.c" 1
 255 0020 83F31188 		msr     BASEPRI, r3
 256              	@ 0 "" 2
 257              	.LVL17:
 258              		.thumb
 259              	.LBE19:
 260              		.loc 1 200 0
 261 0024 2046     		mov	r0, r4
 262 0026 02B0     		add	sp, sp, #8
 263 0028 10BD     		pop	{r4, pc}
 264              		.cfi_endproc
 265              	.LFE9:
 266              		.size	chThdCreateStatic, .-chThdCreateStatic
 267 002a 00BFAFF3 		.section	.text.chThdSetPriority,"ax",%progbits
 267      0080
 268              		.align	2
 269              		.p2align 4,,15
 270              		.global	chThdSetPriority
 271              		.thumb
 272              		.thumb_func
 273              		.type	chThdSetPriority, %function
 274              	chThdSetPriority:
 275              	.LFB10:
 276              		.loc 1 214 0
 277              		.cfi_startproc
 278              		@ args = 0, pretend = 0, frame = 0
 279              		@ frame_needed = 0, uses_anonymous_args = 0
 280              	.LVL18:
 281 0000 10B5     		push	{r4, lr}
 282              	.LCFI4:
 283              		.cfi_def_cfa_offset 8
 284              		.cfi_offset 14, -4
ARM GAS  /tmp/cciFuKlO.s 			page 6


 285              		.cfi_offset 4, -8
 286              	.LBB20:
 287              		.loc 1 219 0
 288 0002 2023     		movs	r3, #32
 289              	.LVL19:
 290              	@ 219 "../../os/kernel/src/chthreads.c" 1
 291 0004 83F31188 		msr     BASEPRI, r3
 292              	@ 0 "" 2
 293              	.LVL20:
 294              		.thumb
 295              	.LBE20:
 296              		.loc 1 221 0
 297 0008 40F20003 		movw	r3, #:lower16:rlist
 298              	.LVL21:
 299 000c C0F20003 		movt	r3, #:upper16:rlist
 300 0010 DB69     		ldr	r3, [r3, #28]
 301 0012 1C6C     		ldr	r4, [r3, #64]
 302              	.LVL22:
 303              		.loc 1 222 0
 304 0014 9A68     		ldr	r2, [r3, #8]
 305 0016 9442     		cmp	r4, r2
 306 0018 01D0     		beq	.L5
 307              		.loc 1 222 0 is_stmt 0 discriminator 1
 308 001a 8242     		cmp	r2, r0
 309 001c 00D2     		bcs	.L6
 310              	.L5:
 311              		.loc 1 223 0 is_stmt 1
 312 001e 9860     		str	r0, [r3, #8]
 313              	.L6:
 314              		.loc 1 224 0
 315 0020 1864     		str	r0, [r3, #64]
 316              		.loc 1 229 0
 317 0022 FFF7FEFF 		bl	chSchRescheduleS
 318              	.LVL23:
 319              	.LBB21:
 320              		.loc 1 230 0
 321 0026 0023     		movs	r3, #0
 322              	.LVL24:
 323              	@ 230 "../../os/kernel/src/chthreads.c" 1
 324 0028 83F31188 		msr     BASEPRI, r3
 325              	@ 0 "" 2
 326              	.LVL25:
 327              		.thumb
 328              	.LBE21:
 329              		.loc 1 232 0
 330 002c 2046     		mov	r0, r4
 331 002e 10BD     		pop	{r4, pc}
 332              		.cfi_endproc
 333              	.LFE10:
 334              		.size	chThdSetPriority, .-chThdSetPriority
 335              		.section	.text.chThdResume,"ax",%progbits
 336              		.align	2
 337              		.p2align 4,,15
 338              		.global	chThdResume
 339              		.thumb
 340              		.thumb_func
 341              		.type	chThdResume, %function
ARM GAS  /tmp/cciFuKlO.s 			page 7


 342              	chThdResume:
 343              	.LFB11:
 344              		.loc 1 247 0
 345              		.cfi_startproc
 346              		@ args = 0, pretend = 0, frame = 0
 347              		@ frame_needed = 0, uses_anonymous_args = 0
 348              	.LVL26:
 349 0000 10B5     		push	{r4, lr}
 350              	.LCFI5:
 351              		.cfi_def_cfa_offset 8
 352              		.cfi_offset 14, -4
 353              		.cfi_offset 4, -8
 354              	.LBB22:
 355              		.loc 1 249 0
 356 0002 2023     		movs	r3, #32
 357              	.LVL27:
 358              	.LBE22:
 359              		.loc 1 247 0
 360 0004 0446     		mov	r4, r0
 361              	.LBB23:
 362              		.loc 1 249 0
 363              	@ 249 "../../os/kernel/src/chthreads.c" 1
 364 0006 83F31188 		msr     BASEPRI, r3
 365              	@ 0 "" 2
 366              	.LVL28:
 367              		.thumb
 368              	.LBE23:
 369              		.loc 1 253 0
 370 000a 0021     		movs	r1, #0
 371 000c FFF7FEFF 		bl	chSchWakeupS
 372              	.LVL29:
 373              	.LBB24:
 374              		.loc 1 254 0
 375 0010 0023     		movs	r3, #0
 376              	.LVL30:
 377              	@ 254 "../../os/kernel/src/chthreads.c" 1
 378 0012 83F31188 		msr     BASEPRI, r3
 379              	@ 0 "" 2
 380              	.LVL31:
 381              		.thumb
 382              	.LBE24:
 383              		.loc 1 256 0
 384 0016 2046     		mov	r0, r4
 385 0018 10BD     		pop	{r4, pc}
 386              		.cfi_endproc
 387              	.LFE11:
 388              		.size	chThdResume, .-chThdResume
 389 001a 00BFAFF3 		.section	.text.chThdTerminate,"ax",%progbits
 389      0080
 390              		.align	2
 391              		.p2align 4,,15
 392              		.global	chThdTerminate
 393              		.thumb
 394              		.thumb_func
 395              		.type	chThdTerminate, %function
 396              	chThdTerminate:
 397              	.LFB12:
ARM GAS  /tmp/cciFuKlO.s 			page 8


 398              		.loc 1 270 0
 399              		.cfi_startproc
 400              		@ args = 0, pretend = 0, frame = 0
 401              		@ frame_needed = 0, uses_anonymous_args = 0
 402              		@ link register save eliminated.
 403              	.LVL32:
 404              	.LBB25:
 405              		.loc 1 272 0
 406 0000 2023     		movs	r3, #32
 407              	.LVL33:
 408              	@ 272 "../../os/kernel/src/chthreads.c" 1
 409 0002 83F31188 		msr     BASEPRI, r3
 410              	@ 0 "" 2
 411              	.LVL34:
 412              		.thumb
 413              	.LBE25:
 414              		.loc 1 273 0
 415 0006 417F     		ldrb	r1, [r0, #29]	@ zero_extendqisi2
 416              	.LBB26:
 417              		.loc 1 274 0
 418 0008 0023     		movs	r3, #0
 419              	.LVL35:
 420              	.LBE26:
 421              		.loc 1 273 0
 422 000a 41F00402 		orr	r2, r1, #4
 423 000e 4277     		strb	r2, [r0, #29]
 424              	.LBB27:
 425              		.loc 1 274 0
 426              	@ 274 "../../os/kernel/src/chthreads.c" 1
 427 0010 83F31188 		msr     BASEPRI, r3
 428              	@ 0 "" 2
 429              	.LVL36:
 430              		.thumb
 431              	.LBE27:
 432              		.loc 1 275 0
 433 0014 7047     		bx	lr
 434              		.cfi_endproc
 435              	.LFE12:
 436              		.size	chThdTerminate, .-chThdTerminate
 437 0016 00BFAFF3 		.section	.text.chThdSleep,"ax",%progbits
 437      0080AFF3 
 437      0080
 438              		.align	2
 439              		.p2align 4,,15
 440              		.global	chThdSleep
 441              		.thumb
 442              		.thumb_func
 443              		.type	chThdSleep, %function
 444              	chThdSleep:
 445              	.LFB13:
 446              		.loc 1 289 0
 447              		.cfi_startproc
 448              		@ args = 0, pretend = 0, frame = 0
 449              		@ frame_needed = 0, uses_anonymous_args = 0
 450              	.LVL37:
 451 0000 08B5     		push	{r3, lr}
 452              	.LCFI6:
ARM GAS  /tmp/cciFuKlO.s 			page 9


 453              		.cfi_def_cfa_offset 8
 454              		.cfi_offset 14, -4
 455              		.cfi_offset 3, -8
 456              		.loc 1 289 0
 457 0002 0146     		mov	r1, r0
 458              	.LBB28:
 459              		.loc 1 293 0
 460 0004 2023     		movs	r3, #32
 461              	.LVL38:
 462              	@ 293 "../../os/kernel/src/chthreads.c" 1
 463 0006 83F31188 		msr     BASEPRI, r3
 464              	@ 0 "" 2
 465              	.LVL39:
 466              		.thumb
 467              	.LBE28:
 468              		.loc 1 294 0
 469 000a 0620     		movs	r0, #6
 470              	.LVL40:
 471 000c FFF7FEFF 		bl	chSchGoSleepTimeoutS
 472              	.LVL41:
 473              	.LBB29:
 474              		.loc 1 295 0
 475 0010 0023     		movs	r3, #0
 476              	.LVL42:
 477              	@ 295 "../../os/kernel/src/chthreads.c" 1
 478 0012 83F31188 		msr     BASEPRI, r3
 479              	@ 0 "" 2
 480              	.LVL43:
 481              		.thumb
 482              	.LBE29:
 483              		.loc 1 296 0
 484 0016 08BD     		pop	{r3, pc}
 485              		.cfi_endproc
 486              	.LFE13:
 487              		.size	chThdSleep, .-chThdSleep
 488 0018 AFF30080 		.section	.text.chThdSleepUntil,"ax",%progbits
 488      AFF30080 
 489              		.align	2
 490              		.p2align 4,,15
 491              		.global	chThdSleepUntil
 492              		.thumb
 493              		.thumb_func
 494              		.type	chThdSleepUntil, %function
 495              	chThdSleepUntil:
 496              	.LFB14:
 497              		.loc 1 306 0
 498              		.cfi_startproc
 499              		@ args = 0, pretend = 0, frame = 0
 500              		@ frame_needed = 0, uses_anonymous_args = 0
 501              	.LVL44:
 502 0000 08B5     		push	{r3, lr}
 503              	.LCFI7:
 504              		.cfi_def_cfa_offset 8
 505              		.cfi_offset 14, -4
 506              		.cfi_offset 3, -8
 507              	.LBB30:
 508              		.loc 1 308 0
ARM GAS  /tmp/cciFuKlO.s 			page 10


 509 0002 2023     		movs	r3, #32
 510              	.LVL45:
 511              	@ 308 "../../os/kernel/src/chthreads.c" 1
 512 0004 83F31188 		msr     BASEPRI, r3
 513              	@ 0 "" 2
 514              	.LVL46:
 515              		.thumb
 516              	.LBE30:
 517              		.loc 1 309 0
 518 0008 40F20003 		movw	r3, #:lower16:vtlist
 519              	.LVL47:
 520 000c C0F20003 		movt	r3, #:upper16:vtlist
 521 0010 D968     		ldr	r1, [r3, #12]
 522              	.LVL48:
 523 0012 411A     		subs	r1, r0, r1
 524              	.LVL49:
 525 0014 02D0     		beq	.L12
 526              		.loc 1 310 0
 527 0016 0620     		movs	r0, #6
 528 0018 FFF7FEFF 		bl	chSchGoSleepTimeoutS
 529              	.LVL50:
 530              	.L12:
 531              	.LBB31:
 532              		.loc 1 311 0
 533 001c 0023     		movs	r3, #0
 534              	.LVL51:
 535              	@ 311 "../../os/kernel/src/chthreads.c" 1
 536 001e 83F31188 		msr     BASEPRI, r3
 537              	@ 0 "" 2
 538              	.LVL52:
 539              		.thumb
 540              	.LBE31:
 541              		.loc 1 312 0
 542 0022 08BD     		pop	{r3, pc}
 543              		.cfi_endproc
 544              	.LFE14:
 545              		.size	chThdSleepUntil, .-chThdSleepUntil
 546 0024 AFF30080 		.section	.text.chThdYield,"ax",%progbits
 546      AFF30080 
 546      AFF30080 
 547              		.align	2
 548              		.p2align 4,,15
 549              		.global	chThdYield
 550              		.thumb
 551              		.thumb_func
 552              		.type	chThdYield, %function
 553              	chThdYield:
 554              	.LFB15:
 555              		.loc 1 321 0
 556              		.cfi_startproc
 557              		@ args = 0, pretend = 0, frame = 0
 558              		@ frame_needed = 0, uses_anonymous_args = 0
 559 0000 08B5     		push	{r3, lr}
 560              	.LCFI8:
 561              		.cfi_def_cfa_offset 8
 562              		.cfi_offset 14, -4
 563              		.cfi_offset 3, -8
ARM GAS  /tmp/cciFuKlO.s 			page 11


 564              	.LBB32:
 565              		.loc 1 323 0
 566 0002 2023     		movs	r3, #32
 567              	.LVL53:
 568              	@ 323 "../../os/kernel/src/chthreads.c" 1
 569 0004 83F31188 		msr     BASEPRI, r3
 570              	@ 0 "" 2
 571              	.LVL54:
 572              		.thumb
 573              	.LBE32:
 574              		.loc 1 324 0
 575 0008 40F2000C 		movw	ip, #:lower16:rlist
 576 000c C0F2000C 		movt	ip, #:upper16:rlist
 577 0010 DCF80010 		ldr	r1, [ip, #0]
 578 0014 DCF81C00 		ldr	r0, [ip, #28]
 579 0018 8A68     		ldr	r2, [r1, #8]
 580 001a 8368     		ldr	r3, [r0, #8]
 581              	.LVL55:
 582 001c 9A42     		cmp	r2, r3
 583 001e 01D3     		bcc	.L14
 584              		.loc 1 324 0 is_stmt 0 discriminator 1
 585 0020 FFF7FEFF 		bl	chSchDoReschedule
 586              	.L14:
 587              	.LBB33:
 588              		.loc 1 325 0 is_stmt 1
 589 0024 0023     		movs	r3, #0
 590              	.LVL56:
 591              	@ 325 "../../os/kernel/src/chthreads.c" 1
 592 0026 83F31188 		msr     BASEPRI, r3
 593              	@ 0 "" 2
 594              	.LVL57:
 595              		.thumb
 596              	.LBE33:
 597              		.loc 1 326 0
 598 002a 08BD     		pop	{r3, pc}
 599              		.cfi_endproc
 600              	.LFE15:
 601              		.size	chThdYield, .-chThdYield
 602 002c AFF30080 		.section	.text.chThdExitS,"ax",%progbits
 603              		.align	2
 604              		.p2align 4,,15
 605              		.global	chThdExitS
 606              		.thumb
 607              		.thumb_func
 608              		.type	chThdExitS, %function
 609              	chThdExitS:
 610              	.LFB17:
 611              		.loc 1 363 0
 612              		.cfi_startproc
 613              		@ args = 0, pretend = 0, frame = 0
 614              		@ frame_needed = 0, uses_anonymous_args = 0
 615              	.LVL58:
 616 0000 38B5     		push	{r3, r4, r5, lr}
 617              	.LCFI9:
 618              		.cfi_def_cfa_offset 16
 619              		.cfi_offset 14, -4
 620              		.cfi_offset 5, -8
ARM GAS  /tmp/cciFuKlO.s 			page 12


 621              		.cfi_offset 4, -12
 622              		.cfi_offset 3, -16
 623              		.loc 1 364 0
 624 0002 40F20003 		movw	r3, #:lower16:rlist
 625 0006 C0F20003 		movt	r3, #:upper16:rlist
 626 000a DC69     		ldr	r4, [r3, #28]
 627              	.LVL59:
 628              		.loc 1 371 0
 629 000c 2546     		mov	r5, r4
 630 000e 55F8283F 		ldr	r3, [r5, #40]!
 631              	.LVL60:
 632              		.loc 1 366 0
 633 0012 6062     		str	r0, [r4, #36]
 634              		.loc 1 371 0
 635 0014 AB42     		cmp	r3, r5
 636 0016 07D0     		beq	.L16
 637              	.LVL61:
 638              	.L19:
 639              	.LBB34:
 640              	.LBB35:
 641              		.file 2 "../../os/kernel/include/chinline.h"
 642              		.loc 2 89 0
 643 0018 1A68     		ldr	r2, [r3, #0]
 644              	.LBE35:
 645              	.LBE34:
 646              		.loc 1 372 0
 647 001a 1846     		mov	r0, r3
 648              	.LBB37:
 649              	.LBB36:
 650              		.loc 2 89 0
 651 001c A262     		str	r2, [r4, #40]
 652              	.LBE36:
 653              	.LBE37:
 654              		.loc 1 372 0
 655 001e FFF7FEFF 		bl	chSchReadyI
 656              	.LVL62:
 657              		.loc 1 371 0
 658 0022 A36A     		ldr	r3, [r4, #40]
 659 0024 AB42     		cmp	r3, r5
 660 0026 F7D1     		bne	.L19
 661              	.LVL63:
 662              	.L16:
 663              		.loc 1 377 0
 664 0028 617F     		ldrb	r1, [r4, #29]	@ zero_extendqisi2
 665 002a 8807     		lsls	r0, r1, #30
 666              		.loc 1 378 0
 667 002c 01BF     		itttt	eq
 668 002e 2269     		ldreq	r2, [r4, #16]
 669 0030 6069     		ldreq	r0, [r4, #20]
 670 0032 0261     		streq	r2, [r0, #16]
 671 0034 2269     		ldreq	r2, [r4, #16]
 672 0036 08BF     		it	eq
 673 0038 5061     		streq	r0, [r2, #20]
 674              		.loc 1 380 0
 675 003a 0E20     		movs	r0, #14
 676              		.loc 1 383 0
 677 003c BDE83840 		pop	{r3, r4, r5, lr}
ARM GAS  /tmp/cciFuKlO.s 			page 13


 678              		.loc 1 380 0
 679 0040 FFF7FEBF 		b	chSchGoSleepS
 680              		.cfi_endproc
 681              	.LFE17:
 682              		.size	chThdExitS, .-chThdExitS
 683 0044 AFF30080 		.section	.text.chThdExit,"ax",%progbits
 683      AFF30080 
 683      AFF30080 
 684              		.align	2
 685              		.p2align 4,,15
 686              		.global	chThdExit
 687              		.thumb
 688              		.thumb_func
 689              		.type	chThdExit, %function
 690              	chThdExit:
 691              	.LFB16:
 692              		.loc 1 342 0
 693              		.cfi_startproc
 694              		@ args = 0, pretend = 0, frame = 0
 695              		@ frame_needed = 0, uses_anonymous_args = 0
 696              		@ link register save eliminated.
 697              	.LVL64:
 698              	.LBB38:
 699              		.loc 1 344 0
 700 0000 2023     		movs	r3, #32
 701              	.LVL65:
 702              	@ 344 "../../os/kernel/src/chthreads.c" 1
 703 0002 83F31188 		msr     BASEPRI, r3
 704              	@ 0 "" 2
 705              	.LVL66:
 706              		.thumb
 707              	.LBE38:
 708              		.loc 1 347 0
 709              		.loc 1 345 0
 710 0006 FFF7FEBF 		b	chThdExitS
 711              	.LVL67:
 712              	.LVL68:
 713              		.cfi_endproc
 714              	.LFE16:
 715              		.size	chThdExit, .-chThdExit
 716 000a 00BFAFF3 		.section	.text.chThdWait,"ax",%progbits
 716      0080
 717              		.align	2
 718              		.p2align 4,,15
 719              		.global	chThdWait
 720              		.thumb
 721              		.thumb_func
 722              		.type	chThdWait, %function
 723              	chThdWait:
 724              	.LFB18:
 725              		.loc 1 417 0
 726              		.cfi_startproc
 727              		@ args = 0, pretend = 0, frame = 0
 728              		@ frame_needed = 0, uses_anonymous_args = 0
 729              	.LVL69:
 730 0000 38B5     		push	{r3, r4, r5, lr}
 731              	.LCFI10:
ARM GAS  /tmp/cciFuKlO.s 			page 14


 732              		.cfi_def_cfa_offset 16
 733              		.cfi_offset 14, -4
 734              		.cfi_offset 5, -8
 735              		.cfi_offset 4, -12
 736              		.cfi_offset 3, -16
 737              		.loc 1 417 0
 738 0002 0446     		mov	r4, r0
 739              	.LBB39:
 740              		.loc 1 422 0
 741 0004 2023     		movs	r3, #32
 742              	.LVL70:
 743              	@ 422 "../../os/kernel/src/chthreads.c" 1
 744 0006 83F31188 		msr     BASEPRI, r3
 745              	@ 0 "" 2
 746              	.LVL71:
 747              		.thumb
 748              	.LBE39:
 749              		.loc 1 427 0
 750 000a 037F     		ldrb	r3, [r0, #28]	@ zero_extendqisi2
 751              	.LVL72:
 752 000c 0E2B     		cmp	r3, #14
 753 000e 0AD0     		beq	.L23
 754              		.loc 1 428 0
 755 0010 40F20005 		movw	r5, #:lower16:rlist
 756 0014 C0F20005 		movt	r5, #:upper16:rlist
 757              	.LBB40:
 758              	.LBB41:
 759              		.loc 2 82 0
 760 0018 826A     		ldr	r2, [r0, #40]
 761              	.LBE41:
 762              	.LBE40:
 763              		.loc 1 428 0
 764 001a E969     		ldr	r1, [r5, #28]
 765              	.LVL73:
 766              		.loc 1 429 0
 767 001c 0720     		movs	r0, #7
 768              	.LVL74:
 769              	.LBB43:
 770              	.LBB42:
 771              		.loc 2 82 0
 772 001e 0A60     		str	r2, [r1, #0]
 773              		.loc 2 83 0
 774 0020 A162     		str	r1, [r4, #40]
 775              	.LBE42:
 776              	.LBE43:
 777              		.loc 1 429 0
 778 0022 FFF7FEFF 		bl	chSchGoSleepS
 779              	.LVL75:
 780              	.L23:
 781              		.loc 1 431 0
 782 0026 656A     		ldr	r5, [r4, #36]
 783              	.LVL76:
 784              	.LBB44:
 785              		.loc 1 432 0
 786 0028 0023     		movs	r3, #0
 787              	.LVL77:
 788              	@ 432 "../../os/kernel/src/chthreads.c" 1
ARM GAS  /tmp/cciFuKlO.s 			page 15


 789 002a 83F31188 		msr     BASEPRI, r3
 790              	@ 0 "" 2
 791              	.LVL78:
 792              		.thumb
 793              	.LBE44:
 794              		.loc 1 434 0
 795 002e 2046     		mov	r0, r4
 796 0030 FFF7FEFF 		bl	chThdRelease
 797              	.LVL79:
 798              		.loc 1 437 0
 799 0034 2846     		mov	r0, r5
 800 0036 38BD     		pop	{r3, r4, r5, pc}
 801              		.cfi_endproc
 802              	.LFE18:
 803              		.size	chThdWait, .-chThdWait
 804 0038 AFF30080 		.text
 804      AFF30080 
 805              	.Letext0:
 806              		.file 3 "/home/laura/Documentos/Embebidos/arm-2011q3/bin/../lib/gcc/arm-none-eabi/4.6.1/include/st
 807              		.file 4 "/home/laura/Documentos/Embebidos/arm-2011q3/bin/../lib/gcc/arm-none-eabi/4.6.1/../../../.
 808              		.file 5 "../../os/ports/GCC/ARMCMx/chtypes.h"
 809              		.file 6 "../../os/kernel/include/chlists.h"
 810              		.file 7 "../../os/kernel/include/chthreads.h"
 811              		.file 8 "../../os/ports/GCC/ARMCMx/chcore_v7m.h"
 812              		.file 9 "../../os/kernel/include/chvt.h"
 813              		.file 10 "../../os/kernel/include/chschd.h"
 814              		.file 11 "../../os/kernel/include/chmtx.h"
