ARM GAS  /tmp/ccKkKg5w.s 			page 1


   1              		.syntax unified
   2              		.cpu cortex-m3
   3              		.fpu softvfp
   4              		.eabi_attribute 20, 1
   5              		.eabi_attribute 21, 1
   6              		.eabi_attribute 23, 3
   7              		.eabi_attribute 24, 1
   8              		.eabi_attribute 25, 1
   9              		.eabi_attribute 26, 1
  10              		.eabi_attribute 30, 2
  11              		.eabi_attribute 34, 1
  12              		.eabi_attribute 18, 4
  13              		.thumb
  14              		.file	"syscalls.c"
  15              		.text
  16              	.Ltext0:
  17              		.cfi_sections	.debug_frame
  18              		.section	.text._read_r,"ax",%progbits
  19              		.align	2
  20              		.p2align 4,,15
  21              		.global	_read_r
  22              		.thumb
  23              		.thumb_func
  24              		.type	_read_r, %function
  25              	_read_r:
  26              	.LFB7:
  27              		.file 1 "../../os/various/syscalls.c"
  28              		.loc 1 82 0
  29              		.cfi_startproc
  30              		@ args = 0, pretend = 0, frame = 0
  31              		@ frame_needed = 0, uses_anonymous_args = 0
  32              		@ link register save eliminated.
  33              	.LVL0:
  34              		.loc 1 95 0
  35 0000 1623     		movs	r3, #22
  36              	.LVL1:
  37 0002 0360     		str	r3, [r0, #0]
  38              		.loc 1 98 0
  39 0004 4FF0FF30 		mov	r0, #-1
  40              	.LVL2:
  41 0008 7047     		bx	lr
  42              		.cfi_endproc
  43              	.LFE7:
  44              		.size	_read_r, .-_read_r
  45 000a 00BFAFF3 		.section	.text._lseek_r,"ax",%progbits
  45      0080
  46              		.align	2
  47              		.p2align 4,,15
  48              		.global	_lseek_r
  49              		.thumb
  50              		.thumb_func
  51              		.type	_lseek_r, %function
  52              	_lseek_r:
  53              	.LFB8:
  54              		.loc 1 103 0
  55              		.cfi_startproc
  56              		@ args = 0, pretend = 0, frame = 0
ARM GAS  /tmp/ccKkKg5w.s 			page 2


  57              		@ frame_needed = 0, uses_anonymous_args = 0
  58              		@ link register save eliminated.
  59              	.LVL3:
  60              		.loc 1 110 0
  61 0000 0020     		movs	r0, #0
  62              	.LVL4:
  63 0002 7047     		bx	lr
  64              		.cfi_endproc
  65              	.LFE8:
  66              		.size	_lseek_r, .-_lseek_r
  67 0004 AFF30080 		.section	.text._write_r,"ax",%progbits
  67      AFF30080 
  67      AFF30080 
  68              		.align	2
  69              		.p2align 4,,15
  70              		.global	_write_r
  71              		.thumb
  72              		.thumb_func
  73              		.type	_write_r, %function
  74              	_write_r:
  75              	.LFB9:
  76              		.loc 1 115 0
  77              		.cfi_startproc
  78              		@ args = 0, pretend = 0, frame = 0
  79              		@ frame_needed = 0, uses_anonymous_args = 0
  80              		@ link register save eliminated.
  81              	.LVL5:
  82              		.loc 1 127 0
  83 0000 1846     		mov	r0, r3
  84              	.LVL6:
  85 0002 7047     		bx	lr
  86              		.cfi_endproc
  87              	.LFE9:
  88              		.size	_write_r, .-_write_r
  89 0004 AFF30080 		.section	.text._close_r,"ax",%progbits
  89      AFF30080 
  89      AFF30080 
  90              		.align	2
  91              		.p2align 4,,15
  92              		.global	_close_r
  93              		.thumb
  94              		.thumb_func
  95              		.type	_close_r, %function
  96              	_close_r:
  97              	.LFB10:
  98              		.loc 1 132 0
  99              		.cfi_startproc
 100              		@ args = 0, pretend = 0, frame = 0
 101              		@ frame_needed = 0, uses_anonymous_args = 0
 102              		@ link register save eliminated.
 103              	.LVL7:
 104              		.loc 1 137 0
 105 0000 0020     		movs	r0, #0
 106              	.LVL8:
 107 0002 7047     		bx	lr
 108              		.cfi_endproc
 109              	.LFE10:
ARM GAS  /tmp/ccKkKg5w.s 			page 3


 110              		.size	_close_r, .-_close_r
 111 0004 AFF30080 		.section	.text._sbrk_r,"ax",%progbits
 111      AFF30080 
 111      AFF30080 
 112              		.align	2
 113              		.p2align 4,,15
 114              		.global	_sbrk_r
 115              		.thumb
 116              		.thumb_func
 117              		.type	_sbrk_r, %function
 118              	_sbrk_r:
 119              	.LFB11:
 120              		.loc 1 142 0
 121              		.cfi_startproc
 122              		@ args = 0, pretend = 0, frame = 0
 123              		@ frame_needed = 0, uses_anonymous_args = 0
 124              	.LVL9:
 125 0000 10B5     		push	{r4, lr}
 126              	.LCFI0:
 127              		.cfi_def_cfa_offset 8
 128              		.cfi_offset 14, -4
 129              		.cfi_offset 4, -8
 130              		.loc 1 142 0
 131 0002 0446     		mov	r4, r0
 132              		.loc 1 148 0
 133 0004 0846     		mov	r0, r1
 134              	.LVL10:
 135 0006 FFF7FEFF 		bl	chCoreAlloc
 136              	.LVL11:
 137              		.loc 1 149 0
 138 000a 00B1     		cbz	r0, .L8
 139              		.loc 1 154 0
 140 000c 10BD     		pop	{r4, pc}
 141              	.L8:
 142              		.loc 1 150 0
 143 000e 0C23     		movs	r3, #12
 144 0010 2360     		str	r3, [r4, #0]
 145              		.loc 1 151 0
 146 0012 4FF0FF30 		mov	r0, #-1
 147              	.LVL12:
 148              		.loc 1 154 0
 149 0016 10BD     		pop	{r4, pc}
 150              		.cfi_endproc
 151              	.LFE11:
 152              		.size	_sbrk_r, .-_sbrk_r
 153 0018 AFF30080 		.section	.text._fstat_r,"ax",%progbits
 153      AFF30080 
 154              		.align	2
 155              		.p2align 4,,15
 156              		.global	_fstat_r
 157              		.thumb
 158              		.thumb_func
 159              		.type	_fstat_r, %function
 160              	_fstat_r:
 161              	.LFB12:
 162              		.loc 1 159 0
 163              		.cfi_startproc
ARM GAS  /tmp/ccKkKg5w.s 			page 4


 164              		@ args = 0, pretend = 0, frame = 0
 165              		@ frame_needed = 0, uses_anonymous_args = 0
 166              	.LVL13:
 167 0000 10B5     		push	{r4, lr}
 168              	.LCFI1:
 169              		.cfi_def_cfa_offset 8
 170              		.cfi_offset 14, -4
 171              		.cfi_offset 4, -8
 172              		.loc 1 163 0
 173 0002 1046     		mov	r0, r2
 174              	.LVL14:
 175              		.loc 1 159 0
 176 0004 1446     		mov	r4, r2
 177              		.loc 1 163 0
 178 0006 0021     		movs	r1, #0
 179              	.LVL15:
 180 0008 3C22     		movs	r2, #60
 181              	.LVL16:
 182 000a FFF7FEFF 		bl	memset
 183              	.LVL17:
 184              		.loc 1 164 0
 185 000e 4FF40053 		mov	r3, #8192
 186 0012 6360     		str	r3, [r4, #4]
 187              		.loc 1 166 0
 188 0014 0020     		movs	r0, #0
 189 0016 10BD     		pop	{r4, pc}
 190              		.cfi_endproc
 191              	.LFE12:
 192              		.size	_fstat_r, .-_fstat_r
 193 0018 AFF30080 		.section	.text._isatty_r,"ax",%progbits
 193      AFF30080 
 194              		.align	2
 195              		.p2align 4,,15
 196              		.global	_isatty_r
 197              		.thumb
 198              		.thumb_func
 199              		.type	_isatty_r, %function
 200              	_isatty_r:
 201              	.LFB13:
 202              		.loc 1 171 0
 203              		.cfi_startproc
 204              		@ args = 0, pretend = 0, frame = 0
 205              		@ frame_needed = 0, uses_anonymous_args = 0
 206              		@ link register save eliminated.
 207              	.LVL18:
 208              		.loc 1 176 0
 209 0000 0120     		movs	r0, #1
 210              	.LVL19:
 211 0002 7047     		bx	lr
 212              		.cfi_endproc
 213              	.LFE13:
 214              		.size	_isatty_r, .-_isatty_r
 215 0004 AFF30080 		.section	.text._getpid,"ax",%progbits
 215      AFF30080 
 215      AFF30080 
 216              		.align	2
 217              		.p2align 4,,15
ARM GAS  /tmp/ccKkKg5w.s 			page 5


 218              		.global	_getpid
 219              		.thumb
 220              		.thumb_func
 221              		.type	_getpid, %function
 222              	_getpid:
 223              	.LFB14:
 224              		.loc 1 180 0
 225              		.cfi_startproc
 226              		@ args = 0, pretend = 0, frame = 0
 227              		@ frame_needed = 0, uses_anonymous_args = 0
 228              		@ link register save eliminated.
 229              		.loc 1 182 0
 230 0000 0020     		movs	r0, #0
 231 0002 7047     		bx	lr
 232              		.cfi_endproc
 233              	.LFE14:
 234              		.size	_getpid, .-_getpid
 235 0004 AFF30080 		.section	.text._exit,"ax",%progbits
 235      AFF30080 
 235      AFF30080 
 236              		.align	2
 237              		.p2align 4,,15
 238              		.global	_exit
 239              		.thumb
 240              		.thumb_func
 241              		.type	_exit, %function
 242              	_exit:
 243              	.LFB15:
 244              		.loc 1 185 0
 245              		.cfi_startproc
 246              		@ Volatile: function does not return.
 247              		@ args = 0, pretend = 0, frame = 0
 248              		@ frame_needed = 0, uses_anonymous_args = 0
 249              		@ link register save eliminated.
 250              	.LVL20:
 251              	.L13:
 252 0000 FEE7     		b	.L13
 253              		.cfi_endproc
 254              	.LFE15:
 255              		.size	_exit, .-_exit
 256 0002 00BFAFF3 		.section	.text._kill,"ax",%progbits
 256      0080AFF3 
 256      0080AFF3 
 256      0080
 257              		.align	2
 258              		.p2align 4,,15
 259              		.global	_kill
 260              		.thumb
 261              		.thumb_func
 262              		.type	_kill, %function
 263              	_kill:
 264              	.LFB16:
 265              		.loc 1 191 0
 266              		.cfi_startproc
 267              		@ args = 0, pretend = 0, frame = 0
 268              		@ frame_needed = 0, uses_anonymous_args = 0
 269              		@ link register save eliminated.
ARM GAS  /tmp/ccKkKg5w.s 			page 6


 270              	.LVL21:
 271              		.loc 1 194 0
 272 0000 4FF0FF30 		mov	r0, #-1
 273              	.LVL22:
 274 0004 7047     		bx	lr
 275              		.cfi_endproc
 276              	.LFE16:
 277              		.size	_kill, .-_kill
 278 0006 00BFAFF3 		.text
 278      0080AFF3 
 278      0080
 279              	.Letext0:
 280              		.file 2 "/home/laura/Documentos/Embebidos/arm-2011q3/bin/../lib/gcc/arm-none-eabi/4.6.1/include/st
 281              		.file 3 "/home/laura/Documentos/Embebidos/arm-2011q3/bin/../lib/gcc/arm-none-eabi/4.6.1/../../../.
 282              		.file 4 "/home/laura/Documentos/Embebidos/arm-2011q3/bin/../lib/gcc/arm-none-eabi/4.6.1/../../../.
 283              		.file 5 "/home/laura/Documentos/Embebidos/arm-2011q3/bin/../lib/gcc/arm-none-eabi/4.6.1/../../../.
 284              		.file 6 "/home/laura/Documentos/Embebidos/arm-2011q3/bin/../lib/gcc/arm-none-eabi/4.6.1/../../../.
 285              		.file 7 "/home/laura/Documentos/Embebidos/arm-2011q3/bin/../lib/gcc/arm-none-eabi/4.6.1/../../../.
