:020000040020DA
:1000000000600020710220005004200050042000F5
:100010005004200050042000500420005004200010
:1000200050042000500420005004200071042000DF
:1000300050042000500420005004200051052000EE
:1000400050042000500420005004200050042000E0
:1000500050042000500420005004200050042000D0
:10006000411420006114200050042000500420009E
:1000700050042000500420005004200050042000B0
:1000800050042000500420005004200050042000A0
:100090005004200050042000500420005004200090
:1000A0005004200050042000500420005004200080
:1000B0005004200050042000500420005004200070
:1000C000F0B583B000F0CCFE00F0B2FA40F6DC10E0
:1000D000C2F20000002100F053FF4FF4606440F6CC
:1000E0006810C4F20E04C2F20000002100F048FFC4
:1000F0004FF080410322204601F01AF920464FF0CC
:100100008051062201F014F920460121062201F057
:100110000FF920460421062201F00AF940F650208A
:1001200041F61133C0F22003402200254FF49871AC
:10013000C2F20000009500F063FC2846602101F047
:10014000EFFC0220602101F0EBFC40F6DC164FF4DE
:1001500080574FF080532363C2F20006C4F20E07AB
:10016000E26BC2F3807242B94FF400607863E26BD5
:100170000025C2F38072002AF6D0002D54D0512100
:10018000002001F0CDFC422000F052FC5E21002056
:1001900001F0C6FC0A2000F04BFC316840F6DC1090
:1001A0004A69C2F200004FF0FF319047336840F6D1
:1001B000DC105D694FF0FF31C2F20000A84741F644
:1001C0001041C2B240F66810C2F20000C0F2200135
:1001D00001F03EFA5121022001F0A2FC422000F081
:1001E00027FC5E21022001F09BFC0A2000F020FC8D
:1001F000316840F6DC104A69C2F200004FF0FF316E
:100200009047336840F6DC104FF0FF315D69C2F271
:100210000000A847C1B201256429A1D84FF47A7023
:1002200001F09EFC01259BE740F6681041F6104165
:10023000C2F20000C0F2200101F00AFA4FF400609F
:1002400038634FF4FA7001F08BFC98E7AFF300804D
:10025000704700BFAFF30080AFF30080AFF30080C2
:10026000FEE700BFAFF30080AFF30080AFF3008084
:1002700072B640F60004C2F2000484F30988022337
:1002800083F31488BFF36F8F01F09AF940F20002F4
:1002900040F20040C2F20002C2F20000824217D2D5
:1002A00013464FF05531D64343F8041B851983425A
:1002B000C5F380050CD225B1196002F10803834211
:1002C00006D21A4642F8041B5960131D8342F8D324
:1002D00040F20042C2F20002A24217D213464FF08F
:1002E0005531D54343F8041B6019A342C0F3800085
:1002F0000CD220B1196002F10803A34206D21E46B7
:1003000046F8041B5960331DA342F8D340F60001A0
:1003100040F60404C2F20001C2F20004A14225D258
:1003200041F61840C0F22000024652F8046B0B461A
:10033000CD4343F8046B04EB050CA342CCF38005DA
:1003400014D23DB1166800F108021E6001F10803E5
:10035000A3420BD2114651F8046B1846526840F87C
:10036000046B5A60031D0A1DA342F3D340F6080232
:1003700040F68030C2F20002C2F20000824216D281
:1003800000211346D54343F8041B44198342C4F3A8
:1003900080040CD224B1196002F10803834206D212
:1003A0001A4642F8041B5960131D8342F8D340F2E9
:1003B000C00540F2C006C0F22005C0F22006FFF7DB
:1003C00047FFB54219D22C4654F8043BE94377184D
:1003D0009847B442C7F380070FD22FB1236805F1C5
:1003E00008049847B44208D2254655F8042B904794
:1003F00060682C1D8047B442F6D340F2C00540F23D
:10040000C006C0F22005C0F22006FFF759FEB54233
:100410001AD22C46EF4354F8043B06EB070ECEF3FA
:1004200080079847B4420FD22FB1226805F1080423
:100430009047B44208D2254655F8040B80476168BE
:100440002C1D8847B442F6D3FFF70ABFAFF30080F4
:10045000FEE700BFAFF30080AFF30080AFF3008092
:1004600000F056FA00DF00BFAFF30080AFF300806A
:10047000EFF30983203383F30988002383F3118882
:10048000704700BFAFF30080AFF30080AFF3008090
:1004900008B500224FF46D43CEF20003C0F2FA52C9
:1004A0000021996007201021DA6000F099F80A20F5
:1004B0004FF4007100F094F80B208021BDE8084053
:1004C00000F08EB8AFF30080AFF30080AFF3008090
:1004D000202383F311884FF46D40CEF2000043686F
:1004E00013F400631FD0EFF30982A2F1200C8CF308
:1004F000098840F62013C2F2000399694FF080701A
:1005000042F8040C91B11868DB6981689B689942D4
:1005100094BF002301239BB140F26141C0F220014E
:1005200042F8081C704783F3118870471868DB692C
:1005300081689B68994234BF00230123002BEBD1D3
:1005400040F26443C0F2200342F8083C704700BF09
:1005500008B5202383F3118800F0A2F8002383F369
:100560001188BDE80840FFF7B3BF00BFAFF30080BC
:100570002DE9F04FC1F80CD0D0F80CD0BDE8F08FC9
:10058000002383F311882846A04700F089FA7047BA
:10059000F0B400F00307FE00FF2313FA06F200F0A8
:1005A0001F04B1400125A54086084FF46144CEF2F6
:1005B0000004C03654F82670400927EA020242EAD5
:1005C000010300F1600744F8263044F8275044F84E
:1005D0002050F0BC704700BFAFF30080AFF3008045
:1005E00000F0030210B4FF23D40013FA04F2A14078
:1005F00080084FF46D44CEF20004063054F82030E9
:1006000023EA020242EA010344F8203010BC70479A
:1006100040F62010C2F20000C26941F68033C0F2F9
:1006200020039361FEE700BFAFF30080AFF30080CB
:1006300030B583B0FFF72CFF00F0D2F800F058F887
:1006400000F0C6FB00F0FCFB40F608004021C2F2BF
:10065000000000F07DF940F62014C2F200040122EF
:10066000E0610277002383F3118862B641F6883196
:10067000E569C0F220011C4640F6500040F21163CB
:10068000A961C0F22003C021C2F20000009400F072
:10069000B7F903B030BD00BFAFF30080AFF3008007
:1006A00038B540F62013C2F200039A69002A01DD32
:1006B000013A9A61DB6940F61014186AC2F200042C
:1006C000421C1A62E1682368481CA342E0600ED015
:1006D0009D68013D9D6055B91968DA681869DD604B
:1006E0004C6021609047236899680029F4D038BD98
:1006F00040F61013C2F200034FF0FF3000225B609F
:100700001B609860DA607047AFF30080AFF3008041
:1007100070B440F61015C2F200052C680361A6689B
:10072000C260B14204D92468891BA6688E42FAD3FC
:1007300063688160AC4243600460186018BFA368BE
:1007400060601CBFC1EB0301A16070BC704700BFBB
:10075000036840F61012C2F2000293421FBF99686C
:1007600082688A189A604268002113600368C16039
:100770005A607047AFF30080AFF30080AFF30080A2
:10078000037F0D2B11D8DFE803F023101007100BA7
:10079000101010101010100B416A8B685A1C8A60E0
:1007A00090E80C001A60026853604FF0FF3240F688
:1007B00020134262816800220277C2F200031B68A4
:1007C0009A688A42FBD259680360416008605860A9
:1007D000704700BFAFF30080AFF30080AFF300803D
:1007E00040F62013C2F20003002014225B601B605D
:1007F00098609A615B611B61704700BFAFF3008036
:1008000040F62013002281680277C2F200031B68C1
:100810009A688A42FBD25968036041600860586058
:10082000704700BFAFF30080AFF30080AFF30080EC
:1008300040F6201330B4C2F200031A68D969146874
:100840000877142098610125104663601C60DA6106
:10085000157730BCFFF78CBEAFF30080AFF300809C
:1008600030B54B1C87B0054617D040F62014C2F2B5
:10087000000440F28172E369C0F2200201A8FFF790
:1008800047FF2846FFF7D4FF049B13B101A8FFF7E9
:100890005FFFE069406A07B030BD40F62014FFF703
:1008A000C7FFC2F20004F4E7AFF30080AFF30080AB
:1008B00040F62012C2F2000230B4D46903468568C3
:1008C000A06859620021854284BF217711460BD868
:1008D0001977126891688D42FBD950681A60586088
:1008E0000360536030BC704709688D68A842FBD92B
:1008F0004868216060604C6001210460D361184643
:10090000197714232146936130BCFFF731BE00BF35
:1009100040F62012C2F200021068D169036830B4B8
:1009200014258C68136095615A60D06101220277AA
:10093000002203460A7700E01B689A68A242FBD2B5
:100940005A680B604A601160596030BCFFF710BEF6
:10095000F0B440F62014C2F200046569002200F1F0
:100960002C06816000F128074FF002030164012189
:1009700004614561037760614277C263826302620A
:1009800081778261286187620663C662F0BC704726
:100990002DE9F007A1F1240C40F62015C2F2000564
:1009A00000EB0C07D5F8149040F28151C76040F875
:1009B0000C30079BC0F220017B6039620026904614
:1009C00000F1280A00F12C02022101230561C0F880
:1009D0000880C0F81490017768614677C0F84080BD
:1009E000C6638663066283778661C9F81000C0F823
:1009F00028A00263C262BDE8F0077047AFF3008031
:100A000010B59C4682B0202383F31188049C634672
:100A10000094FFF7BDFF00210446FFF749FF0023C4
:100A200083F31188204602B010BD00BFAFF30080F1
:100A300008B50146202383F311880620FFF710FF35
:100A4000002383F3118808BDAFF30080AFF300806B
:100A500038B540F62013C2F20003DC69254655F88C
:100A6000283F6062AB4207D01A681846A262FFF7BF
:100A7000C7FEA36AAB42F7D1617F880701BF226935
:100A800060690261226908BF50610E20BDE83840EC
:100A9000FFF7CEBEAFF30080AFF30080AFF300806E
:100AA000202383F31188FFF7D3BF00BFAFF300808B
:100AB0000023406000608360704700BFAFF3008098
:100AC00008B5826B037F0A43082B82630CD0092B85
:100AD00000D008BD436A02EA03018B42F9D1FFF757
:100AE0008FFE0022426208BD436A1A42F7D108BD58
:100AF00070B504680546A0420E4607D0A16860683C
:100B00003143FFF7DDFF2468A542F7D170BD00BF78
:100B100010B4024671B140F62010C2F20000C36961
:100B20000D205A62546883E814005360236010BC9F
:100B3000FFF796BE4FF0FF3010BC7047AFF3008058
:100B400010B48A18002440600060846041618161B3
:100B5000C1600261C36110BC704700BFAFF3008089
:100B6000426908B5034680698242986818D001300E
:100B7000986002F8011B19695A618A4228BFDA6835
:100B8000186828BF5A61984208D002681A605360FA
:100B9000FFF736FE00234362184608BD002008BD5B
:100BA0000028E4D06FF0030008BD00BFAFF3008061
:100BB00070B5202304460D4683F31188C36903B141
:100BC0009847A668204629463EB9FFF7A1FF0028AE
:100BD000F7DA334683F3118870BDA369013EA6603E
:100BE00013F8010B2269A361934224BFE368A36158
:100BF000002383F3118870BDAFF30080AFF3008052
:100C00002DE9F0471D4604460E469146D0F81C805B
:100C1000202383F311880027B8F1000F01D020466C
:100C2000C047D4F808A020462946BAF1000F09D1E0
:100C3000FFF76EFF0028F4D0534683F3118838463F
:100C4000BDE8F087A3690AF1FF31A16013F8010B39
:100C5000F0552269A361934224BFE368A361002396
:100C600083F3118801374F45E9D0202383F311889E
:100C7000D2E700BFAFF30080AFF30080AFF3008096
:100C800010B48C1840600060826041618161C16075
:100C90000461C36110BC7047AFF30080AFF3008004
:100CA000F8B504460D461646202383F31188A7683D
:100CB000204631463FB9FFF72BFF0028F7DA3B46C5
:100CC00083F31188F8BD6369013FA76003F8015BF6
:100CD00022696361934224BFE3686361E3690BB1F6
:100CE00020469847002383F311881846F8BD00BFBB
:100CF0004169826910B591420346816816D04C1C47
:100D00009C6012F8014B18699A61824228BFDA6828
:100D1000186828BF9A61984206D002681A6053602A
:100D2000FFF76EFD00234362204610BD0029E6D088
:100D30006FF0020010BD00BFAFF30080AFF3008082
:100D40002DE9F0471E4604460D461746D0F81C9084
:100D5000202383F311884FF00008D4F808A0204620
:100D60000AF1FF33BAF1000F21D0A360297863693B
:100D700003F8011B22696361934224BFE368636146
:100D8000B9F1000F00D0C847002383F31188013F59
:100D900008F1010814D00135202383F31188D4F819
:100DA00008A020460AF1FF33BAF1000FDDD120463A
:100DB0003146FFF7ADFE0028CFD0534683F31188AC
:100DC0004046BDE8F08700BFAFF30080AFF300807E
:100DD000094946F2000C40F6441240F64013C2F2B4
:100DE000000C21F00700C2F20002C2F200032CF056
:100DF0000701106019607047870B0020AFF3008077
:100E0000202383F3118840F6441340F6401CC2F2BD
:100E10000003C2F2000C1A68DCF80010073020F062
:100E20000700891A88429ABF101818600022002310
:100E300083F3118810467047AFF30080AFF3008052
:100E400040F64813C2F2000340F601620021C0F2EE
:100E5000200203F110001A609960D960FFF728BEE4
:100E600008B500F0C5F841F6D030C0F2200000F01F
:100E7000F7F900F055F8BDE8084000F0B1BB00BF3D
:100E8000806BD0F1010038BF00207047AFF30080C5
:100E90008069D0F1010038BF00207047AFF30080B7
:100EA0000246202383F31188002180680B4691605D
:100EB00083F31188704700BFAFF30080AFF3008069
:100EC0001030FFF79DBE00BFAFF30080AFF300808E
:100ED00010304FF0FF33FFF793BE00BFAFF3008039
:100EE0003030FFF72DBF00BFAFF30080AFF30080BD
:100EF00030304FF0FF33FFF723BF00BFAFF3008068
:100F00001030FFF755BE00BFAFF30080AFF3008095
:100F10003030FFF7C5BE00BFAFF30080AFF30080F5
:100F200000F0AEBAAFF30080AFF30080AFF3008003
:100F300070B5044641F690302646C0F2200046F8CF
:100F4000040B66600026A66001260B46154604F1D8
:100F5000100004F1500110222673FFF7F1FD04F197
:100F6000300004F1600110222B46BDE87040FFF70D
:100F700087BE00BFAFF30080AFF30080AFF3008007
:100F800010B52023044683F3118800F0B1FA022340
:100F90002373002383F3118810BD00BFAFF30080DB
:100FA00038B5836904460D463BB104F1100029466B
:100FB000FFF7D6FD00280FDB38BD8168043041F013
:100FC0000402A2601946FFF793FD04F110002946C0
:100FD000FFF7C6FD0028EFDAA268201D42F080036B
:100FE0000021A360BDE83840FFF782BDAFF3008069
:100FF00008B500F025F80B200821FFF7F1FA40F6BC
:101000000003C2F20003196844F6D35CC1F2620C1B
:10101000ACFB01104EF210038209CEF20003511E08
:1010200000200722596098601A6008BDAFF3008065
:1010300000F0B6B8AFF30080AFF30080AFF30080EC
:101040004FF48062C4F20E02136B10B403F003037A
:10105000022B60D0032B46D0012B20D041F210424E
:10106000C4F20E02516940F6000311F0800F14BF64
:101070004FF400404FF4FA40C2F2000318604FF4FE
:101080008062C4F20E02116BC1F30211072939D03C
:10109000116BC1F30212D040186010BC7047106A87
:1010A00040F6000310F080706BD14FF41061C2F273
:1010B0000003C0F23D011960126AC2F30112022A54
:1010C00002BF4FF4D850C0F2B7001860D7D0032A3F
:1010D0004CD0012A02BF4FF49050C0F27A00186041
:1010E000CDD00846CBE740F600030020C2F2000353
:1010F0004FF480621860C4F20E02116BC1F302114A
:101100000729C5D14AF6AB21CAF6AA21A1FB0012D4
:1011100050081860C1E7136ADB0129D440F60003C8
:101120004FF41064C2F20003C0F23D041C60116A67
:10113000C1F30111012904BF4FF49051C0F27A01AB
:1011400007D04FF4D85CC0F2B70C02290CBF61463F
:1011500021464FF48062C4F20E02906A926AC0F394
:101160000A4C0CFB0110D2B2B0FBF2F0186086E71B
:101170004FF4D85140F60003C0F2B701C2F20003A9
:10118000E7E74FF4D850C0F2B700C2F2000318608E
:1011900075E700BFAFF30080AFF30080AFF30080CE
:1011A0004FF420624FF480634FF4864040F609010B
:1011B00010B4C4F20E03C4F20E02C5F24D00C0F228
:1011C00037114FF400741460C3F8E4001A46196232
:1011D000916E8B03FCD54FF48061C4F20E01886ED2
:1011E0004FF48063C007C4F20E03F8D548F20162E1
:1011F000C2F20F029A621946886E4FF4806382072A
:10120000C4F20E03F8D51A6B194622F0700040F0B4
:1012100020021A63886E4FF480630007C4F20E0345
:10122000F8D52221196319468A6E4FF4806312079C
:10123000C4F20E03F8D544F2013141F2504CC5F22C
:101240004D0100224FF4E0501A60C4F20E0C1861F8
:10125000C3F8E4104FF40043CCF8043010BC7047DE
:101260004FF480634FF4864144F2013270B4C4F20B
:101270000E03C5F24D01C5F24D020125C3F8E4107D
:101280001D61C3F8E42086684FF460624FF0FF33BD
:10129000C4F20E02F443566614661360016800241B
:1012A000916345684FF4805CEE431561566153626B
:1012B0005364536514675467C2F8A0304269C4F29E
:1012C0000E0CD143CCF86420CCF86010CCF8003080
:1012D000C6684FF49052CCF838600569C4F20E022B
:1012E000EE43CCF81050CCF81460CCF82430CCF895
:1012F0004430CCF85430CCF87040CCF87440CCF882
:10130000A030016ACD43516615661360816991630F
:10131000C169C843116150615362536453651467D6
:101320005467C2F8A03070BC704700BFAFF30080B4
:1013300002F01F02072A08D8DFE802F010080D109B
:10134000070D09044166016101657047016301668B
:1013500001614165704701664161704741664161C5
:10136000704700BFAFF30080AFF30080AFF30080A1
:101370004FF4C063C4F20E0302229A60704700BFAC
:101380004FF40063C4F20E0302229A60704700BF5C
:1013900070B5056F06466C69E20727D42B699B0779
:1013A00001D5A0072DD414F0E0041ED0A4B214F08F
:1013B000200C18BF4FF0800C210648BF4CF0200CC9
:1013C000630648BF4CF0400C202383F31188B168BA
:1013D000301D41EA0C02B2600021FFF789FB0023B7
:1013E00083F311884FF480732B6070BD202383F347
:1013F0001188A969C9B2FFF7D3FD002383F31188CF
:10140000CCE7202383F3118806F13000FFF770FC4E
:101410000028A8BFE86103DB002383F31188C2E73B
:10142000B168301D41F00802B2600021FFF760FB97
:101430000220E860F0E700BFAFF30080AFF3008068
:1014400040F6681008B5C2F20000FFF7A1FFBDE842
:101450000840FFF73DB800BFAFF30080AFF3008056
:1014600040F6DC1008B5C2F20000FFF791FFBDE8BE
:101470000840FFF72DB800BFAFF30080AFF3008046
:1014800070B540F66815C2F2000541F27132284687
:101490000021C0F22002FFF74BFD40F6DC144FF4B0
:1014A000C0604FF4606CC4F20E0CC4F20E004FF436
:1014B000C066C2F2000441F2813228670021CCF8F4
:1014C0000460C0F220022046CCF86060FFF730FDD7
:1014D0004FF400614FF48053C4F20E030C22C4F2A7
:1014E0000E0121675A601A6670BD00BFAFF300801D
:1014F00038B541F6C035037BC0F22005002918BF7E
:101500000D46012B04461AD0246FFFF799FD40F6D3
:10151000000C2A68C2F2000CDCF8001010016B68A5
:10152000B1FBF0F04FF0FF324FF48671E2602160C2
:101530005022E321206263602260A16038BD40F642
:101540006811C2F2000188421ED040F6DC11C2F2DE
:1015500000018842D8D14FF4806E4FF4864044F2A7
:101560000132C4F20E0EC5F24D00C5F24D024FF429
:101570000073CEF8E400C021CEF810300920CEF878
:10158000E420FFF705F8BFE74FF4806C4FF4864086
:1015900044F20132C4F20E0CC5F24D00C5F24D0208
:1015A0004FF48073CCF8E400C021CCF81030082050
:1015B000CCF8E420FEF7ECFFA6E700BFAFF3008015
:1015C00041F25043C4F20E034FF400425A60FFF759
:1015D0002FBD00BFAFF30080AFF30080AFF30080FA
:1015E00038B54FF46064C4F20E044FF40005204691
:1015F000294606222563FFF79BFE4FF4805CC4F268
:101600000E0C4FF400656046CCF830502946062297
:10161000FFF78EFE4FF00073204619460622236323
:10162000FFF786FE01231946062220466363FFF773
:101630007FFE20464FF4C0310322BDE83840FFF75B
:1016400077BE00BFAFF30080AFF30080AFF3008040
:101650000EB42DE9F04F8AB00DF11906019613A9C9
:101660000546019851F8044B0DF1180B4CF6CD4688
:1016700041F60047CBEB0003CCF6CC46C0F2200786
:101680000991049303960297217861B1661C25297C
:101690000ED02A68284614694FF0FF32A04734461E
:1016A00021780029F2D10AB0BDE8F04F03B07047AD
:1016B000637800202D2B00F009822E2B11BF4FF0F4
:1016C000200873784FF030080136099A34464FF0FD
:1016D000000A07E0117804320AEB8A0301EB430A9F
:1016E00016F8013FA3F13007F9B201340929F3D903
:1016F0002A2BEFD000262E2B099251D0A3F16C0794
:101700007A4242EB07014C2B08BF41F0010100294E
:1017100000F0D2812278002A00F0DC8113460134E7
:101720000122A3F14409B9F1340F00F27B81DFE813
:1017300019F038017901790179017901790179018B
:101740007901790179017901B90179017901790189
:10175000790179017F0179017901C101790179016B
:1017600079017901790179017901790179017901A9
:10177000E400380179017901790179017901790170
:101780007901790179017901B90179017901790149
:10179000490079017F0179017901C10101EB470617
:1017A00014F8013B06EB8607A3F130095FFA89F1D3
:1017B0000929F3D92A2B40F087811178043201EBF3
:1017C0004706EDE7099B029A1F1D09971F6847F618
:1017D000FF78002F08BF17463978002E08BF46460D
:1017E00089464FF02008002900F09280FB43B91988
:1017F0007A78CE1807F1010906F001064B46A2B12E
:10180000894512D02EB113F8012F09F1010952B9FF
:101810000BE05A7809F10109013332B15A7809F124
:10182000010901330AB18945F3D1C7EB0909C9EBB5
:101830000A024FF0200822EAE27A00286ED0B9F1BD
:10184000000F30DD3E462A68F843B94416F8011B04
:1018500009EB0007136928464FF0FF3298474E45C1
:1018600007F001071FD04FB1286816F8011B036964
:101870004FF0FF32284698474E4514D02746286837
:10188000344614F8011B03694FF0FF32284698478D
:101890002B6871782846661C4FF0FF321C69A04700
:1018A0004E45ECD13C46BAF1000F3FF4EDAE2E6848
:1018B0000AF1FF3E33692846764641464FF0FF3233
:1018C0000EF001079847002E3FF4DEAE1FB12A68E4
:1018D000284613690AE02868414603694FF0FF3241
:1018E000284698472968013E0B69284641464FF033
:1018F000FF329847013EEED1C6E6099FDDF8109011
:101900003A683B1D09938DF818204FF020085F4678
:10191000C9EB0A0222EAE27A002890D1CAF1000A51
:10192000BAF1000F8BD0A8F13003D3F1000E3E784E
:101930004EEB03002D2E14BF002000F00100002804
:1019400040F0D9802A686FEA0A0C1369284641469C
:101950004FF0FF320CF0010698471AF1010A3FF4EC
:101960006EAF56B1296828460B694FF0FF324146E9
:1019700098471AF1010A3FF462AF286841460369AB
:101980004FF0FF322846984728680AF1010A036998
:10199000414628464FF0FF3298471AF1010AECD130
:1019A0004DE7099B002A40F097801F1D1B6809978F
:1019B000002BA8BFDC46C0F297800CF10B07DDF8C6
:1019C0000C903946A9FB0362D20802EB8206A3EB16
:1019D000460303F13006013913460E70002AF1D197
:1019E0007A1A0CEB02096FEA0C0309EB0307FB07F9
:1019F000059262460BD5624602F8016B11F8016F41
:101A000005E04F784E1C5770767802315A1C134609
:101A100003F8016B4B45F4D105995F468C44CBEB41
:101A20000C0975E78DF81830DDF810905F466FE708
:101A30000A27099B002A39D01A1D1B6809920DF14B
:101A40002201B3FBF7FC07FB1C3909F13006392EE4
:101A5000C8BF09F1370663460A4601F80169002B41
:101A6000EFD10DF12301C2EB01096FEA0B070BEB7C
:101A7000090C0CEB0703DF0759460CD58BF8006007
:101A80000DF1190112F8016F05E05778561C4F70DF
:101A900076780232591C0B4603F8016B6345F4D18A
:101AA0005F4635E70827099B002AC5D11E1D1B6824
:101AB0000996C4E71027BCE7A3F14101CAB2192A6D
:101AC0008CBF002201222CE6099217E6A61CA378FF
:101AD0000120F2E5012224E6191D1B680991002B63
:101AE000A8BFDC46BFF669AF2D268DF818605B42B3
:101AF0000DF1190C61E7296828460E694FF0FF3295
:101B00002D21B047013709F1FF391BE7AFF3008002
:101B1000FEE700BFAFF30080AFF30080AFF30080BB
:101B200038B540F6DC14C2F2000423684FF0FF32EF
:101B30000D461B690146204698470120FEF778FFB5
:101B4000216820460B694FF0FF3229469847012053
:101B5000BDE83840FEF76CBFAFF30080AFF3008004
:101B600038B54FF46064C4F20E04012504232563E4
:101B70006363FEF75DFF656338BD00BFAFF30080B0
:101B800069646C65000000006D61696E0000000012
:101B9000F10E2000D10E2000810E2000910E2000B9
:101BA000110F2000010F2000E10E2000C10E2000C7
:101BB000A10E200000000000000000000000000056
:101BC0008025000000280000000000000000000048
:101BD0000000000000000000FFFFFFFF0000000009
:101BE00000000000FFFFFFFF0000000000000000F9
:101BF000FFFFFFFF000000000000000000000000E9
:101C0000286E756C6C2900000000000000000000C8
:081C100025643B2000000000E8
:041C1800006CDC027E
:04000005002000C017
:00000001FF
