ARM GAS  /tmp/ccfzye6D.s 			page 1


   1              		.syntax unified
   2              		.cpu cortex-m3
   3              		.fpu softvfp
   4              		.eabi_attribute 20, 1
   5              		.eabi_attribute 21, 1
   6              		.eabi_attribute 23, 3
   7              		.eabi_attribute 24, 1
   8              		.eabi_attribute 25, 1
   9              		.eabi_attribute 26, 1
  10              		.eabi_attribute 30, 2
  11              		.eabi_attribute 34, 1
  12              		.eabi_attribute 18, 4
  13              		.thumb
  14              		.file	"atmel_pwm.c"
  15              		.text
  16              	.Ltext0:
  17              		.cfi_sections	.debug_frame
  18              		.section	.text.FindClockConfiguration,"ax",%progbits
  19              		.align	2
  20              		.p2align 4,,15
  21              		.thumb
  22              		.thumb_func
  23              		.type	FindClockConfiguration, %function
  24              	FindClockConfiguration:
  25              	.LFB36:
  26              		.file 1 "./atmel_lib/atmel_pwm.c"
  27              		.loc 1 101 0
  28              		.cfi_startproc
  29              		@ args = 0, pretend = 0, frame = 48
  30              		@ frame_needed = 0, uses_anonymous_args = 0
  31              	.LVL0:
  32 0000 F0B5     		push	{r4, r5, r6, r7, lr}
  33              	.LCFI0:
  34              		.cfi_def_cfa_offset 20
  35              		.cfi_offset 14, -4
  36              		.cfi_offset 7, -8
  37              		.cfi_offset 6, -12
  38              		.cfi_offset 5, -16
  39              		.cfi_offset 4, -20
  40              		.loc 1 102 0
  41 0002 40F20004 		movw	r4, #:lower16:.LANCHOR0
  42              		.loc 1 101 0
  43 0006 8FB0     		sub	sp, sp, #60
  44              	.LCFI1:
  45              		.cfi_def_cfa_offset 80
  46              		.loc 1 102 0
  47 0008 03AF     		add	r7, sp, #12
  48 000a C0F20004 		movt	r4, #:upper16:.LANCHOR0
  49              		.loc 1 101 0
  50 000e 0546     		mov	r5, r0
  51 0010 0E46     		mov	r6, r1
  52              		.loc 1 102 0
  53 0012 0FCC     		ldmia	r4!, {r0, r1, r2, r3}
  54              	.LVL1:
  55 0014 0FC7     		stmia	r7!, {r0, r1, r2, r3}
  56 0016 0FCC     		ldmia	r4!, {r0, r1, r2, r3}
  57 0018 0FC7     		stmia	r7!, {r0, r1, r2, r3}
ARM GAS  /tmp/ccfzye6D.s 			page 2


  58 001a 94E80700 		ldmia	r4, {r0, r1, r2}
  59              		.loc 1 106 0
  60 001e B542     		cmp	r5, r6
  61              		.loc 1 102 0
  62 0020 87E80700 		stmia	r7, {r0, r1, r2}
  63              	.LVL2:
  64              		.loc 1 106 0
  65 0024 34D2     		bcs	.L10
  66              		.loc 1 109 0
  67 0026 039A     		ldr	r2, [sp, #12]
  68 0028 B6FBF2F1 		udiv	r1, r6, r2
  69 002c B1FBF5F4 		udiv	r4, r1, r5
  70              	.LVL3:
  71              		.loc 1 110 0
  72 0030 FF2C     		cmp	r4, #255
  73 0032 2BD9     		bls	.L6
  74 0034 0023     		movs	r3, #0
  75              	.LVL4:
  76              	.L4:
  77              		.loc 1 112 0
  78 0036 0133     		adds	r3, r3, #1
  79 0038 DBB2     		uxtb	r3, r3
  80              	.LVL5:
  81              		.loc 1 113 0
  82 003a 0EAC     		add	r4, sp, #56
  83              	.LVL6:
  84 003c 04EB8302 		add	r2, r4, r3, lsl #2
  85 0040 52F82C2C 		ldr	r2, [r2, #-44]
  86              		.loc 1 110 0
  87 0044 0A2B     		cmp	r3, #10
  88              		.loc 1 113 0
  89 0046 B6FBF2FC 		udiv	ip, r6, r2
  90              		.loc 1 110 0
  91 004a 8CBF     		ite	hi
  92 004c 0020     		movhi	r0, #0
  93 004e 0120     		movls	r0, #1
  94              		.loc 1 113 0
  95 0050 BCFBF5F4 		udiv	r4, ip, r5
  96              	.LVL7:
  97              		.loc 1 110 0
  98 0054 FF2C     		cmp	r4, #255
  99 0056 94BF     		ite	ls
 100 0058 0020     		movls	r0, #0
 101 005a 00F00100 		andhi	r0, r0, #1
 102 005e 0028     		cmp	r0, #0
 103 0060 E9D1     		bne	.L4
 104              		.loc 1 117 0
 105 0062 0A2B     		cmp	r3, #10
 106 0064 01D9     		bls	.L11
 107              	.LVL8:
 108              	.L5:
 109              		.loc 1 127 0
 110 0066 0FB0     		add	sp, sp, #60
 111 0068 F0BD     		pop	{r4, r5, r6, r7, pc}
 112              	.LVL9:
 113              	.L11:
 114              		.loc 1 117 0
ARM GAS  /tmp/ccfzye6D.s 			page 3


 115 006a 1E02     		lsls	r6, r3, #8
 116              	.LVL10:
 117              	.L3:
 118              		.loc 1 119 0
 119 006c 40F20000 		movw	r0, #:lower16:SD2
 120 0070 40F20001 		movw	r1, #:lower16:.LC3
 121 0074 C0F20000 		movt	r0, #:upper16:SD2
 122 0078 C0F20001 		movt	r1, #:upper16:.LC3
 123 007c 2346     		mov	r3, r4
 124 007e 0095     		str	r5, [sp, #0]
 125 0080 FFF7FEFF 		bl	chprintf
 126              		.loc 1 121 0
 127 0084 46EA0400 		orr	r0, r6, r4
 128 0088 80B2     		uxth	r0, r0
 129 008a ECE7     		b	.L5
 130              	.LVL11:
 131              	.L6:
 132              		.loc 1 110 0
 133 008c 0026     		movs	r6, #0
 134              	.LVL12:
 135 008e EDE7     		b	.L3
 136              	.LVL13:
 137              	.L10:
 138              	.LBB4:
 139              	.LBB5:
 140              		.loc 1 106 0
 141 0090 40F20000 		movw	r0, #:lower16:.LC1
 142 0094 40F20002 		movw	r2, #:lower16:.LANCHOR1
 143 0098 40F20003 		movw	r3, #:lower16:.LC2
 144 009c C0F20000 		movt	r0, #:upper16:.LC1
 145 00a0 6A21     		movs	r1, #106
 146 00a2 C0F20002 		movt	r2, #:upper16:.LANCHOR1
 147 00a6 C0F20003 		movt	r3, #:upper16:.LC2
 148 00aa FFF7FEFF 		bl	__assert_func
 149              	.LBE5:
 150              	.LBE4:
 151              		.cfi_endproc
 152              	.LFE36:
 153              		.size	FindClockConfiguration, .-FindClockConfiguration
 154 00ae 00BF     		.section	.text.PWMC_ConfigureChannel,"ax",%progbits
 155              		.align	2
 156              		.p2align 4,,15
 157              		.global	PWMC_ConfigureChannel
 158              		.thumb
 159              		.thumb_func
 160              		.type	PWMC_ConfigureChannel, %function
 161              	PWMC_ConfigureChannel:
 162              	.LFB37:
 163              		.loc 1 150 0
 164              		.cfi_startproc
 165              		@ args = 0, pretend = 0, frame = 0
 166              		@ frame_needed = 0, uses_anonymous_args = 0
 167              	.LVL14:
 168              		.loc 1 151 0
 169 0000 0B29     		cmp	r1, #11
 170              		.loc 1 150 0
 171 0002 70B5     		push	{r4, r5, r6, lr}
ARM GAS  /tmp/ccfzye6D.s 			page 4


 172              	.LCFI2:
 173              		.cfi_def_cfa_offset 16
 174              		.cfi_offset 14, -4
 175              		.cfi_offset 6, -8
 176              		.cfi_offset 5, -12
 177              		.cfi_offset 4, -16
 178              		.loc 1 151 0
 179 0004 1AD8     		bhi	.L19
 180              		.loc 1 152 0
 181 0006 32F48074 		bics	r4, r2, #256
 182 000a 35D1     		bne	.L20
 183              		.loc 1 153 0
 184 000c 33F40074 		bics	r4, r3, #512
 185 0010 23D1     		bne	.L21
 186              		.loc 1 156 0
 187 0012 0125     		movs	r5, #1
 188 0014 8540     		lsls	r5, r5, r0
 189 0016 0026     		movs	r6, #0
 190 0018 C4F20206 		movt	r6, 16386
 191 001c F468     		ldr	r4, [r6, #12]
 192 001e 2542     		tst	r5, r4
 193 0020 03D0     		beq	.L16
 194              		.loc 1 157 0
 195 0022 B560     		str	r5, [r6, #8]
 196              	.L17:
 197              		.loc 1 158 0 discriminator 1
 198 0024 F468     		ldr	r4, [r6, #12]
 199 0026 2542     		tst	r5, r4
 200 0028 FCD1     		bne	.L17
 201              	.L16:
 202              		.loc 1 162 0
 203 002a 1143     		orrs	r1, r1, r2
 204              	.LVL15:
 205 002c 0024     		movs	r4, #0
 206 002e 1030     		adds	r0, r0, #16
 207              	.LVL16:
 208 0030 0B43     		orrs	r3, r3, r1
 209              	.LVL17:
 210 0032 C4F20204 		movt	r4, 16386
 211 0036 4001     		lsls	r0, r0, #5
 212 0038 2350     		str	r3, [r4, r0]
 213              		.loc 1 163 0
 214 003a 70BD     		pop	{r4, r5, r6, pc}
 215              	.LVL18:
 216              	.L19:
 217              		.loc 1 151 0 discriminator 1
 218 003c 40F20000 		movw	r0, #:lower16:.LC1
 219              	.LVL19:
 220 0040 40F20002 		movw	r2, #:lower16:.LANCHOR2
 221              	.LVL20:
 222 0044 40F20003 		movw	r3, #:lower16:.LC4
 223              	.LVL21:
 224 0048 C0F20000 		movt	r0, #:upper16:.LC1
 225 004c 9721     		movs	r1, #151
 226              	.LVL22:
 227 004e C0F20002 		movt	r2, #:upper16:.LANCHOR2
 228 0052 C0F20003 		movt	r3, #:upper16:.LC4
ARM GAS  /tmp/ccfzye6D.s 			page 5


 229 0056 FFF7FEFF 		bl	__assert_func
 230              	.LVL23:
 231              	.L21:
 232              		.loc 1 153 0 discriminator 1
 233 005a 40F20000 		movw	r0, #:lower16:.LC1
 234              	.LVL24:
 235 005e 40F20002 		movw	r2, #:lower16:.LANCHOR2
 236              	.LVL25:
 237 0062 40F20003 		movw	r3, #:lower16:.LC6
 238              	.LVL26:
 239 0066 C0F20000 		movt	r0, #:upper16:.LC1
 240 006a 9921     		movs	r1, #153
 241              	.LVL27:
 242 006c C0F20002 		movt	r2, #:upper16:.LANCHOR2
 243 0070 C0F20003 		movt	r3, #:upper16:.LC6
 244 0074 FFF7FEFF 		bl	__assert_func
 245              	.LVL28:
 246              	.L20:
 247              		.loc 1 152 0 discriminator 1
 248 0078 40F20000 		movw	r0, #:lower16:.LC1
 249              	.LVL29:
 250 007c 40F20002 		movw	r2, #:lower16:.LANCHOR2
 251              	.LVL30:
 252 0080 40F20003 		movw	r3, #:lower16:.LC5
 253              	.LVL31:
 254 0084 C0F20000 		movt	r0, #:upper16:.LC1
 255 0088 9821     		movs	r1, #152
 256              	.LVL32:
 257 008a C0F20002 		movt	r2, #:upper16:.LANCHOR2
 258 008e C0F20003 		movt	r3, #:upper16:.LC5
 259 0092 FFF7FEFF 		bl	__assert_func
 260              		.cfi_endproc
 261              	.LFE37:
 262              		.size	PWMC_ConfigureChannel, .-PWMC_ConfigureChannel
 263 0096 00BFAFF3 		.section	.text.PWMC_ConfigureClocks,"ax",%progbits
 263      0080AFF3 
 263      0080
 264              		.align	2
 265              		.p2align 4,,15
 266              		.global	PWMC_ConfigureClocks
 267              		.thumb
 268              		.thumb_func
 269              		.type	PWMC_ConfigureClocks, %function
 270              	PWMC_ConfigureClocks:
 271              	.LFB38:
 272              		.loc 1 175 0
 273              		.cfi_startproc
 274              		@ args = 0, pretend = 0, frame = 0
 275              		@ frame_needed = 0, uses_anonymous_args = 0
 276              	.LVL33:
 277 0000 70B5     		push	{r4, r5, r6, lr}
 278              	.LCFI3:
 279              		.cfi_def_cfa_offset 16
 280              		.cfi_offset 14, -4
 281              		.cfi_offset 6, -8
 282              		.cfi_offset 5, -12
 283              		.cfi_offset 4, -16
ARM GAS  /tmp/ccfzye6D.s 			page 6


 284              		.loc 1 175 0
 285 0002 0D46     		mov	r5, r1
 286 0004 1646     		mov	r6, r2
 287              		.loc 1 180 0
 288 0006 0446     		mov	r4, r0
 289 0008 B8B9     		cbnz	r0, .L28
 290              	.LVL34:
 291              	.L23:
 292              		.loc 1 188 0
 293 000a 35B1     		cbz	r5, .L24
 294              		.loc 1 190 0
 295 000c 2846     		mov	r0, r5
 296 000e 3146     		mov	r1, r6
 297 0010 FFF7FEFF 		bl	FindClockConfiguration
 298              	.LVL35:
 299              		.loc 1 192 0
 300 0014 44EA0044 		orr	r4, r4, r0, lsl #16
 301              	.LVL36:
 302              		.loc 1 191 0
 303 0018 20B3     		cbz	r0, .L29
 304              	.LVL37:
 305              	.L24:
 306              		.loc 1 196 0
 307 001a 40F20000 		movw	r0, #:lower16:SD2
 308 001e 40F20001 		movw	r1, #:lower16:.LC8
 309 0022 C0F20000 		movt	r0, #:upper16:SD2
 310 0026 C0F20001 		movt	r1, #:upper16:.LC8
 311 002a 2246     		mov	r2, r4
 312 002c FFF7FEFF 		bl	chprintf
 313              		.loc 1 197 0
 314 0030 0023     		movs	r3, #0
 315 0032 C4F20203 		movt	r3, 16386
 316 0036 1C60     		str	r4, [r3, #0]
 317              		.loc 1 198 0
 318 0038 70BD     		pop	{r4, r5, r6, pc}
 319              	.LVL38:
 320              	.L28:
 321              		.loc 1 182 0
 322 003a 1146     		mov	r1, r2
 323 003c FFF7FEFF 		bl	FindClockConfiguration
 324              	.LVL39:
 325              		.loc 1 183 0
 326 0040 0446     		mov	r4, r0
 327              	.LVL40:
 328 0042 0028     		cmp	r0, #0
 329 0044 E1D1     		bne	.L23
 330              		.loc 1 183 0 is_stmt 0 discriminator 1
 331 0046 40F20000 		movw	r0, #:lower16:.LC1
 332              	.LVL41:
 333 004a 40F20002 		movw	r2, #:lower16:.LANCHOR3
 334 004e 40F20003 		movw	r3, #:lower16:.LC7
 335 0052 C0F20000 		movt	r0, #:upper16:.LC1
 336 0056 B721     		movs	r1, #183
 337 0058 C0F20002 		movt	r2, #:upper16:.LANCHOR3
 338 005c C0F20003 		movt	r3, #:upper16:.LC7
 339 0060 FFF7FEFF 		bl	__assert_func
 340              	.LVL42:
ARM GAS  /tmp/ccfzye6D.s 			page 7


 341              	.L29:
 342              		.loc 1 191 0 is_stmt 1 discriminator 1
 343 0064 40F20000 		movw	r0, #:lower16:.LC1
 344              	.LVL43:
 345 0068 40F20002 		movw	r2, #:lower16:.LANCHOR3
 346 006c 40F20003 		movw	r3, #:lower16:.LC7
 347 0070 C0F20000 		movt	r0, #:upper16:.LC1
 348 0074 BF21     		movs	r1, #191
 349 0076 C0F20002 		movt	r2, #:upper16:.LANCHOR3
 350 007a C0F20003 		movt	r3, #:upper16:.LC7
 351 007e FFF7FEFF 		bl	__assert_func
 352              		.cfi_endproc
 353              	.LFE38:
 354              		.size	PWMC_ConfigureClocks, .-PWMC_ConfigureClocks
 355 0082 00BFAFF3 		.section	.text.PWMC_SetPeriod,"ax",%progbits
 355      0080AFF3 
 355      0080AFF3 
 355      0080
 356              		.align	2
 357              		.p2align 4,,15
 358              		.global	PWMC_SetPeriod
 359              		.thumb
 360              		.thumb_func
 361              		.type	PWMC_SetPeriod, %function
 362              	PWMC_SetPeriod:
 363              	.LFB39:
 364              		.loc 1 210 0
 365              		.cfi_startproc
 366              		@ args = 0, pretend = 0, frame = 0
 367              		@ frame_needed = 0, uses_anonymous_args = 0
 368              		@ link register save eliminated.
 369              	.LVL44:
 370 0000 10B4     		push	{r4}
 371              	.LCFI4:
 372              		.cfi_def_cfa_offset 4
 373              		.cfi_offset 4, -4
 374              		.loc 1 212 0
 375 0002 0124     		movs	r4, #1
 376 0004 8440     		lsls	r4, r4, r0
 377 0006 0023     		movs	r3, #0
 378 0008 C4F20203 		movt	r3, 16386
 379 000c DA68     		ldr	r2, [r3, #12]
 380 000e 1442     		tst	r4, r2
 381 0010 0FD0     		beq	.L33
 382              		.loc 1 219 0
 383 0012 00F11002 		add	r2, r0, #16
 384 0016 5201     		lsls	r2, r2, #5
 385 0018 9C58     		ldr	r4, [r3, r2]
 386              		.loc 1 220 0
 387 001a 4001     		lsls	r0, r0, #5
 388              	.LVL45:
 389 001c 00F18040 		add	r0, r0, #1073741824
 390              		.loc 1 219 0
 391 0020 44F48064 		orr	r4, r4, #1024
 392              		.loc 1 220 0
 393 0024 00F5003C 		add	ip, r0, #131072
 394              		.loc 1 219 0
ARM GAS  /tmp/ccfzye6D.s 			page 8


 395 0028 9C50     		str	r4, [r3, r2]
 396              		.loc 1 220 0
 397 002a CCF81012 		str	r1, [ip, #528]
 398              	.L30:
 399              		.loc 1 222 0
 400 002e 10BC     		pop	{r4}
 401 0030 7047     		bx	lr
 402              	.LVL46:
 403              	.L33:
 404              		.loc 1 214 0
 405 0032 4201     		lsls	r2, r0, #5
 406 0034 02F18043 		add	r3, r2, #1073741824
 407 0038 03F50030 		add	r0, r3, #131072
 408              	.LVL47:
 409 003c C0F80812 		str	r1, [r0, #520]
 410 0040 F5E7     		b	.L30
 411              		.cfi_endproc
 412              	.LFE39:
 413              		.size	PWMC_SetPeriod, .-PWMC_SetPeriod
 414 0042 00BFAFF3 		.section	.text.PWMC_SetDutyCycle,"ax",%progbits
 414      0080AFF3 
 414      0080AFF3 
 414      0080
 415              		.align	2
 416              		.p2align 4,,15
 417              		.global	PWMC_SetDutyCycle
 418              		.thumb
 419              		.thumb_func
 420              		.type	PWMC_SetDutyCycle, %function
 421              	PWMC_SetDutyCycle:
 422              	.LFB40:
 423              		.loc 1 235 0
 424              		.cfi_startproc
 425              		@ args = 0, pretend = 0, frame = 0
 426              		@ frame_needed = 0, uses_anonymous_args = 0
 427              	.LVL48:
 428              		.loc 1 236 0
 429 0000 4201     		lsls	r2, r0, #5
 430              		.loc 1 235 0
 431 0002 38B5     		push	{r3, r4, r5, lr}
 432              	.LCFI5:
 433              		.cfi_def_cfa_offset 16
 434              		.cfi_offset 14, -4
 435              		.cfi_offset 5, -8
 436              		.cfi_offset 4, -12
 437              		.cfi_offset 3, -16
 438              		.loc 1 236 0
 439 0004 02F18043 		add	r3, r2, #1073741824
 440 0008 03F50033 		add	r3, r3, #131072
 441 000c D3F80842 		ldr	r4, [r3, #520]
 442 0010 0022     		movs	r2, #0
 443 0012 A142     		cmp	r1, r4
 444 0014 C4F20202 		movt	r2, 16386
 445 0018 16D8     		bhi	.L38
 446              		.loc 1 239 0
 447 001a 0125     		movs	r5, #1
 448 001c 8540     		lsls	r5, r5, r0
ARM GAS  /tmp/ccfzye6D.s 			page 9


 449 001e D468     		ldr	r4, [r2, #12]
 450 0020 2542     		tst	r5, r4
 451 0022 08D0     		beq	.L39
 452              		.loc 1 246 0
 453 0024 1030     		adds	r0, r0, #16
 454              	.LVL49:
 455 0026 4001     		lsls	r0, r0, #5
 456 0028 1458     		ldr	r4, [r2, r0]
 457 002a 24F48064 		bic	r4, r4, #1024
 458 002e 1450     		str	r4, [r2, r0]
 459              		.loc 1 247 0
 460 0030 C3F81012 		str	r1, [r3, #528]
 461 0034 38BD     		pop	{r3, r4, r5, pc}
 462              	.LVL50:
 463              	.L39:
 464              		.loc 1 241 0
 465 0036 4FF4007C 		mov	ip, #512
 466 003a 4301     		lsls	r3, r0, #5
 467 003c C4F2020C 		movt	ip, 16386
 468 0040 03EB0C00 		add	r0, r3, ip
 469              	.LVL51:
 470 0044 4160     		str	r1, [r0, #4]
 471 0046 38BD     		pop	{r3, r4, r5, pc}
 472              	.LVL52:
 473              	.L38:
 474              		.loc 1 236 0 discriminator 1
 475 0048 40F20000 		movw	r0, #:lower16:.LC1
 476              	.LVL53:
 477 004c 40F20002 		movw	r2, #:lower16:.LANCHOR4
 478 0050 40F20003 		movw	r3, #:lower16:.LC9
 479 0054 C0F20000 		movt	r0, #:upper16:.LC1
 480 0058 EC21     		movs	r1, #236
 481              	.LVL54:
 482 005a C0F20002 		movt	r2, #:upper16:.LANCHOR4
 483 005e C0F20003 		movt	r3, #:upper16:.LC9
 484 0062 FFF7FEFF 		bl	__assert_func
 485              		.cfi_endproc
 486              	.LFE40:
 487              		.size	PWMC_SetDutyCycle, .-PWMC_SetDutyCycle
 488 0066 00BFAFF3 		.section	.text.PWMC_EnableChannel,"ax",%progbits
 488      0080AFF3 
 488      0080
 489              		.align	2
 490              		.p2align 4,,15
 491              		.global	PWMC_EnableChannel
 492              		.thumb
 493              		.thumb_func
 494              		.type	PWMC_EnableChannel, %function
 495              	PWMC_EnableChannel:
 496              	.LFB41:
 497              		.loc 1 259 0
 498              		.cfi_startproc
 499              		@ args = 0, pretend = 0, frame = 0
 500              		@ frame_needed = 0, uses_anonymous_args = 0
 501              		@ link register save eliminated.
 502              	.LVL55:
 503              		.loc 1 260 0
ARM GAS  /tmp/ccfzye6D.s 			page 10


 504 0000 0121     		movs	r1, #1
 505 0002 11FA00F3 		lsls	r3, r1, r0
 506 0006 0022     		movs	r2, #0
 507 0008 C4F20202 		movt	r2, 16386
 508 000c 5360     		str	r3, [r2, #4]
 509              		.loc 1 261 0
 510 000e 7047     		bx	lr
 511              		.cfi_endproc
 512              	.LFE41:
 513              		.size	PWMC_EnableChannel, .-PWMC_EnableChannel
 514              		.section	.text.PWMC_DisableChannel,"ax",%progbits
 515              		.align	2
 516              		.p2align 4,,15
 517              		.global	PWMC_DisableChannel
 518              		.thumb
 519              		.thumb_func
 520              		.type	PWMC_DisableChannel, %function
 521              	PWMC_DisableChannel:
 522              	.LFB42:
 523              		.loc 1 273 0
 524              		.cfi_startproc
 525              		@ args = 0, pretend = 0, frame = 0
 526              		@ frame_needed = 0, uses_anonymous_args = 0
 527              		@ link register save eliminated.
 528              	.LVL56:
 529              		.loc 1 274 0
 530 0000 0121     		movs	r1, #1
 531 0002 11FA00F3 		lsls	r3, r1, r0
 532 0006 0022     		movs	r2, #0
 533 0008 C4F20202 		movt	r2, 16386
 534 000c 9360     		str	r3, [r2, #8]
 535              		.loc 1 275 0
 536 000e 7047     		bx	lr
 537              		.cfi_endproc
 538              	.LFE42:
 539              		.size	PWMC_DisableChannel, .-PWMC_DisableChannel
 540              		.section	.text.PWMC_EnableChannelIt,"ax",%progbits
 541              		.align	2
 542              		.p2align 4,,15
 543              		.global	PWMC_EnableChannelIt
 544              		.thumb
 545              		.thumb_func
 546              		.type	PWMC_EnableChannelIt, %function
 547              	PWMC_EnableChannelIt:
 548              	.LFB43:
 549              		.loc 1 283 0
 550              		.cfi_startproc
 551              		@ args = 0, pretend = 0, frame = 0
 552              		@ frame_needed = 0, uses_anonymous_args = 0
 553              		@ link register save eliminated.
 554              	.LVL57:
 555              		.loc 1 284 0
 556 0000 0121     		movs	r1, #1
 557 0002 11FA00F3 		lsls	r3, r1, r0
 558 0006 0022     		movs	r2, #0
 559 0008 C4F20202 		movt	r2, 16386
 560 000c 1361     		str	r3, [r2, #16]
ARM GAS  /tmp/ccfzye6D.s 			page 11


 561              		.loc 1 285 0
 562 000e 7047     		bx	lr
 563              		.cfi_endproc
 564              	.LFE43:
 565              		.size	PWMC_EnableChannelIt, .-PWMC_EnableChannelIt
 566              		.section	.text.PWMC_DisableChannelIt,"ax",%progbits
 567              		.align	2
 568              		.p2align 4,,15
 569              		.global	PWMC_DisableChannelIt
 570              		.thumb
 571              		.thumb_func
 572              		.type	PWMC_DisableChannelIt, %function
 573              	PWMC_DisableChannelIt:
 574              	.LFB44:
 575              		.loc 1 293 0
 576              		.cfi_startproc
 577              		@ args = 0, pretend = 0, frame = 0
 578              		@ frame_needed = 0, uses_anonymous_args = 0
 579              		@ link register save eliminated.
 580              	.LVL58:
 581              		.loc 1 294 0
 582 0000 0121     		movs	r1, #1
 583 0002 11FA00F3 		lsls	r3, r1, r0
 584 0006 0022     		movs	r2, #0
 585 0008 C4F20202 		movt	r2, 16386
 586 000c 5361     		str	r3, [r2, #20]
 587              		.loc 1 295 0
 588 000e 7047     		bx	lr
 589              		.cfi_endproc
 590              	.LFE44:
 591              		.size	PWMC_DisableChannelIt, .-PWMC_DisableChannelIt
 592              		.section	.rodata
 593              		.align	2
 594              		.set	.LANCHOR0,. + 0
 595              	.LC0:
 596 0000 01000000 		.word	1
 597 0004 02000000 		.word	2
 598 0008 04000000 		.word	4
 599 000c 08000000 		.word	8
 600 0010 10000000 		.word	16
 601 0014 20000000 		.word	32
 602 0018 40000000 		.word	64
 603 001c 80000000 		.word	128
 604 0020 00010000 		.word	256
 605 0024 00020000 		.word	512
 606 0028 00040000 		.word	1024
 607              		.section	.rodata.__func__.5665,"a",%progbits
 608              		.align	2
 609              		.set	.LANCHOR1,. + 0
 610              		.type	__func__.5665, %object
 611              		.size	__func__.5665, 23
 612              	__func__.5665:
 613 0000 46696E64 		.ascii	"FindClockConfiguration\000"
 613      436C6F63 
 613      6B436F6E 
 613      66696775 
 613      72617469 
ARM GAS  /tmp/ccfzye6D.s 			page 12


 614 0017 00       		.section	.rodata.__func__.5675,"a",%progbits
 615              		.align	2
 616              		.set	.LANCHOR2,. + 0
 617              		.type	__func__.5675, %object
 618              		.size	__func__.5675, 22
 619              	__func__.5675:
 620 0000 50574D43 		.ascii	"PWMC_ConfigureChannel\000"
 620      5F436F6E 
 620      66696775 
 620      72654368 
 620      616E6E65 
 621 0016 0000     		.section	.rodata.str1.4,"aMS",%progbits,1
 622              		.align	2
 623              	.LC1:
 624 0000 2E2F6174 		.ascii	"./atmel_lib/atmel_pwm.c\000"
 624      6D656C5F 
 624      6C69622F 
 624      61746D65 
 624      6C5F7077 
 625              	.LC2:
 626 0018 66726571 		.ascii	"frequency < mck\000"
 626      75656E63 
 626      79203C20 
 626      6D636B00 
 627              	.LC3:
 628 0028 466F756E 		.ascii	"Found divisor=%u and prescaler=%u for freq=%uHz\012"
 628      64206469 
 628      7669736F 
 628      723D2575 
 628      20616E64 
 629 0058 0D00     		.ascii	"\015\000"
 630 005a 0000     		.space	2
 631              	.LC4:
 632 005c 70726573 		.ascii	"prescaler < PWM_CMR_CPRE_CLKB\000"
 632      63616C65 
 632      72203C20 
 632      50574D5F 
 632      434D525F 
 633 007a 0000     		.space	2
 634              	.LC5:
 635 007c 28616C69 		.ascii	"(alignment & (uint32_t)~PWM_CMR_CALG) == 0\000"
 635      676E6D65 
 635      6E742026 
 635      20287569 
 635      6E743332 
 636 00a7 00       		.space	1
 637              	.LC6:
 638 00a8 28706F6C 		.ascii	"(polarity & (uint32_t)~PWM_CMR_CPOL) == 0\000"
 638      61726974 
 638      79202620 
 638      2875696E 
 638      7433325F 
 639 00d2 0000     		.space	2
 640              	.LC7:
 641 00d4 72657375 		.ascii	"result != 0\000"
 641      6C742021 
 641      3D203000 
ARM GAS  /tmp/ccfzye6D.s 			page 13


 642              	.LC8:
 643 00e0 53657474 		.ascii	"Setting PWM_MR = 0x%08X\012\015\000"
 643      696E6720 
 643      50574D5F 
 643      4D52203D 
 643      20307825 
 644 00fa 0000     		.space	2
 645              	.LC9:
 646 00fc 64757479 		.ascii	"duty <= PWM->PWM_CH_NUM[channel].PWM_CPRD\000"
 646      203C3D20 
 646      50574D2D 
 646      3E50574D 
 646      5F43485F 
 647 0126 0000     		.section	.rodata.__func__.5695,"a",%progbits
 648              		.align	2
 649              		.set	.LANCHOR4,. + 0
 650              		.type	__func__.5695, %object
 651              		.size	__func__.5695, 18
 652              	__func__.5695:
 653 0000 50574D43 		.ascii	"PWMC_SetDutyCycle\000"
 653      5F536574 
 653      44757479 
 653      4379636C 
 653      6500
 654 0012 0000     		.section	.rodata.__func__.5686,"a",%progbits
 655              		.align	2
 656              		.set	.LANCHOR3,. + 0
 657              		.type	__func__.5686, %object
 658              		.size	__func__.5686, 21
 659              	__func__.5686:
 660 0000 50574D43 		.ascii	"PWMC_ConfigureClocks\000"
 660      5F436F6E 
 660      66696775 
 660      7265436C 
 660      6F636B73 
 661 0015 000000   		.text
 662              	.Letext0:
 663              		.file 2 "/home/laura/Documentos/Embebidos/arm-2011q3/bin/../lib/gcc/arm-none-eabi/4.6.1/../../../.
 664              		.file 3 "./atmel_lib/include/SAM3N.h"
 665              		.file 4 "/home/laura/Documentos/Embebidos/arm-2011q3/bin/../lib/gcc/arm-none-eabi/4.6.1/include/st
 666              		.file 5 "../../os/ports/GCC/ARMCMx/chtypes.h"
 667              		.file 6 "../../os/kernel/include/chlists.h"
 668              		.file 7 "../../os/kernel/include/chthreads.h"
 669              		.file 8 "../../os/ports/GCC/ARMCMx/chcore_v7m.h"
 670              		.file 9 "../../os/kernel/include/chmtx.h"
 671              		.file 10 "../../os/kernel/include/chevents.h"
 672              		.file 11 "../../os/kernel/include/chqueues.h"
 673              		.file 12 "../../os/kernel/include/chioch.h"
 674              		.file 13 "../../os/hal/include/serial.h"
 675              		.file 14 "../../os/hal/platforms/AT91SAM3/core_cm3.h"
 676              		.file 15 "../../os/hal/platforms/AT91SAM3/serial_lld.h"
