ARM GAS  /tmp/ccgL3Ogb.s 			page 1


   1              		.syntax unified
   2              		.cpu cortex-m3
   3              		.fpu softvfp
   4              		.eabi_attribute 20, 1
   5              		.eabi_attribute 21, 1
   6              		.eabi_attribute 23, 3
   7              		.eabi_attribute 24, 1
   8              		.eabi_attribute 25, 1
   9              		.eabi_attribute 26, 1
  10              		.eabi_attribute 30, 2
  11              		.eabi_attribute 34, 1
  12              		.eabi_attribute 18, 4
  13              		.thumb
  14              		.file	"testdyn.c"
  15              		.text
  16              	.Ltext0:
  17              		.cfi_sections	.debug_frame
  18              		.section	.text.regfind,"ax",%progbits
  19              		.align	2
  20              		.p2align 4,,15
  21              		.thumb
  22              		.thumb_func
  23              		.type	regfind, %function
  24              	regfind:
  25              	.LFB12:
  26              		.file 1 "../../test/testdyn.c"
  27              		.loc 1 202 0
  28              		.cfi_startproc
  29              		@ args = 0, pretend = 0, frame = 0
  30              		@ frame_needed = 0, uses_anonymous_args = 0
  31              	.LVL0:
  32 0000 38B5     		push	{r3, r4, r5, lr}
  33              	.LCFI0:
  34              		.cfi_def_cfa_offset 16
  35              		.cfi_offset 14, -4
  36              		.cfi_offset 5, -8
  37              		.cfi_offset 4, -12
  38              		.cfi_offset 3, -16
  39              		.loc 1 202 0
  40 0002 0546     		mov	r5, r0
  41              		.loc 1 206 0
  42 0004 FFF7FEFF 		bl	chRegFirstThread
  43              	.LVL1:
  44              		.loc 1 204 0
  45 0008 0024     		movs	r4, #0
  46              		.loc 1 206 0
  47 000a 0346     		mov	r3, r0
  48              	.LVL2:
  49              	.L2:
  50              		.loc 1 209 0 discriminator 1
  51 000c 1846     		mov	r0, r3
  52              	.LVL3:
  53              		.loc 1 208 0 discriminator 1
  54 000e AB42     		cmp	r3, r5
  55 0010 08BF     		it	eq
  56 0012 44F00104 		orreq	r4, r4, #1
  57              	.LVL4:
ARM GAS  /tmp/ccgL3Ogb.s 			page 2


  58              		.loc 1 209 0 discriminator 1
  59 0016 FFF7FEFF 		bl	chRegNextThread
  60              	.LVL5:
  61              		.loc 1 210 0 discriminator 1
  62 001a 0346     		mov	r3, r0
  63 001c 0028     		cmp	r0, #0
  64 001e F5D1     		bne	.L2
  65              		.loc 1 212 0
  66 0020 2046     		mov	r0, r4
  67              	.LVL6:
  68 0022 38BD     		pop	{r3, r4, r5, pc}
  69              		.cfi_endproc
  70              	.LFE12:
  71              		.size	regfind, .-regfind
  72 0024 AFF30080 		.section	.text.dyn3_execute,"ax",%progbits
  72      AFF30080 
  72      AFF30080 
  73              		.align	2
  74              		.p2align 4,,15
  75              		.thumb
  76              		.thumb_func
  77              		.type	dyn3_execute, %function
  78              	dyn3_execute:
  79              	.LFB14:
  80              		.loc 1 219 0
  81              		.cfi_startproc
  82              		@ args = 0, pretend = 0, frame = 0
  83              		@ frame_needed = 0, uses_anonymous_args = 0
  84              	.LVL7:
  85              		.loc 1 221 0
  86 0000 40F2000C 		movw	ip, #:lower16:rlist
  87              		.loc 1 219 0
  88 0004 10B5     		push	{r4, lr}
  89              	.LCFI1:
  90              		.cfi_def_cfa_offset 8
  91              		.cfi_offset 14, -4
  92              		.cfi_offset 4, -8
  93              		.loc 1 221 0
  94 0006 C0F2000C 		movt	ip, #:upper16:rlist
  95 000a DCF81C00 		ldr	r0, [ip, #28]
  96              		.loc 1 224 0
  97 000e 40F20004 		movw	r4, #:lower16:.LC0
  98 0012 8268     		ldr	r2, [r0, #8]
  99 0014 40F20003 		movw	r3, #:lower16:thread
 100 0018 40F20000 		movw	r0, #:lower16:.LANCHOR0
 101 001c 013A     		subs	r2, r2, #1
 102              		.loc 1 219 0
 103 001e 82B0     		sub	sp, sp, #8
 104              	.LCFI2:
 105              		.cfi_def_cfa_offset 16
 106              		.loc 1 224 0
 107 0020 C0F20004 		movt	r4, #:upper16:.LC0
 108 0024 4FF49871 		mov	r1, #304
 109 0028 C0F20003 		movt	r3, #:upper16:thread
 110 002c C0F20000 		movt	r0, #:upper16:.LANCHOR0
 111 0030 0094     		str	r4, [sp, #0]
 112 0032 FFF7FEFF 		bl	chThdCreateFromHeap
ARM GAS  /tmp/ccgL3Ogb.s 			page 3


 113              	.LVL8:
 114              		.loc 1 225 0
 115 0036 837F     		ldrb	r3, [r0, #30]	@ zero_extendqisi2
 116              		.loc 1 224 0
 117 0038 0446     		mov	r4, r0
 118              	.LVL9:
 119              		.loc 1 225 0
 120 003a 0120     		movs	r0, #1
 121              	.LVL10:
 122 003c 1A1A     		subs	r2, r3, r0
 123 003e 5142     		rsbs	r1, r2, #0
 124 0040 41EB0201 		adc	r1, r1, r2
 125 0044 FFF7FEFF 		bl	_test_assert
 126 0048 08B1     		cbz	r0, .L7
 127              	.L5:
 128              		.loc 1 247 0
 129 004a 02B0     		add	sp, sp, #8
 130 004c 10BD     		pop	{r4, pc}
 131              	.L7:
 132              		.loc 1 226 0
 133 004e 2046     		mov	r0, r4
 134 0050 FFF7FEFF 		bl	chThdAddRef
 135              		.loc 1 227 0
 136 0054 A27F     		ldrb	r2, [r4, #30]	@ zero_extendqisi2
 137 0056 0220     		movs	r0, #2
 138 0058 131A     		subs	r3, r2, r0
 139 005a 5942     		rsbs	r1, r3, #0
 140 005c 41EB0301 		adc	r1, r1, r3
 141 0060 FFF7FEFF 		bl	_test_assert
 142 0064 0028     		cmp	r0, #0
 143 0066 F0D1     		bne	.L5
 144              		.loc 1 228 0
 145 0068 2046     		mov	r0, r4
 146 006a FFF7FEFF 		bl	chThdRelease
 147              		.loc 1 229 0
 148 006e A37F     		ldrb	r3, [r4, #30]	@ zero_extendqisi2
 149 0070 0320     		movs	r0, #3
 150 0072 A3F10101 		sub	r1, r3, #1
 151 0076 D1F1000C 		rsbs	ip, r1, #0
 152 007a 4CEB0101 		adc	r1, ip, r1
 153 007e FFF7FEFF 		bl	_test_assert
 154 0082 0028     		cmp	r0, #0
 155 0084 E1D1     		bne	.L5
 156              		.loc 1 232 0
 157 0086 2046     		mov	r0, r4
 158 0088 FFF7FEFF 		bl	regfind
 159 008c 0146     		mov	r1, r0
 160 008e 0420     		movs	r0, #4
 161 0090 FFF7FEFF 		bl	_test_assert
 162 0094 0028     		cmp	r0, #0
 163 0096 D8D1     		bne	.L5
 164              		.loc 1 233 0
 165 0098 2046     		mov	r0, r4
 166 009a FFF7FEFF 		bl	regfind
 167 009e 0146     		mov	r1, r0
 168 00a0 0520     		movs	r0, #5
 169 00a2 FFF7FEFF 		bl	_test_assert
ARM GAS  /tmp/ccgL3Ogb.s 			page 4


 170 00a6 0028     		cmp	r0, #0
 171 00a8 CFD1     		bne	.L5
 172              		.loc 1 236 0
 173 00aa 2046     		mov	r0, r4
 174 00ac FFF7FEFF 		bl	chThdRelease
 175              		.loc 1 237 0
 176 00b0 A27F     		ldrb	r2, [r4, #30]	@ zero_extendqisi2
 177 00b2 0620     		movs	r0, #6
 178 00b4 D2F10101 		rsbs	r1, r2, #1
 179 00b8 38BF     		it	cc
 180 00ba 0021     		movcc	r1, #0
 181 00bc FFF7FEFF 		bl	_test_assert
 182 00c0 0028     		cmp	r0, #0
 183 00c2 C2D1     		bne	.L5
 184              		.loc 1 238 0
 185 00c4 94F81CE0 		ldrb	lr, [r4, #28]	@ zero_extendqisi2
 186 00c8 0720     		movs	r0, #7
 187 00ca DEF10101 		rsbs	r1, lr, #1
 188 00ce 38BF     		it	cc
 189 00d0 0021     		movcc	r1, #0
 190 00d2 FFF7FEFF 		bl	_test_assert
 191 00d6 0028     		cmp	r0, #0
 192 00d8 B7D1     		bne	.L5
 193              		.loc 1 239 0
 194 00da 2046     		mov	r0, r4
 195 00dc FFF7FEFF 		bl	regfind
 196 00e0 0146     		mov	r1, r0
 197 00e2 0820     		movs	r0, #8
 198 00e4 FFF7FEFF 		bl	_test_assert
 199 00e8 0028     		cmp	r0, #0
 200 00ea AED1     		bne	.L5
 201              		.loc 1 240 0
 202 00ec 2046     		mov	r0, r4
 203 00ee FFF7FEFF 		bl	regfind
 204 00f2 0146     		mov	r1, r0
 205 00f4 0920     		movs	r0, #9
 206 00f6 FFF7FEFF 		bl	_test_assert
 207 00fa 0028     		cmp	r0, #0
 208 00fc A5D1     		bne	.L5
 209              		.loc 1 241 0
 210 00fe 3220     		movs	r0, #50
 211 0100 FFF7FEFF 		bl	chThdSleep
 212              		.loc 1 242 0
 213 0104 237F     		ldrb	r3, [r4, #28]	@ zero_extendqisi2
 214 0106 0A20     		movs	r0, #10
 215 0108 A3F10E01 		sub	r1, r3, #14
 216 010c D1F1000C 		rsbs	ip, r1, #0
 217 0110 4CEB0101 		adc	r1, ip, r1
 218 0114 FFF7FEFF 		bl	_test_assert
 219 0118 0028     		cmp	r0, #0
 220 011a 96D1     		bne	.L5
 221              		.loc 1 245 0
 222 011c 2046     		mov	r0, r4
 223 011e FFF7FEFF 		bl	regfind
 224 0122 0146     		mov	r1, r0
 225 0124 0B20     		movs	r0, #11
 226 0126 FFF7FEFF 		bl	_test_assert
ARM GAS  /tmp/ccgL3Ogb.s 			page 5


 227 012a 0028     		cmp	r0, #0
 228 012c 8DD1     		bne	.L5
 229              		.loc 1 246 0
 230 012e 2046     		mov	r0, r4
 231 0130 FFF7FEFF 		bl	regfind
 232 0134 D0F10101 		rsbs	r1, r0, #1
 233 0138 38BF     		it	cc
 234 013a 0021     		movcc	r1, #0
 235 013c 0C20     		movs	r0, #12
 236              		.loc 1 247 0
 237 013e 02B0     		add	sp, sp, #8
 238 0140 BDE81040 		pop	{r4, lr}
 239              		.loc 1 246 0
 240 0144 FFF7FEBF 		b	_test_assert
 241              		.cfi_endproc
 242              	.LFE14:
 243              		.size	dyn3_execute, .-dyn3_execute
 244 0148 AFF30080 		.section	.text.thread,"ax",%progbits
 244      AFF30080 
 245              		.align	2
 246              		.p2align 4,,15
 247              		.thumb
 248              		.thumb_func
 249              		.type	thread, %function
 250              	thread:
 251              	.LFB7:
 252              		.loc 1 82 0
 253              		.cfi_startproc
 254              		@ args = 0, pretend = 0, frame = 0
 255              		@ frame_needed = 0, uses_anonymous_args = 0
 256              	.LVL11:
 257 0000 08B5     		push	{r3, lr}
 258              	.LCFI3:
 259              		.cfi_def_cfa_offset 8
 260              		.cfi_offset 14, -4
 261              		.cfi_offset 3, -8
 262              		.loc 1 84 0
 263 0002 0078     		ldrb	r0, [r0, #0]	@ zero_extendqisi2
 264              	.LVL12:
 265 0004 FFF7FEFF 		bl	test_emit_token
 266              		.loc 1 86 0
 267 0008 0020     		movs	r0, #0
 268 000a 08BD     		pop	{r3, pc}
 269              		.cfi_endproc
 270              	.LFE7:
 271              		.size	thread, .-thread
 272 000c AFF30080 		.section	.text.dyn3_setup,"ax",%progbits
 273              		.align	2
 274              		.p2align 4,,15
 275              		.thumb
 276              		.thumb_func
 277              		.type	dyn3_setup, %function
 278              	dyn3_setup:
 279              	.LFB13:
 280              		.loc 1 214 0
 281              		.cfi_startproc
 282              		@ args = 0, pretend = 0, frame = 0
ARM GAS  /tmp/ccgL3Ogb.s 			page 6


 283              		@ frame_needed = 0, uses_anonymous_args = 0
 284              		@ link register save eliminated.
 285              		.loc 1 216 0
 286 0000 40F20000 		movw	r0, #:lower16:.LANCHOR0
 287 0004 40F20001 		movw	r1, #:lower16:test
 288 0008 C0F20000 		movt	r0, #:upper16:.LANCHOR0
 289 000c C0F20001 		movt	r1, #:upper16:test
 290 0010 4FF4BE62 		mov	r2, #1520
 291              		.loc 1 217 0
 292              		.loc 1 216 0
 293 0014 FFF7FEBF 		b	chHeapInit
 294              		.cfi_endproc
 295              	.LFE13:
 296              		.size	dyn3_setup, .-dyn3_setup
 297 0018 AFF30080 		.section	.text.dyn1_setup,"ax",%progbits
 297      AFF30080 
 298              		.align	2
 299              		.p2align 4,,15
 300              		.thumb
 301              		.thumb_func
 302              		.type	dyn1_setup, %function
 303              	dyn1_setup:
 304              	.LFB8:
 305              		.loc 1 89 0
 306              		.cfi_startproc
 307              		@ args = 0, pretend = 0, frame = 0
 308              		@ frame_needed = 0, uses_anonymous_args = 0
 309              		@ link register save eliminated.
 310              		.loc 1 91 0
 311 0000 40F20000 		movw	r0, #:lower16:.LANCHOR0
 312 0004 40F20001 		movw	r1, #:lower16:test
 313 0008 C0F20000 		movt	r0, #:upper16:.LANCHOR0
 314 000c C0F20001 		movt	r1, #:upper16:test
 315 0010 4FF4BE62 		mov	r2, #1520
 316              		.loc 1 92 0
 317              		.loc 1 91 0
 318 0014 FFF7FEBF 		b	chHeapInit
 319              		.cfi_endproc
 320              	.LFE8:
 321              		.size	dyn1_setup, .-dyn1_setup
 322 0018 AFF30080 		.section	.text.dyn2_execute,"ax",%progbits
 322      AFF30080 
 323              		.align	2
 324              		.p2align 4,,15
 325              		.thumb
 326              		.thumb_func
 327              		.type	dyn2_execute, %function
 328              	dyn2_execute:
 329              	.LFB11:
 330              		.loc 1 152 0
 331              		.cfi_startproc
 332              		@ args = 0, pretend = 0, frame = 0
 333              		@ frame_needed = 0, uses_anonymous_args = 0
 334              		.loc 1 154 0
 335 0000 40F20000 		movw	r0, #:lower16:rlist
 336              		.loc 1 152 0
 337 0004 38B5     		push	{r3, r4, r5, lr}
ARM GAS  /tmp/ccgL3Ogb.s 			page 7


 338              	.LCFI4:
 339              		.cfi_def_cfa_offset 16
 340              		.cfi_offset 14, -4
 341              		.cfi_offset 5, -8
 342              		.cfi_offset 4, -12
 343              		.cfi_offset 3, -16
 344              		.loc 1 154 0
 345 0006 C0F20000 		movt	r0, #:upper16:rlist
 346              		.loc 1 158 0
 347 000a 40F20004 		movw	r4, #:lower16:wa
 348              		.loc 1 154 0
 349 000e C369     		ldr	r3, [r0, #28]
 350              		.loc 1 158 0
 351 0010 C0F20004 		movt	r4, #:upper16:wa
 352 0014 40F20000 		movw	r0, #:lower16:.LANCHOR1
 353 0018 2168     		ldr	r1, [r4, #0]
 354 001a C0F20000 		movt	r0, #:upper16:.LANCHOR1
 355              		.loc 1 154 0
 356 001e 9D68     		ldr	r5, [r3, #8]
 357              	.LVL13:
 358              		.loc 1 158 0
 359 0020 FFF7FEFF 		bl	chPoolFree
 360              	.LVL14:
 361 0024 40F20000 		movw	r0, #:lower16:.LANCHOR1
 362 0028 6168     		ldr	r1, [r4, #4]
 363 002a C0F20000 		movt	r0, #:upper16:.LANCHOR1
 364 002e FFF7FEFF 		bl	chPoolFree
 365              	.LVL15:
 366 0032 40F20000 		movw	r0, #:lower16:.LANCHOR1
 367 0036 A168     		ldr	r1, [r4, #8]
 368 0038 C0F20000 		movt	r0, #:upper16:.LANCHOR1
 369 003c FFF7FEFF 		bl	chPoolFree
 370              	.LVL16:
 371 0040 40F20000 		movw	r0, #:lower16:.LANCHOR1
 372 0044 E168     		ldr	r1, [r4, #12]
 373 0046 C0F20000 		movt	r0, #:upper16:.LANCHOR1
 374 004a FFF7FEFF 		bl	chPoolFree
 375              	.LVL17:
 376              		.loc 1 161 0
 377 004e 40F20000 		movw	r0, #:lower16:.LANCHOR1
 378 0052 40F20002 		movw	r2, #:lower16:thread
 379 0056 40F20003 		movw	r3, #:lower16:.LC0
 380 005a 691E     		subs	r1, r5, #1
 381 005c C0F20002 		movt	r2, #:upper16:thread
 382 0060 C0F20003 		movt	r3, #:upper16:.LC0
 383 0064 C0F20000 		movt	r0, #:upper16:.LANCHOR1
 384 0068 FFF7FEFF 		bl	chThdCreateFromMemoryPool
 385 006c 40F20004 		movw	r4, #:lower16:threads
 386 0070 C0F20004 		movt	r4, #:upper16:threads
 387 0074 2060     		str	r0, [r4, #0]
 388              		.loc 1 162 0
 389 0076 40F20002 		movw	r2, #:lower16:thread
 390 007a 40F20000 		movw	r0, #:lower16:.LANCHOR1
 391 007e 40F20003 		movw	r3, #:lower16:.LC1
 392 0082 A91E     		subs	r1, r5, #2
 393 0084 C0F20002 		movt	r2, #:upper16:thread
 394 0088 C0F20003 		movt	r3, #:upper16:.LC1
ARM GAS  /tmp/ccgL3Ogb.s 			page 8


 395 008c C0F20000 		movt	r0, #:upper16:.LANCHOR1
 396 0090 FFF7FEFF 		bl	chThdCreateFromMemoryPool
 397              		.loc 1 163 0
 398 0094 40F20002 		movw	r2, #:lower16:thread
 399              		.loc 1 162 0
 400 0098 6060     		str	r0, [r4, #4]
 401              		.loc 1 163 0
 402 009a 40F20003 		movw	r3, #:lower16:.LC2
 403 009e 40F20000 		movw	r0, #:lower16:.LANCHOR1
 404 00a2 E91E     		subs	r1, r5, #3
 405 00a4 C0F20002 		movt	r2, #:upper16:thread
 406 00a8 C0F20003 		movt	r3, #:upper16:.LC2
 407 00ac C0F20000 		movt	r0, #:upper16:.LANCHOR1
 408 00b0 FFF7FEFF 		bl	chThdCreateFromMemoryPool
 409              		.loc 1 164 0
 410 00b4 40F20002 		movw	r2, #:lower16:thread
 411              		.loc 1 163 0
 412 00b8 A060     		str	r0, [r4, #8]
 413              		.loc 1 164 0
 414 00ba 40F20003 		movw	r3, #:lower16:.LC3
 415 00be 40F20000 		movw	r0, #:lower16:.LANCHOR1
 416 00c2 291F     		subs	r1, r5, #4
 417 00c4 C0F20002 		movt	r2, #:upper16:thread
 418 00c8 C0F20003 		movt	r3, #:upper16:.LC3
 419 00cc C0F20000 		movt	r0, #:upper16:.LANCHOR1
 420 00d0 FFF7FEFF 		bl	chThdCreateFromMemoryPool
 421              		.loc 1 165 0
 422 00d4 40F20002 		movw	r2, #:lower16:thread
 423              		.loc 1 164 0
 424 00d8 E060     		str	r0, [r4, #12]
 425              		.loc 1 165 0
 426 00da 40F20003 		movw	r3, #:lower16:.LC4
 427 00de 40F20000 		movw	r0, #:lower16:.LANCHOR1
 428 00e2 691F     		subs	r1, r5, #5
 429 00e4 C0F20000 		movt	r0, #:upper16:.LANCHOR1
 430 00e8 C0F20002 		movt	r2, #:upper16:thread
 431 00ec C0F20003 		movt	r3, #:upper16:.LC4
 432 00f0 FFF7FEFF 		bl	chThdCreateFromMemoryPool
 433              		.loc 1 167 0
 434 00f4 2168     		ldr	r1, [r4, #0]
 435              		.loc 1 165 0
 436 00f6 2061     		str	r0, [r4, #16]
 437              		.loc 1 167 0
 438 00f8 49B1     		cbz	r1, .L12
 439              		.loc 1 167 0 is_stmt 0 discriminator 1
 440 00fa 6168     		ldr	r1, [r4, #4]
 441 00fc 39B1     		cbz	r1, .L12
 442              		.loc 1 167 0 discriminator 3
 443 00fe A168     		ldr	r1, [r4, #8]
 444 0100 29B1     		cbz	r1, .L12
 445              		.loc 1 167 0 discriminator 4
 446 0102 E168     		ldr	r1, [r4, #12]
 447 0104 19B1     		cbz	r1, .L12
 448              		.loc 1 152 0 is_stmt 1 discriminator 5
 449 0106 D0F10101 		rsbs	r1, r0, #1
 450 010a 38BF     		it	cc
 451 010c 0021     		movcc	r1, #0
ARM GAS  /tmp/ccgL3Ogb.s 			page 9


 452              	.L12:
 453              		.loc 1 167 0 discriminator 7
 454 010e 0120     		movs	r0, #1
 455 0110 FFF7FEFF 		bl	_test_assert
 456 0114 00B1     		cbz	r0, .L18
 457              	.LVL18:
 458              	.L11:
 459 0116 38BD     		pop	{r3, r4, r5, pc}
 460              	.LVL19:
 461              	.L18:
 462              		.loc 1 175 0
 463 0118 FFF7FEFF 		bl	test_wait_threads
 464              		.loc 1 176 0
 465 011c 40F20001 		movw	r1, #:lower16:.LC5
 466 0120 0220     		movs	r0, #2
 467 0122 C0F20001 		movt	r1, #:upper16:.LC5
 468 0126 FFF7FEFF 		bl	_test_assert_sequence
 469 012a 0028     		cmp	r0, #0
 470 012c F3D1     		bne	.L11
 471              		.loc 1 180 0
 472 012e 40F20000 		movw	r0, #:lower16:.LANCHOR1
 473 0132 C0F20000 		movt	r0, #:upper16:.LANCHOR1
 474 0136 FFF7FEFF 		bl	chPoolAlloc
 475 013a 011C     		adds	r1, r0, #0
 476 013c 18BF     		it	ne
 477 013e 0121     		movne	r1, #1
 478 0140 0320     		movs	r0, #3
 479 0142 FFF7FEFF 		bl	_test_assert
 480 0146 0028     		cmp	r0, #0
 481 0148 E5D1     		bne	.L11
 482              	.LVL20:
 483 014a 40F20000 		movw	r0, #:lower16:.LANCHOR1
 484 014e C0F20000 		movt	r0, #:upper16:.LANCHOR1
 485 0152 FFF7FEFF 		bl	chPoolAlloc
 486 0156 011C     		adds	r1, r0, #0
 487 0158 18BF     		it	ne
 488 015a 0121     		movne	r1, #1
 489 015c 0320     		movs	r0, #3
 490 015e FFF7FEFF 		bl	_test_assert
 491 0162 0028     		cmp	r0, #0
 492 0164 D7D1     		bne	.L11
 493              	.LVL21:
 494 0166 40F20000 		movw	r0, #:lower16:.LANCHOR1
 495 016a C0F20000 		movt	r0, #:upper16:.LANCHOR1
 496 016e FFF7FEFF 		bl	chPoolAlloc
 497 0172 011C     		adds	r1, r0, #0
 498 0174 18BF     		it	ne
 499 0176 0121     		movne	r1, #1
 500 0178 0320     		movs	r0, #3
 501 017a FFF7FEFF 		bl	_test_assert
 502 017e 0028     		cmp	r0, #0
 503 0180 C9D1     		bne	.L11
 504              	.LVL22:
 505 0182 40F20000 		movw	r0, #:lower16:.LANCHOR1
 506 0186 C0F20000 		movt	r0, #:upper16:.LANCHOR1
 507 018a FFF7FEFF 		bl	chPoolAlloc
 508 018e 011C     		adds	r1, r0, #0
ARM GAS  /tmp/ccgL3Ogb.s 			page 10


 509 0190 18BF     		it	ne
 510 0192 0121     		movne	r1, #1
 511 0194 0320     		movs	r0, #3
 512 0196 FFF7FEFF 		bl	_test_assert
 513 019a 0028     		cmp	r0, #0
 514 019c BBD1     		bne	.L11
 515              	.LVL23:
 516              		.loc 1 181 0
 517 019e 40F20000 		movw	r0, #:lower16:.LANCHOR1
 518 01a2 C0F20000 		movt	r0, #:upper16:.LANCHOR1
 519 01a6 FFF7FEFF 		bl	chPoolAlloc
 520 01aa D0F10101 		rsbs	r1, r0, #1
 521 01ae 38BF     		it	cc
 522 01b0 0021     		movcc	r1, #0
 523 01b2 0420     		movs	r0, #4
 524              		.loc 1 182 0
 525 01b4 BDE83840 		pop	{r3, r4, r5, lr}
 526              		.loc 1 181 0
 527 01b8 FFF7FEBF 		b	_test_assert
 528              		.cfi_endproc
 529              	.LFE11:
 530              		.size	dyn2_execute, .-dyn2_execute
 531 01bc AFF30080 		.section	.text.dyn2_setup,"ax",%progbits
 532              		.align	2
 533              		.p2align 4,,15
 534              		.thumb
 535              		.thumb_func
 536              		.type	dyn2_setup, %function
 537              	dyn2_setup:
 538              	.LFB10:
 539              		.loc 1 147 0
 540              		.cfi_startproc
 541              		@ args = 0, pretend = 0, frame = 0
 542              		@ frame_needed = 0, uses_anonymous_args = 0
 543              		@ link register save eliminated.
 544              		.loc 1 149 0
 545 0000 40F20000 		movw	r0, #:lower16:.LANCHOR1
 546 0004 C0F20000 		movt	r0, #:upper16:.LANCHOR1
 547 0008 4FF49871 		mov	r1, #304
 548 000c 0022     		movs	r2, #0
 549              		.loc 1 150 0
 550              		.loc 1 149 0
 551 000e FFF7FEBF 		b	chPoolInit
 552              		.cfi_endproc
 553              	.LFE10:
 554              		.size	dyn2_setup, .-dyn2_setup
 555 0012 00BFAFF3 		.section	.text.dyn1_execute,"ax",%progbits
 555      0080AFF3 
 555      0080AFF3 
 555      0080
 556              		.align	2
 557              		.p2align 4,,15
 558              		.thumb
 559              		.thumb_func
 560              		.type	dyn1_execute, %function
 561              	dyn1_execute:
 562              	.LFB9:
ARM GAS  /tmp/ccgL3Ogb.s 			page 11


 563              		.loc 1 94 0
 564              		.cfi_startproc
 565              		@ args = 0, pretend = 0, frame = 8
 566              		@ frame_needed = 0, uses_anonymous_args = 0
 567 0000 F0B5     		push	{r4, r5, r6, r7, lr}
 568              	.LCFI5:
 569              		.cfi_def_cfa_offset 20
 570              		.cfi_offset 14, -4
 571              		.cfi_offset 7, -8
 572              		.cfi_offset 6, -12
 573              		.cfi_offset 5, -16
 574              		.cfi_offset 4, -20
 575              		.loc 1 97 0
 576 0002 40F20000 		movw	r0, #:lower16:rlist
 577 0006 C0F20000 		movt	r0, #:upper16:rlist
 578 000a C369     		ldr	r3, [r0, #28]
 579              		.loc 1 94 0
 580 000c 85B0     		sub	sp, sp, #20
 581              	.LCFI6:
 582              		.cfi_def_cfa_offset 40
 583              		.loc 1 99 0
 584 000e 40F20000 		movw	r0, #:lower16:.LANCHOR0
 585              		.loc 1 97 0
 586 0012 9D68     		ldr	r5, [r3, #8]
 587              	.LVL24:
 588              		.loc 1 99 0
 589 0014 03A9     		add	r1, sp, #12
 590 0016 C0F20000 		movt	r0, #:upper16:.LANCHOR0
 591 001a FFF7FEFF 		bl	chHeapStatus
 592              	.LVL25:
 593              		.loc 1 101 0
 594 001e 40F20004 		movw	r4, #:lower16:.LC0
 595 0022 40F20000 		movw	r0, #:lower16:.LANCHOR0
 596 0026 40F20003 		movw	r3, #:lower16:thread
 597 002a C0F20004 		movt	r4, #:upper16:.LC0
 598 002e 4FF49871 		mov	r1, #304
 599 0032 6A1E     		subs	r2, r5, #1
 600 0034 C0F20003 		movt	r3, #:upper16:thread
 601 0038 C0F20000 		movt	r0, #:upper16:.LANCHOR0
 602 003c 0094     		str	r4, [sp, #0]
 603 003e FFF7FEFF 		bl	chThdCreateFromHeap
 604 0042 40F20004 		movw	r4, #:lower16:threads
 605 0046 C0F20004 		movt	r4, #:upper16:threads
 606 004a 2060     		str	r0, [r4, #0]
 607              		.loc 1 103 0
 608 004c 40F20006 		movw	r6, #:lower16:.LC1
 609 0050 40F20000 		movw	r0, #:lower16:.LANCHOR0
 610 0054 40F20003 		movw	r3, #:lower16:thread
 611 0058 AA1E     		subs	r2, r5, #2
 612 005a C0F20003 		movt	r3, #:upper16:thread
 613 005e C0F20006 		movt	r6, #:upper16:.LC1
 614 0062 4FF49871 		mov	r1, #304
 615 0066 C0F20000 		movt	r0, #:upper16:.LANCHOR0
 616 006a 0096     		str	r6, [sp, #0]
 617 006c FFF7FEFF 		bl	chThdCreateFromHeap
 618 0070 6060     		str	r0, [r4, #4]
 619              		.loc 1 106 0
ARM GAS  /tmp/ccgL3Ogb.s 			page 12


 620 0072 40F20000 		movw	r0, #:lower16:.LANCHOR0
 621 0076 02A9     		add	r1, sp, #8
 622 0078 C0F20000 		movt	r0, #:upper16:.LANCHOR0
 623 007c FFF7FEFF 		bl	chHeapStatus
 624              		.loc 1 107 0
 625 0080 40F20000 		movw	r0, #:lower16:.LANCHOR0
 626              	.LVL26:
 627 0084 0299     		ldr	r1, [sp, #8]
 628 0086 C0F20000 		movt	r0, #:upper16:.LANCHOR0
 629 008a FFF7FEFF 		bl	chHeapAlloc
 630              		.loc 1 108 0
 631 008e 40F20007 		movw	r7, #:lower16:.LC2
 632              		.loc 1 107 0
 633 0092 0646     		mov	r6, r0
 634              	.LVL27:
 635              		.loc 1 108 0
 636 0094 40F20003 		movw	r3, #:lower16:thread
 637 0098 40F20000 		movw	r0, #:lower16:.LANCHOR0
 638              	.LVL28:
 639 009c 4FF49871 		mov	r1, #304
 640 00a0 EA1E     		subs	r2, r5, #3
 641 00a2 C0F20003 		movt	r3, #:upper16:thread
 642 00a6 C0F20007 		movt	r7, #:upper16:.LC2
 643 00aa C0F20000 		movt	r0, #:upper16:.LANCHOR0
 644 00ae 0097     		str	r7, [sp, #0]
 645 00b0 FFF7FEFF 		bl	chThdCreateFromHeap
 646 00b4 A060     		str	r0, [r4, #8]
 647              		.loc 1 110 0
 648 00b6 3046     		mov	r0, r6
 649 00b8 FFF7FEFF 		bl	chHeapFree
 650              		.loc 1 112 0
 651 00bc 2168     		ldr	r1, [r4, #0]
 652 00be 29B1     		cbz	r1, .L21
 653              		.loc 1 112 0 is_stmt 0 discriminator 1
 654 00c0 6168     		ldr	r1, [r4, #4]
 655 00c2 19B1     		cbz	r1, .L21
 656              		.loc 1 112 0 discriminator 3
 657 00c4 A168     		ldr	r1, [r4, #8]
 658 00c6 0029     		cmp	r1, #0
 659 00c8 2CD0     		beq	.L27
 660              		.loc 1 112 0
 661 00ca 0021     		movs	r1, #0
 662              	.L21:
 663              		.loc 1 112 0 discriminator 7
 664 00cc 0120     		movs	r0, #1
 665 00ce FFF7FEFF 		bl	_test_assert
 666 00d2 08B1     		cbz	r0, .L28
 667              	.LVL29:
 668              	.L20:
 669              		.loc 1 126 0 is_stmt 1
 670 00d4 05B0     		add	sp, sp, #20
 671 00d6 F0BD     		pop	{r4, r5, r6, r7, pc}
 672              	.LVL30:
 673              	.L28:
 674              		.loc 1 120 0
 675 00d8 FFF7FEFF 		bl	test_wait_threads
 676              		.loc 1 121 0
ARM GAS  /tmp/ccgL3Ogb.s 			page 13


 677 00dc 40F20001 		movw	r1, #:lower16:.LC6
 678 00e0 0220     		movs	r0, #2
 679 00e2 C0F20001 		movt	r1, #:upper16:.LC6
 680 00e6 FFF7FEFF 		bl	_test_assert_sequence
 681 00ea 0028     		cmp	r0, #0
 682 00ec F2D1     		bne	.L20
 683              		.loc 1 124 0
 684 00ee 40F20000 		movw	r0, #:lower16:.LANCHOR0
 685 00f2 02A9     		add	r1, sp, #8
 686 00f4 C0F20000 		movt	r0, #:upper16:.LANCHOR0
 687 00f8 FFF7FEFF 		bl	chHeapStatus
 688 00fc A0F10100 		sub	r0, r0, #1
 689 0100 4342     		rsbs	r3, r0, #0
 690 0102 43EB0001 		adc	r1, r3, r0
 691 0106 0320     		movs	r0, #3
 692 0108 FFF7FEFF 		bl	_test_assert
 693 010c 0028     		cmp	r0, #0
 694 010e E1D1     		bne	.L20
 695              		.loc 1 125 0
 696 0110 029A     		ldr	r2, [sp, #8]
 697              	.LVL31:
 698 0112 039B     		ldr	r3, [sp, #12]
 699 0114 0420     		movs	r0, #4
 700 0116 D11A     		subs	r1, r2, r3
 701 0118 4A42     		rsbs	r2, r1, #0
 702 011a 42EB0101 		adc	r1, r2, r1
 703 011e FFF7FEFF 		bl	_test_assert
 704 0122 D7E7     		b	.L20
 705              	.LVL32:
 706              	.L27:
 707              		.loc 1 112 0 discriminator 4
 708 0124 E268     		ldr	r2, [r4, #12]
 709 0126 002A     		cmp	r2, #0
 710 0128 D0D1     		bne	.L21
 711              		.loc 1 94 0 discriminator 5
 712 012a 2169     		ldr	r1, [r4, #16]
 713 012c D1F10101 		rsbs	r1, r1, #1
 714 0130 38BF     		it	cc
 715 0132 0021     		movcc	r1, #0
 716 0134 CAE7     		b	.L21
 717              		.cfi_endproc
 718              	.LFE9:
 719              		.size	dyn1_execute, .-dyn1_execute
 720              		.global	patterndyn
 721              		.global	testdyn3
 722              		.global	testdyn2
 723              		.global	testdyn1
 724 0136 00BFAFF3 		.section	.rodata.testdyn1,"a",%progbits
 724      0080AFF3 
 724      0080
 725              		.align	2
 726              		.type	testdyn1, %object
 727              		.size	testdyn1, 16
 728              	testdyn1:
 729 0000 78000000 		.word	.LC9
 730 0004 00000000 		.word	dyn1_setup
 731 0008 00000000 		.word	0
ARM GAS  /tmp/ccgL3Ogb.s 			page 14


 732 000c 00000000 		.word	dyn1_execute
 733              		.section	.rodata.testdyn2,"a",%progbits
 734              		.align	2
 735              		.type	testdyn2, %object
 736              		.size	testdyn2, 16
 737              	testdyn2:
 738 0000 48000000 		.word	.LC8
 739 0004 00000000 		.word	dyn2_setup
 740 0008 00000000 		.word	0
 741 000c 00000000 		.word	dyn2_execute
 742              		.section	.rodata.testdyn3,"a",%progbits
 743              		.align	2
 744              		.type	testdyn3, %object
 745              		.size	testdyn3, 16
 746              	testdyn3:
 747 0000 20000000 		.word	.LC7
 748 0004 00000000 		.word	dyn3_setup
 749 0008 00000000 		.word	0
 750 000c 00000000 		.word	dyn3_execute
 751              		.section	.bss.mp1,"aw",%nobits
 752              		.align	2
 753              		.set	.LANCHOR1,. + 0
 754              		.type	mp1, %object
 755              		.size	mp1, 12
 756              	mp1:
 757 0000 00000000 		.space	12
 757      00000000 
 757      00000000 
 758              		.section	.rodata.str1.4,"aMS",%progbits,1
 759              		.align	2
 760              	.LC0:
 761 0000 4100     		.ascii	"A\000"
 762 0002 0000     		.space	2
 763              	.LC1:
 764 0004 4200     		.ascii	"B\000"
 765 0006 0000     		.space	2
 766              	.LC2:
 767 0008 4300     		.ascii	"C\000"
 768 000a 0000     		.space	2
 769              	.LC3:
 770 000c 4400     		.ascii	"D\000"
 771 000e 0000     		.space	2
 772              	.LC4:
 773 0010 4500     		.ascii	"E\000"
 774 0012 0000     		.space	2
 775              	.LC5:
 776 0014 41424344 		.ascii	"ABCD\000"
 776      00
 777 0019 000000   		.space	3
 778              	.LC6:
 779 001c 414200   		.ascii	"AB\000"
 780 001f 00       		.space	1
 781              	.LC7:
 782 0020 44796E61 		.ascii	"Dynamic APIs, registry and references\000"
 782      6D696320 
 782      41504973 
 782      2C207265 
ARM GAS  /tmp/ccgL3Ogb.s 			page 15


 782      67697374 
 783 0046 0000     		.space	2
 784              	.LC8:
 785 0048 44796E61 		.ascii	"Dynamic APIs, threads creation from memory pool\000"
 785      6D696320 
 785      41504973 
 785      2C207468 
 785      72656164 
 786              	.LC9:
 787 0078 44796E61 		.ascii	"Dynamic APIs, threads creation from heap\000"
 787      6D696320 
 787      41504973 
 787      2C207468 
 787      72656164 
 788 00a1 000000   		.section	.rodata.patterndyn,"a",%progbits
 789              		.align	2
 790              		.type	patterndyn, %object
 791              		.size	patterndyn, 16
 792              	patterndyn:
 793 0000 00000000 		.word	testdyn1
 794 0004 00000000 		.word	testdyn2
 795 0008 00000000 		.word	testdyn3
 796 000c 00000000 		.word	0
 797              		.section	.bss.heap1,"aw",%nobits
 798              		.align	3
 799              		.set	.LANCHOR0,. + 0
 800              		.type	heap1, %object
 801              		.size	heap1, 32
 802              	heap1:
 803 0000 00000000 		.space	32
 803      00000000 
 803      00000000 
 803      00000000 
 803      00000000 
 804              		.text
 805              	.Letext0:
 806              		.file 2 "/home/laura/Documentos/Embebidos/arm-2011q3/bin/../lib/gcc/arm-none-eabi/4.6.1/include/st
 807              		.file 3 "/home/laura/Documentos/Embebidos/arm-2011q3/bin/../lib/gcc/arm-none-eabi/4.6.1/../../../.
 808              		.file 4 "../../os/ports/GCC/ARMCMx/chtypes.h"
 809              		.file 5 "../../os/kernel/include/chlists.h"
 810              		.file 6 "../../os/kernel/include/chthreads.h"
 811              		.file 7 "../../os/ports/GCC/ARMCMx/chcore_v7m.h"
 812              		.file 8 "../../os/kernel/include/chschd.h"
 813              		.file 9 "../../os/kernel/include/chmtx.h"
 814              		.file 10 "../../os/kernel/include/chmemcore.h"
 815              		.file 11 "../../os/kernel/include/chheap.h"
 816              		.file 12 "../../os/kernel/include/chmempools.h"
 817              		.file 13 "../../test/test.h"
