ARM GAS  /tmp/ccnXe5XY.s 			page 1


   1              		.syntax unified
   2              		.cpu cortex-m3
   3              		.fpu softvfp
   4              		.eabi_attribute 20, 1
   5              		.eabi_attribute 21, 1
   6              		.eabi_attribute 23, 3
   7              		.eabi_attribute 24, 1
   8              		.eabi_attribute 25, 1
   9              		.eabi_attribute 26, 1
  10              		.eabi_attribute 30, 2
  11              		.eabi_attribute 34, 1
  12              		.eabi_attribute 18, 4
  13              		.thumb
  14              		.file	"testmtx.c"
  15              		.text
  16              	.Ltext0:
  17              		.cfi_sections	.debug_frame
  18              		.section	.text.mtx8_execute,"ax",%progbits
  19              		.align	2
  20              		.p2align 4,,15
  21              		.thumb
  22              		.thumb_func
  23              		.type	mtx8_execute, %function
  24              	mtx8_execute:
  25              	.LFB36:
  26              		.file 1 "../../test/testmtx.c"
  27              		.loc 1 606 0
  28              		.cfi_startproc
  29              		@ args = 0, pretend = 0, frame = 0
  30              		@ frame_needed = 0, uses_anonymous_args = 0
  31              		.loc 1 608 0
  32 0000 40F20000 		movw	r0, #:lower16:rlist
  33              		.loc 1 606 0
  34 0004 F0B5     		push	{r4, r5, r6, r7, lr}
  35              	.LCFI0:
  36              		.cfi_def_cfa_offset 20
  37              		.cfi_offset 14, -4
  38              		.cfi_offset 7, -8
  39              		.cfi_offset 6, -12
  40              		.cfi_offset 5, -16
  41              		.cfi_offset 4, -20
  42              		.loc 1 608 0
  43 0006 C0F20000 		movt	r0, #:upper16:rlist
  44 000a C369     		ldr	r3, [r0, #28]
  45              		.loc 1 609 0
  46 000c 40F20005 		movw	r5, #:lower16:wa
  47              		.loc 1 608 0
  48 0010 9E68     		ldr	r6, [r3, #8]
  49              	.LVL0:
  50              		.loc 1 609 0
  51 0012 C0F20005 		movt	r5, #:upper16:wa
  52 0016 40F20004 		movw	r4, #:lower16:.LC0
  53 001a 40F20003 		movw	r3, #:lower16:thread11
  54              		.loc 1 606 0
  55 001e 83B0     		sub	sp, sp, #12
  56              	.LCFI1:
  57              		.cfi_def_cfa_offset 32
ARM GAS  /tmp/ccnXe5XY.s 			page 2


  58              		.loc 1 609 0
  59 0020 721C     		adds	r2, r6, #1
  60 0022 2868     		ldr	r0, [r5, #0]
  61              	.LVL1:
  62 0024 C0F20004 		movt	r4, #:upper16:.LC0
  63 0028 4FF49871 		mov	r1, #304
  64 002c C0F20003 		movt	r3, #:upper16:thread11
  65 0030 0094     		str	r4, [sp, #0]
  66 0032 FFF7FEFF 		bl	chThdCreateStatic
  67              	.LVL2:
  68 0036 40F20004 		movw	r4, #:lower16:threads
  69              		.loc 1 610 0
  70 003a D5F804E0 		ldr	lr, [r5, #4]
  71              		.loc 1 609 0
  72 003e C0F20004 		movt	r4, #:upper16:threads
  73              		.loc 1 610 0
  74 0042 40F20007 		movw	r7, #:lower16:.LC1
  75 0046 40F20003 		movw	r3, #:lower16:thread10
  76              		.loc 1 609 0
  77 004a 2060     		str	r0, [r4, #0]
  78              		.loc 1 610 0
  79 004c B21C     		adds	r2, r6, #2
  80 004e 7046     		mov	r0, lr
  81 0050 C0F20007 		movt	r7, #:upper16:.LC1
  82 0054 4FF49871 		mov	r1, #304
  83 0058 C0F20003 		movt	r3, #:upper16:thread10
  84 005c 0097     		str	r7, [sp, #0]
  85 005e FFF7FEFF 		bl	chThdCreateStatic
  86              		.loc 1 611 0
  87 0062 AF68     		ldr	r7, [r5, #8]
  88 0064 40F20003 		movw	r3, #:lower16:thread12
  89 0068 40F20005 		movw	r5, #:lower16:.LC2
  90 006c 4FF49871 		mov	r1, #304
  91 0070 F21C     		adds	r2, r6, #3
  92 0072 C0F20003 		movt	r3, #:upper16:thread12
  93              		.loc 1 610 0
  94 0076 6060     		str	r0, [r4, #4]
  95              		.loc 1 611 0
  96 0078 C0F20005 		movt	r5, #:upper16:.LC2
  97 007c 3846     		mov	r0, r7
  98 007e 0095     		str	r5, [sp, #0]
  99 0080 FFF7FEFF 		bl	chThdCreateStatic
 100              		.loc 1 612 0
 101 0084 40F20005 		movw	r5, #:lower16:.LANCHOR0
 102 0088 C0F20005 		movt	r5, #:upper16:.LANCHOR0
 103              		.loc 1 611 0
 104 008c A060     		str	r0, [r4, #8]
 105              		.loc 1 612 0
 106 008e 2846     		mov	r0, r5
 107 0090 FFF7FEFF 		bl	chCondSignal
 108              		.loc 1 613 0
 109 0094 2846     		mov	r0, r5
 110 0096 FFF7FEFF 		bl	chCondSignal
 111              		.loc 1 614 0
 112 009a FFF7FEFF 		bl	test_wait_threads
 113              		.loc 1 615 0
 114 009e 40F20001 		movw	r1, #:lower16:.LC3
ARM GAS  /tmp/ccnXe5XY.s 			page 3


 115 00a2 0120     		movs	r0, #1
 116 00a4 C0F20001 		movt	r1, #:upper16:.LC3
 117              		.loc 1 616 0
 118 00a8 03B0     		add	sp, sp, #12
 119 00aa BDE8F040 		pop	{r4, r5, r6, r7, lr}
 120              		.loc 1 615 0
 121 00ae FFF7FEBF 		b	_test_assert_sequence
 122              		.cfi_endproc
 123              	.LFE36:
 124              		.size	mtx8_execute, .-mtx8_execute
 125 00b2 00BFAFF3 		.section	.text.thread12,"ax",%progbits
 125      0080AFF3 
 125      0080AFF3 
 125      0080
 126              		.align	2
 127              		.p2align 4,,15
 128              		.thumb
 129              		.thumb_func
 130              		.type	thread12, %function
 131              	thread12:
 132              	.LFB35:
 133              		.loc 1 598 0
 134              		.cfi_startproc
 135              		@ args = 0, pretend = 0, frame = 0
 136              		@ frame_needed = 0, uses_anonymous_args = 0
 137              	.LVL3:
 138 0000 10B5     		push	{r4, lr}
 139              	.LCFI2:
 140              		.cfi_def_cfa_offset 8
 141              		.cfi_offset 14, -4
 142              		.cfi_offset 4, -8
 143              		.loc 1 598 0
 144 0002 0446     		mov	r4, r0
 145              		.loc 1 600 0
 146 0004 40F20000 		movw	r0, #:lower16:.LANCHOR1
 147              	.LVL4:
 148 0008 C0F20000 		movt	r0, #:upper16:.LANCHOR1
 149 000c FFF7FEFF 		bl	chMtxLock
 150              		.loc 1 601 0
 151 0010 2078     		ldrb	r0, [r4, #0]	@ zero_extendqisi2
 152 0012 FFF7FEFF 		bl	test_emit_token
 153              		.loc 1 602 0
 154 0016 FFF7FEFF 		bl	chMtxUnlock
 155              		.loc 1 604 0
 156 001a 0020     		movs	r0, #0
 157 001c 10BD     		pop	{r4, pc}
 158              		.cfi_endproc
 159              	.LFE35:
 160              		.size	thread12, .-thread12
 161 001e 00BF     		.section	.text.thread1,"ax",%progbits
 162              		.align	2
 163              		.p2align 4,,15
 164              		.thumb
 165              		.thumb_func
 166              		.type	thread1, %function
 167              	thread1:
 168              	.LFB8:
ARM GAS  /tmp/ccnXe5XY.s 			page 4


 169              		.loc 1 100 0
 170              		.cfi_startproc
 171              		@ args = 0, pretend = 0, frame = 0
 172              		@ frame_needed = 0, uses_anonymous_args = 0
 173              	.LVL5:
 174 0000 10B5     		push	{r4, lr}
 175              	.LCFI3:
 176              		.cfi_def_cfa_offset 8
 177              		.cfi_offset 14, -4
 178              		.cfi_offset 4, -8
 179              		.loc 1 100 0
 180 0002 0446     		mov	r4, r0
 181              		.loc 1 102 0
 182 0004 40F20000 		movw	r0, #:lower16:.LANCHOR2
 183              	.LVL6:
 184 0008 C0F20000 		movt	r0, #:upper16:.LANCHOR2
 185 000c FFF7FEFF 		bl	chMtxLock
 186              		.loc 1 103 0
 187 0010 2078     		ldrb	r0, [r4, #0]	@ zero_extendqisi2
 188 0012 FFF7FEFF 		bl	test_emit_token
 189              		.loc 1 104 0
 190 0016 FFF7FEFF 		bl	chMtxUnlock
 191              		.loc 1 106 0
 192 001a 0020     		movs	r0, #0
 193 001c 10BD     		pop	{r4, pc}
 194              		.cfi_endproc
 195              	.LFE8:
 196              		.size	thread1, .-thread1
 197 001e 00BF     		.section	.text.thread10,"ax",%progbits
 198              		.align	2
 199              		.p2align 4,,15
 200              		.thumb
 201              		.thumb_func
 202              		.type	thread10, %function
 203              	thread10:
 204              	.LFB29:
 205              		.loc 1 495 0
 206              		.cfi_startproc
 207              		@ args = 0, pretend = 0, frame = 0
 208              		@ frame_needed = 0, uses_anonymous_args = 0
 209              	.LVL7:
 210 0000 10B5     		push	{r4, lr}
 211              	.LCFI4:
 212              		.cfi_def_cfa_offset 8
 213              		.cfi_offset 14, -4
 214              		.cfi_offset 4, -8
 215              		.loc 1 495 0
 216 0002 0446     		mov	r4, r0
 217              		.loc 1 497 0
 218 0004 40F20000 		movw	r0, #:lower16:.LANCHOR2
 219              	.LVL8:
 220 0008 C0F20000 		movt	r0, #:upper16:.LANCHOR2
 221 000c FFF7FEFF 		bl	chMtxLock
 222              		.loc 1 498 0
 223 0010 40F20000 		movw	r0, #:lower16:.LANCHOR0
 224 0014 C0F20000 		movt	r0, #:upper16:.LANCHOR0
 225 0018 FFF7FEFF 		bl	chCondWait
ARM GAS  /tmp/ccnXe5XY.s 			page 5


 226              		.loc 1 499 0
 227 001c 2078     		ldrb	r0, [r4, #0]	@ zero_extendqisi2
 228 001e FFF7FEFF 		bl	test_emit_token
 229              		.loc 1 500 0
 230 0022 FFF7FEFF 		bl	chMtxUnlock
 231              		.loc 1 502 0
 232 0026 0020     		movs	r0, #0
 233 0028 10BD     		pop	{r4, pc}
 234              		.cfi_endproc
 235              	.LFE29:
 236              		.size	thread10, .-thread10
 237 002a 00BFAFF3 		.section	.text.thread11,"ax",%progbits
 237      0080
 238              		.align	2
 239              		.p2align 4,,15
 240              		.thumb
 241              		.thumb_func
 242              		.type	thread11, %function
 243              	thread11:
 244              	.LFB34:
 245              		.loc 1 583 0
 246              		.cfi_startproc
 247              		@ args = 0, pretend = 0, frame = 0
 248              		@ frame_needed = 0, uses_anonymous_args = 0
 249              	.LVL9:
 250 0000 10B5     		push	{r4, lr}
 251              	.LCFI5:
 252              		.cfi_def_cfa_offset 8
 253              		.cfi_offset 14, -4
 254              		.cfi_offset 4, -8
 255              		.loc 1 583 0
 256 0002 0446     		mov	r4, r0
 257              		.loc 1 585 0
 258 0004 40F20000 		movw	r0, #:lower16:.LANCHOR1
 259              	.LVL10:
 260 0008 C0F20000 		movt	r0, #:upper16:.LANCHOR1
 261 000c FFF7FEFF 		bl	chMtxLock
 262              		.loc 1 586 0
 263 0010 40F20000 		movw	r0, #:lower16:.LANCHOR2
 264 0014 C0F20000 		movt	r0, #:upper16:.LANCHOR2
 265 0018 FFF7FEFF 		bl	chMtxLock
 266              		.loc 1 588 0
 267 001c 40F20000 		movw	r0, #:lower16:.LANCHOR0
 268 0020 4FF0FF31 		mov	r1, #-1
 269 0024 C0F20000 		movt	r0, #:upper16:.LANCHOR0
 270 0028 FFF7FEFF 		bl	chCondWaitTimeout
 271              		.loc 1 592 0
 272 002c 2078     		ldrb	r0, [r4, #0]	@ zero_extendqisi2
 273 002e FFF7FEFF 		bl	test_emit_token
 274              		.loc 1 593 0
 275 0032 FFF7FEFF 		bl	chMtxUnlock
 276              		.loc 1 594 0
 277 0036 FFF7FEFF 		bl	chMtxUnlock
 278              		.loc 1 596 0
 279 003a 0020     		movs	r0, #0
 280 003c 10BD     		pop	{r4, pc}
 281              		.cfi_endproc
ARM GAS  /tmp/ccnXe5XY.s 			page 6


 282              	.LFE34:
 283              		.size	thread11, .-thread11
 284 003e 00BF     		.section	.text.mtx8_setup,"ax",%progbits
 285              		.align	2
 286              		.p2align 4,,15
 287              		.thumb
 288              		.thumb_func
 289              		.type	mtx8_setup, %function
 290              	mtx8_setup:
 291              	.LFB33:
 292              		.loc 1 576 0
 293              		.cfi_startproc
 294              		@ args = 0, pretend = 0, frame = 0
 295              		@ frame_needed = 0, uses_anonymous_args = 0
 296              		.loc 1 578 0
 297 0000 40F20000 		movw	r0, #:lower16:.LANCHOR0
 298              		.loc 1 576 0
 299 0004 08B5     		push	{r3, lr}
 300              	.LCFI6:
 301              		.cfi_def_cfa_offset 8
 302              		.cfi_offset 14, -4
 303              		.cfi_offset 3, -8
 304              		.loc 1 578 0
 305 0006 C0F20000 		movt	r0, #:upper16:.LANCHOR0
 306 000a FFF7FEFF 		bl	chCondInit
 307              		.loc 1 579 0
 308 000e 40F20000 		movw	r0, #:lower16:.LANCHOR2
 309 0012 C0F20000 		movt	r0, #:upper16:.LANCHOR2
 310 0016 FFF7FEFF 		bl	chMtxInit
 311              		.loc 1 580 0
 312 001a 40F20000 		movw	r0, #:lower16:.LANCHOR1
 313 001e C0F20000 		movt	r0, #:upper16:.LANCHOR1
 314              		.loc 1 581 0
 315 0022 BDE80840 		pop	{r3, lr}
 316              		.loc 1 580 0
 317 0026 FFF7FEBF 		b	chMtxInit
 318              		.cfi_endproc
 319              	.LFE33:
 320              		.size	mtx8_setup, .-mtx8_setup
 321 002a 00BFAFF3 		.section	.text.mtx7_setup,"ax",%progbits
 321      0080
 322              		.align	2
 323              		.p2align 4,,15
 324              		.thumb
 325              		.thumb_func
 326              		.type	mtx7_setup, %function
 327              	mtx7_setup:
 328              	.LFB31:
 329              		.loc 1 541 0
 330              		.cfi_startproc
 331              		@ args = 0, pretend = 0, frame = 0
 332              		@ frame_needed = 0, uses_anonymous_args = 0
 333              		.loc 1 543 0
 334 0000 40F20000 		movw	r0, #:lower16:.LANCHOR0
 335              		.loc 1 541 0
 336 0004 08B5     		push	{r3, lr}
 337              	.LCFI7:
ARM GAS  /tmp/ccnXe5XY.s 			page 7


 338              		.cfi_def_cfa_offset 8
 339              		.cfi_offset 14, -4
 340              		.cfi_offset 3, -8
 341              		.loc 1 543 0
 342 0006 C0F20000 		movt	r0, #:upper16:.LANCHOR0
 343 000a FFF7FEFF 		bl	chCondInit
 344              		.loc 1 544 0
 345 000e 40F20000 		movw	r0, #:lower16:.LANCHOR2
 346 0012 C0F20000 		movt	r0, #:upper16:.LANCHOR2
 347              		.loc 1 545 0
 348 0016 BDE80840 		pop	{r3, lr}
 349              		.loc 1 544 0
 350 001a FFF7FEBF 		b	chMtxInit
 351              		.cfi_endproc
 352              	.LFE31:
 353              		.size	mtx7_setup, .-mtx7_setup
 354 001e 00BF     		.section	.text.mtx6_setup,"ax",%progbits
 355              		.align	2
 356              		.p2align 4,,15
 357              		.thumb
 358              		.thumb_func
 359              		.type	mtx6_setup, %function
 360              	mtx6_setup:
 361              	.LFB28:
 362              		.loc 1 489 0
 363              		.cfi_startproc
 364              		@ args = 0, pretend = 0, frame = 0
 365              		@ frame_needed = 0, uses_anonymous_args = 0
 366              		.loc 1 491 0
 367 0000 40F20000 		movw	r0, #:lower16:.LANCHOR0
 368              		.loc 1 489 0
 369 0004 08B5     		push	{r3, lr}
 370              	.LCFI8:
 371              		.cfi_def_cfa_offset 8
 372              		.cfi_offset 14, -4
 373              		.cfi_offset 3, -8
 374              		.loc 1 491 0
 375 0006 C0F20000 		movt	r0, #:upper16:.LANCHOR0
 376 000a FFF7FEFF 		bl	chCondInit
 377              		.loc 1 492 0
 378 000e 40F20000 		movw	r0, #:lower16:.LANCHOR2
 379 0012 C0F20000 		movt	r0, #:upper16:.LANCHOR2
 380              		.loc 1 493 0
 381 0016 BDE80840 		pop	{r3, lr}
 382              		.loc 1 492 0
 383 001a FFF7FEBF 		b	chMtxInit
 384              		.cfi_endproc
 385              	.LFE28:
 386              		.size	mtx6_setup, .-mtx6_setup
 387 001e 00BF     		.section	.text.mtx5_setup,"ax",%progbits
 388              		.align	2
 389              		.p2align 4,,15
 390              		.thumb
 391              		.thumb_func
 392              		.type	mtx5_setup, %function
 393              	mtx5_setup:
 394              	.LFB26:
ARM GAS  /tmp/ccnXe5XY.s 			page 8


 395              		.loc 1 439 0
 396              		.cfi_startproc
 397              		@ args = 0, pretend = 0, frame = 0
 398              		@ frame_needed = 0, uses_anonymous_args = 0
 399              		@ link register save eliminated.
 400              		.loc 1 441 0
 401 0000 40F20000 		movw	r0, #:lower16:.LANCHOR2
 402 0004 C0F20000 		movt	r0, #:upper16:.LANCHOR2
 403              		.loc 1 442 0
 404              		.loc 1 441 0
 405 0008 FFF7FEBF 		b	chMtxInit
 406              		.cfi_endproc
 407              	.LFE26:
 408              		.size	mtx5_setup, .-mtx5_setup
 409 000c AFF30080 		.section	.text.mtx4_setup,"ax",%progbits
 410              		.align	2
 411              		.p2align 4,,15
 412              		.thumb
 413              		.thumb_func
 414              		.type	mtx4_setup, %function
 415              	mtx4_setup:
 416              	.LFB22:
 417              		.loc 1 352 0
 418              		.cfi_startproc
 419              		@ args = 0, pretend = 0, frame = 0
 420              		@ frame_needed = 0, uses_anonymous_args = 0
 421              		.loc 1 354 0
 422 0000 40F20000 		movw	r0, #:lower16:.LANCHOR2
 423              		.loc 1 352 0
 424 0004 08B5     		push	{r3, lr}
 425              	.LCFI9:
 426              		.cfi_def_cfa_offset 8
 427              		.cfi_offset 14, -4
 428              		.cfi_offset 3, -8
 429              		.loc 1 354 0
 430 0006 C0F20000 		movt	r0, #:upper16:.LANCHOR2
 431 000a FFF7FEFF 		bl	chMtxInit
 432              		.loc 1 355 0
 433 000e 40F20000 		movw	r0, #:lower16:.LANCHOR1
 434 0012 C0F20000 		movt	r0, #:upper16:.LANCHOR1
 435              		.loc 1 356 0
 436 0016 BDE80840 		pop	{r3, lr}
 437              		.loc 1 355 0
 438 001a FFF7FEBF 		b	chMtxInit
 439              		.cfi_endproc
 440              	.LFE22:
 441              		.size	mtx4_setup, .-mtx4_setup
 442 001e 00BF     		.section	.text.mtx3_setup,"ax",%progbits
 443              		.align	2
 444              		.p2align 4,,15
 445              		.thumb
 446              		.thumb_func
 447              		.type	mtx3_setup, %function
 448              	mtx3_setup:
 449              	.LFB15:
 450              		.loc 1 252 0
 451              		.cfi_startproc
ARM GAS  /tmp/ccnXe5XY.s 			page 9


 452              		@ args = 0, pretend = 0, frame = 0
 453              		@ frame_needed = 0, uses_anonymous_args = 0
 454              		.loc 1 254 0
 455 0000 40F20000 		movw	r0, #:lower16:.LANCHOR2
 456              		.loc 1 252 0
 457 0004 08B5     		push	{r3, lr}
 458              	.LCFI10:
 459              		.cfi_def_cfa_offset 8
 460              		.cfi_offset 14, -4
 461              		.cfi_offset 3, -8
 462              		.loc 1 254 0
 463 0006 C0F20000 		movt	r0, #:upper16:.LANCHOR2
 464 000a FFF7FEFF 		bl	chMtxInit
 465              		.loc 1 255 0
 466 000e 40F20000 		movw	r0, #:lower16:.LANCHOR1
 467 0012 C0F20000 		movt	r0, #:upper16:.LANCHOR1
 468              		.loc 1 256 0
 469 0016 BDE80840 		pop	{r3, lr}
 470              		.loc 1 255 0
 471 001a FFF7FEBF 		b	chMtxInit
 472              		.cfi_endproc
 473              	.LFE15:
 474              		.size	mtx3_setup, .-mtx3_setup
 475 001e 00BF     		.section	.text.mtx2_setup,"ax",%progbits
 476              		.align	2
 477              		.p2align 4,,15
 478              		.thumb
 479              		.thumb_func
 480              		.type	mtx2_setup, %function
 481              	mtx2_setup:
 482              	.LFB10:
 483              		.loc 1 162 0
 484              		.cfi_startproc
 485              		@ args = 0, pretend = 0, frame = 0
 486              		@ frame_needed = 0, uses_anonymous_args = 0
 487              		@ link register save eliminated.
 488              		.loc 1 164 0
 489 0000 40F20000 		movw	r0, #:lower16:.LANCHOR2
 490 0004 C0F20000 		movt	r0, #:upper16:.LANCHOR2
 491              		.loc 1 165 0
 492              		.loc 1 164 0
 493 0008 FFF7FEBF 		b	chMtxInit
 494              		.cfi_endproc
 495              	.LFE10:
 496              		.size	mtx2_setup, .-mtx2_setup
 497 000c AFF30080 		.section	.text.mtx1_setup,"ax",%progbits
 498              		.align	2
 499              		.p2align 4,,15
 500              		.thumb
 501              		.thumb_func
 502              		.type	mtx1_setup, %function
 503              	mtx1_setup:
 504              	.LFB7:
 505              		.loc 1 95 0
 506              		.cfi_startproc
 507              		@ args = 0, pretend = 0, frame = 0
 508              		@ frame_needed = 0, uses_anonymous_args = 0
ARM GAS  /tmp/ccnXe5XY.s 			page 10


 509              		@ link register save eliminated.
 510              		.loc 1 97 0
 511 0000 40F20000 		movw	r0, #:lower16:.LANCHOR2
 512 0004 C0F20000 		movt	r0, #:upper16:.LANCHOR2
 513              		.loc 1 98 0
 514              		.loc 1 97 0
 515 0008 FFF7FEBF 		b	chMtxInit
 516              		.cfi_endproc
 517              	.LFE7:
 518              		.size	mtx1_setup, .-mtx1_setup
 519 000c AFF30080 		.section	.text.mtx7_execute,"ax",%progbits
 520              		.align	2
 521              		.p2align 4,,15
 522              		.thumb
 523              		.thumb_func
 524              		.type	mtx7_execute, %function
 525              	mtx7_execute:
 526              	.LFB32:
 527              		.loc 1 547 0
 528              		.cfi_startproc
 529              		@ args = 0, pretend = 0, frame = 0
 530              		@ frame_needed = 0, uses_anonymous_args = 0
 531              		.loc 1 549 0
 532 0000 40F20000 		movw	r0, #:lower16:rlist
 533              		.loc 1 547 0
 534 0004 F0B5     		push	{r4, r5, r6, r7, lr}
 535              	.LCFI11:
 536              		.cfi_def_cfa_offset 20
 537              		.cfi_offset 14, -4
 538              		.cfi_offset 7, -8
 539              		.cfi_offset 6, -12
 540              		.cfi_offset 5, -16
 541              		.cfi_offset 4, -20
 542              		.loc 1 549 0
 543 0006 C0F20000 		movt	r0, #:upper16:rlist
 544 000a C369     		ldr	r3, [r0, #28]
 545              		.loc 1 550 0
 546 000c 40F20006 		movw	r6, #:lower16:wa
 547              		.loc 1 549 0
 548 0010 9F68     		ldr	r7, [r3, #8]
 549              	.LVL11:
 550              		.loc 1 550 0
 551 0012 40F20005 		movw	r5, #:lower16:thread10
 552 0016 C0F20006 		movt	r6, #:upper16:wa
 553 001a C0F20005 		movt	r5, #:upper16:thread10
 554 001e 40F20004 		movw	r4, #:lower16:.LC4
 555              		.loc 1 547 0
 556 0022 83B0     		sub	sp, sp, #12
 557              	.LCFI12:
 558              		.cfi_def_cfa_offset 32
 559              		.loc 1 550 0
 560 0024 7A1C     		adds	r2, r7, #1
 561 0026 2B46     		mov	r3, r5
 562 0028 3068     		ldr	r0, [r6, #0]
 563              	.LVL12:
 564 002a C0F20004 		movt	r4, #:upper16:.LC4
 565 002e 4FF49871 		mov	r1, #304
ARM GAS  /tmp/ccnXe5XY.s 			page 11


 566 0032 0094     		str	r4, [sp, #0]
 567 0034 FFF7FEFF 		bl	chThdCreateStatic
 568              	.LVL13:
 569 0038 40F20004 		movw	r4, #:lower16:threads
 570              		.loc 1 551 0
 571 003c D6F804C0 		ldr	ip, [r6, #4]
 572              		.loc 1 550 0
 573 0040 C0F20004 		movt	r4, #:upper16:threads
 574              		.loc 1 551 0
 575 0044 40F2000E 		movw	lr, #:lower16:.LC5
 576              		.loc 1 550 0
 577 0048 2060     		str	r0, [r4, #0]
 578              		.loc 1 551 0
 579 004a C0F2000E 		movt	lr, #:upper16:.LC5
 580 004e BA1C     		adds	r2, r7, #2
 581 0050 2B46     		mov	r3, r5
 582 0052 4FF49871 		mov	r1, #304
 583 0056 6046     		mov	r0, ip
 584 0058 CDF800E0 		str	lr, [sp, #0]
 585 005c FFF7FEFF 		bl	chThdCreateStatic
 586              		.loc 1 552 0
 587 0060 D6F808C0 		ldr	ip, [r6, #8]
 588 0064 40F2000E 		movw	lr, #:lower16:.LC1
 589              		.loc 1 551 0
 590 0068 6060     		str	r0, [r4, #4]
 591              		.loc 1 552 0
 592 006a C0F2000E 		movt	lr, #:upper16:.LC1
 593 006e FA1C     		adds	r2, r7, #3
 594 0070 2B46     		mov	r3, r5
 595 0072 4FF49871 		mov	r1, #304
 596 0076 6046     		mov	r0, ip
 597 0078 CDF800E0 		str	lr, [sp, #0]
 598 007c FFF7FEFF 		bl	chThdCreateStatic
 599              		.loc 1 553 0
 600 0080 D6F80CC0 		ldr	ip, [r6, #12]
 601 0084 40F2000E 		movw	lr, #:lower16:.LC2
 602              		.loc 1 552 0
 603 0088 A060     		str	r0, [r4, #8]
 604              		.loc 1 553 0
 605 008a C0F2000E 		movt	lr, #:upper16:.LC2
 606 008e 6046     		mov	r0, ip
 607 0090 3A1D     		adds	r2, r7, #4
 608 0092 2B46     		mov	r3, r5
 609 0094 4FF49871 		mov	r1, #304
 610 0098 CDF800E0 		str	lr, [sp, #0]
 611 009c FFF7FEFF 		bl	chThdCreateStatic
 612              		.loc 1 554 0
 613 00a0 D6F810E0 		ldr	lr, [r6, #16]
 614 00a4 40F20006 		movw	r6, #:lower16:.LC0
 615 00a8 4FF49871 		mov	r1, #304
 616 00ac 7A1D     		adds	r2, r7, #5
 617 00ae 2B46     		mov	r3, r5
 618              		.loc 1 553 0
 619 00b0 E060     		str	r0, [r4, #12]
 620              		.loc 1 554 0
 621 00b2 C0F20006 		movt	r6, #:upper16:.LC0
 622 00b6 7046     		mov	r0, lr
ARM GAS  /tmp/ccnXe5XY.s 			page 12


 623 00b8 0096     		str	r6, [sp, #0]
 624 00ba FFF7FEFF 		bl	chThdCreateStatic
 625 00be 2061     		str	r0, [r4, #16]
 626              		.loc 1 555 0
 627 00c0 40F20000 		movw	r0, #:lower16:.LANCHOR0
 628 00c4 C0F20000 		movt	r0, #:upper16:.LANCHOR0
 629 00c8 FFF7FEFF 		bl	chCondBroadcast
 630              		.loc 1 556 0
 631 00cc FFF7FEFF 		bl	test_wait_threads
 632              		.loc 1 557 0
 633 00d0 40F20001 		movw	r1, #:lower16:.LC6
 634 00d4 0120     		movs	r0, #1
 635 00d6 C0F20001 		movt	r1, #:upper16:.LC6
 636              		.loc 1 558 0
 637 00da 03B0     		add	sp, sp, #12
 638 00dc BDE8F040 		pop	{r4, r5, r6, r7, lr}
 639              		.loc 1 557 0
 640 00e0 FFF7FEBF 		b	_test_assert_sequence
 641              		.cfi_endproc
 642              	.LFE32:
 643              		.size	mtx7_execute, .-mtx7_execute
 644 00e4 AFF30080 		.section	.text.mtx6_execute,"ax",%progbits
 644      AFF30080 
 644      AFF30080 
 645              		.align	2
 646              		.p2align 4,,15
 647              		.thumb
 648              		.thumb_func
 649              		.type	mtx6_execute, %function
 650              	mtx6_execute:
 651              	.LFB30:
 652              		.loc 1 504 0
 653              		.cfi_startproc
 654              		@ args = 0, pretend = 0, frame = 0
 655              		@ frame_needed = 0, uses_anonymous_args = 0
 656              		.loc 1 506 0
 657 0000 40F20000 		movw	r0, #:lower16:rlist
 658              		.loc 1 504 0
 659 0004 F0B5     		push	{r4, r5, r6, r7, lr}
 660              	.LCFI13:
 661              		.cfi_def_cfa_offset 20
 662              		.cfi_offset 14, -4
 663              		.cfi_offset 7, -8
 664              		.cfi_offset 6, -12
 665              		.cfi_offset 5, -16
 666              		.cfi_offset 4, -20
 667              		.loc 1 506 0
 668 0006 C0F20000 		movt	r0, #:upper16:rlist
 669 000a C369     		ldr	r3, [r0, #28]
 670              		.loc 1 507 0
 671 000c 40F20006 		movw	r6, #:lower16:wa
 672              		.loc 1 506 0
 673 0010 9F68     		ldr	r7, [r3, #8]
 674              	.LVL14:
 675              		.loc 1 507 0
 676 0012 40F20005 		movw	r5, #:lower16:thread10
 677 0016 C0F20006 		movt	r6, #:upper16:wa
ARM GAS  /tmp/ccnXe5XY.s 			page 13


 678 001a C0F20005 		movt	r5, #:upper16:thread10
 679 001e 40F20004 		movw	r4, #:lower16:.LC4
 680              		.loc 1 504 0
 681 0022 83B0     		sub	sp, sp, #12
 682              	.LCFI14:
 683              		.cfi_def_cfa_offset 32
 684              		.loc 1 507 0
 685 0024 7A1C     		adds	r2, r7, #1
 686 0026 2B46     		mov	r3, r5
 687 0028 3068     		ldr	r0, [r6, #0]
 688              	.LVL15:
 689 002a C0F20004 		movt	r4, #:upper16:.LC4
 690 002e 4FF49871 		mov	r1, #304
 691 0032 0094     		str	r4, [sp, #0]
 692 0034 FFF7FEFF 		bl	chThdCreateStatic
 693              	.LVL16:
 694 0038 40F20004 		movw	r4, #:lower16:threads
 695              		.loc 1 508 0
 696 003c 7168     		ldr	r1, [r6, #4]
 697              		.loc 1 507 0
 698 003e C0F20004 		movt	r4, #:upper16:threads
 699              		.loc 1 508 0
 700 0042 40F2000E 		movw	lr, #:lower16:.LC5
 701              		.loc 1 507 0
 702 0046 2060     		str	r0, [r4, #0]
 703              		.loc 1 508 0
 704 0048 C0F2000E 		movt	lr, #:upper16:.LC5
 705 004c BA1C     		adds	r2, r7, #2
 706 004e 2B46     		mov	r3, r5
 707 0050 0846     		mov	r0, r1
 708 0052 4FF49871 		mov	r1, #304
 709 0056 CDF800E0 		str	lr, [sp, #0]
 710 005a FFF7FEFF 		bl	chThdCreateStatic
 711              		.loc 1 509 0
 712 005e B168     		ldr	r1, [r6, #8]
 713 0060 40F2000C 		movw	ip, #:lower16:.LC1
 714 0064 C0F2000C 		movt	ip, #:upper16:.LC1
 715              		.loc 1 508 0
 716 0068 6060     		str	r0, [r4, #4]
 717              		.loc 1 509 0
 718 006a FA1C     		adds	r2, r7, #3
 719 006c 2B46     		mov	r3, r5
 720 006e 0846     		mov	r0, r1
 721 0070 4FF49871 		mov	r1, #304
 722 0074 CDF800C0 		str	ip, [sp, #0]
 723 0078 FFF7FEFF 		bl	chThdCreateStatic
 724              		.loc 1 510 0
 725 007c F168     		ldr	r1, [r6, #12]
 726 007e 40F2000E 		movw	lr, #:lower16:.LC2
 727              		.loc 1 509 0
 728 0082 A060     		str	r0, [r4, #8]
 729              		.loc 1 510 0
 730 0084 C0F2000E 		movt	lr, #:upper16:.LC2
 731 0088 3A1D     		adds	r2, r7, #4
 732 008a 2B46     		mov	r3, r5
 733 008c 0846     		mov	r0, r1
 734 008e 4FF49871 		mov	r1, #304
ARM GAS  /tmp/ccnXe5XY.s 			page 14


 735 0092 CDF800E0 		str	lr, [sp, #0]
 736 0096 FFF7FEFF 		bl	chThdCreateStatic
 737              		.loc 1 511 0
 738 009a 3269     		ldr	r2, [r6, #16]
 739 009c 40F20006 		movw	r6, #:lower16:.LC0
 740              		.loc 1 510 0
 741 00a0 E060     		str	r0, [r4, #12]
 742              		.loc 1 511 0
 743 00a2 2B46     		mov	r3, r5
 744 00a4 C0F20006 		movt	r6, #:upper16:.LC0
 745 00a8 1046     		mov	r0, r2
 746 00aa 4FF49871 		mov	r1, #304
 747 00ae 7A1D     		adds	r2, r7, #5
 748 00b0 0096     		str	r6, [sp, #0]
 749 00b2 FFF7FEFF 		bl	chThdCreateStatic
 750              	.LBB2:
 751              		.loc 1 512 0
 752 00b6 2023     		movs	r3, #32
 753              	.LVL17:
 754              	.LBE2:
 755              		.loc 1 511 0
 756 00b8 2061     		str	r0, [r4, #16]
 757              	.LBB3:
 758              		.loc 1 512 0
 759              	@ 512 "../../test/testmtx.c" 1
 760 00ba 83F31188 		msr     BASEPRI, r3
 761              	@ 0 "" 2
 762              	.LVL18:
 763              		.thumb
 764              	.LBE3:
 765              		.loc 1 513 0
 766 00be 40F20004 		movw	r4, #:lower16:.LANCHOR0
 767 00c2 C0F20004 		movt	r4, #:upper16:.LANCHOR0
 768 00c6 2046     		mov	r0, r4
 769 00c8 FFF7FEFF 		bl	chCondSignalI
 770              	.LVL19:
 771              		.loc 1 514 0
 772 00cc 2046     		mov	r0, r4
 773 00ce FFF7FEFF 		bl	chCondSignalI
 774              		.loc 1 515 0
 775 00d2 2046     		mov	r0, r4
 776 00d4 FFF7FEFF 		bl	chCondSignalI
 777              		.loc 1 516 0
 778 00d8 2046     		mov	r0, r4
 779 00da FFF7FEFF 		bl	chCondSignalI
 780              		.loc 1 517 0
 781 00de 2046     		mov	r0, r4
 782 00e0 FFF7FEFF 		bl	chCondSignalI
 783              		.loc 1 518 0
 784 00e4 FFF7FEFF 		bl	chSchRescheduleS
 785              	.LBB4:
 786              		.loc 1 519 0
 787 00e8 0023     		movs	r3, #0
 788              	.LVL20:
 789              	@ 519 "../../test/testmtx.c" 1
 790 00ea 83F31188 		msr     BASEPRI, r3
 791              	@ 0 "" 2
ARM GAS  /tmp/ccnXe5XY.s 			page 15


 792              	.LVL21:
 793              		.thumb
 794              	.LBE4:
 795              		.loc 1 520 0
 796 00ee FFF7FEFF 		bl	test_wait_threads
 797              	.LVL22:
 798              		.loc 1 521 0
 799 00f2 40F20001 		movw	r1, #:lower16:.LC6
 800 00f6 0120     		movs	r0, #1
 801 00f8 C0F20001 		movt	r1, #:upper16:.LC6
 802              		.loc 1 522 0
 803 00fc 03B0     		add	sp, sp, #12
 804 00fe BDE8F040 		pop	{r4, r5, r6, r7, lr}
 805              		.loc 1 521 0
 806 0102 FFF7FEBF 		b	_test_assert_sequence
 807              		.cfi_endproc
 808              	.LFE30:
 809              		.size	mtx6_execute, .-mtx6_execute
 810 0106 00BFAFF3 		.section	.text.mtx1_execute,"ax",%progbits
 810      0080AFF3 
 810      0080
 811              		.align	2
 812              		.p2align 4,,15
 813              		.thumb
 814              		.thumb_func
 815              		.type	mtx1_execute, %function
 816              	mtx1_execute:
 817              	.LFB9:
 818              		.loc 1 108 0
 819              		.cfi_startproc
 820              		@ args = 0, pretend = 0, frame = 0
 821              		@ frame_needed = 0, uses_anonymous_args = 0
 822 0000 F0B5     		push	{r4, r5, r6, r7, lr}
 823              	.LCFI15:
 824              		.cfi_def_cfa_offset 20
 825              		.cfi_offset 14, -4
 826              		.cfi_offset 7, -8
 827              		.cfi_offset 6, -12
 828              		.cfi_offset 5, -16
 829              		.cfi_offset 4, -20
 830              		.loc 1 110 0
 831 0002 40F20007 		movw	r7, #:lower16:rlist
 832 0006 C0F20007 		movt	r7, #:upper16:rlist
 833 000a FE69     		ldr	r6, [r7, #28]
 834              		.loc 1 111 0
 835 000c 40F20000 		movw	r0, #:lower16:.LANCHOR2
 836              		.loc 1 108 0
 837 0010 83B0     		sub	sp, sp, #12
 838              	.LCFI16:
 839              		.cfi_def_cfa_offset 32
 840              		.loc 1 110 0
 841 0012 B668     		ldr	r6, [r6, #8]
 842              	.LVL23:
 843              		.loc 1 111 0
 844 0014 C0F20000 		movt	r0, #:upper16:.LANCHOR2
 845              		.loc 1 112 0
 846 0018 40F20005 		movw	r5, #:lower16:wa
ARM GAS  /tmp/ccnXe5XY.s 			page 16


 847              		.loc 1 111 0
 848 001c FFF7FEFF 		bl	chMtxLock
 849              	.LVL24:
 850              		.loc 1 112 0
 851 0020 C0F20005 		movt	r5, #:upper16:wa
 852 0024 40F20004 		movw	r4, #:lower16:.LC4
 853 0028 40F20003 		movw	r3, #:lower16:thread1
 854 002c 721C     		adds	r2, r6, #1
 855 002e 2868     		ldr	r0, [r5, #0]
 856 0030 C0F20004 		movt	r4, #:upper16:.LC4
 857 0034 4FF49871 		mov	r1, #304
 858 0038 C0F20003 		movt	r3, #:upper16:thread1
 859 003c 0094     		str	r4, [sp, #0]
 860 003e FFF7FEFF 		bl	chThdCreateStatic
 861 0042 40F20004 		movw	r4, #:lower16:threads
 862              		.loc 1 113 0
 863 0046 D5F804C0 		ldr	ip, [r5, #4]
 864              		.loc 1 112 0
 865 004a C0F20004 		movt	r4, #:upper16:threads
 866              		.loc 1 113 0
 867 004e 40F2000E 		movw	lr, #:lower16:.LC5
 868 0052 40F20003 		movw	r3, #:lower16:thread1
 869              		.loc 1 112 0
 870 0056 2060     		str	r0, [r4, #0]
 871              		.loc 1 113 0
 872 0058 C0F2000E 		movt	lr, #:upper16:.LC5
 873 005c B21C     		adds	r2, r6, #2
 874 005e 4FF49871 		mov	r1, #304
 875 0062 C0F20003 		movt	r3, #:upper16:thread1
 876 0066 6046     		mov	r0, ip
 877 0068 CDF800E0 		str	lr, [sp, #0]
 878 006c FFF7FEFF 		bl	chThdCreateStatic
 879              		.loc 1 114 0
 880 0070 D5F808C0 		ldr	ip, [r5, #8]
 881 0074 40F2000E 		movw	lr, #:lower16:.LC1
 882 0078 40F20003 		movw	r3, #:lower16:thread1
 883              		.loc 1 113 0
 884 007c 6060     		str	r0, [r4, #4]
 885              		.loc 1 114 0
 886 007e C0F2000E 		movt	lr, #:upper16:.LC1
 887 0082 F21C     		adds	r2, r6, #3
 888 0084 4FF49871 		mov	r1, #304
 889 0088 C0F20003 		movt	r3, #:upper16:thread1
 890 008c 6046     		mov	r0, ip
 891 008e CDF800E0 		str	lr, [sp, #0]
 892 0092 FFF7FEFF 		bl	chThdCreateStatic
 893              		.loc 1 115 0
 894 0096 D5F80CC0 		ldr	ip, [r5, #12]
 895 009a 40F2000E 		movw	lr, #:lower16:.LC2
 896 009e 40F20003 		movw	r3, #:lower16:thread1
 897              		.loc 1 114 0
 898 00a2 A060     		str	r0, [r4, #8]
 899              		.loc 1 115 0
 900 00a4 C0F2000E 		movt	lr, #:upper16:.LC2
 901 00a8 6046     		mov	r0, ip
 902 00aa 321D     		adds	r2, r6, #4
 903 00ac 4FF49871 		mov	r1, #304
ARM GAS  /tmp/ccnXe5XY.s 			page 17


 904 00b0 C0F20003 		movt	r3, #:upper16:thread1
 905 00b4 CDF800E0 		str	lr, [sp, #0]
 906 00b8 FFF7FEFF 		bl	chThdCreateStatic
 907              		.loc 1 116 0
 908 00bc D5F810E0 		ldr	lr, [r5, #16]
 909 00c0 40F20003 		movw	r3, #:lower16:thread1
 910 00c4 40F20005 		movw	r5, #:lower16:.LC0
 911 00c8 721D     		adds	r2, r6, #5
 912 00ca 4FF49871 		mov	r1, #304
 913 00ce C0F20003 		movt	r3, #:upper16:thread1
 914              		.loc 1 115 0
 915 00d2 E060     		str	r0, [r4, #12]
 916              		.loc 1 116 0
 917 00d4 C0F20005 		movt	r5, #:upper16:.LC0
 918 00d8 7046     		mov	r0, lr
 919 00da 0095     		str	r5, [sp, #0]
 920 00dc FFF7FEFF 		bl	chThdCreateStatic
 921 00e0 2061     		str	r0, [r4, #16]
 922              		.loc 1 117 0
 923 00e2 FFF7FEFF 		bl	chMtxUnlock
 924              		.loc 1 118 0
 925 00e6 FFF7FEFF 		bl	test_wait_threads
 926              		.loc 1 119 0
 927 00ea F969     		ldr	r1, [r7, #28]
 928 00ec 0120     		movs	r0, #1
 929 00ee 8A68     		ldr	r2, [r1, #8]
 930 00f0 931B     		subs	r3, r2, r6
 931 00f2 5942     		rsbs	r1, r3, #0
 932 00f4 41EB0301 		adc	r1, r1, r3
 933 00f8 FFF7FEFF 		bl	_test_assert
 934 00fc 08B1     		cbz	r0, .L19
 935              		.loc 1 121 0
 936 00fe 03B0     		add	sp, sp, #12
 937 0100 F0BD     		pop	{r4, r5, r6, r7, pc}
 938              	.L19:
 939              		.loc 1 120 0
 940 0102 40F20001 		movw	r1, #:lower16:.LC6
 941 0106 0220     		movs	r0, #2
 942 0108 C0F20001 		movt	r1, #:upper16:.LC6
 943              		.loc 1 121 0
 944 010c 03B0     		add	sp, sp, #12
 945 010e BDE8F040 		pop	{r4, r5, r6, r7, lr}
 946              		.loc 1 120 0
 947 0112 FFF7FEBF 		b	_test_assert_sequence
 948              		.cfi_endproc
 949              	.LFE9:
 950              		.size	mtx1_execute, .-mtx1_execute
 951 0116 00BFAFF3 		.section	.text.mtx5_execute,"ax",%progbits
 951      0080AFF3 
 951      0080
 952              		.align	2
 953              		.p2align 4,,15
 954              		.thumb
 955              		.thumb_func
 956              		.type	mtx5_execute, %function
 957              	mtx5_execute:
 958              	.LFB27:
ARM GAS  /tmp/ccnXe5XY.s 			page 18


 959              		.loc 1 444 0
 960              		.cfi_startproc
 961              		@ args = 0, pretend = 0, frame = 0
 962              		@ frame_needed = 0, uses_anonymous_args = 0
 963 0000 F8B5     		push	{r3, r4, r5, r6, r7, lr}
 964              	.LCFI17:
 965              		.cfi_def_cfa_offset 24
 966              		.cfi_offset 14, -4
 967              		.cfi_offset 7, -8
 968              		.cfi_offset 6, -12
 969              		.cfi_offset 5, -16
 970              		.cfi_offset 4, -20
 971              		.cfi_offset 3, -24
 972              		.loc 1 448 0
 973 0002 40F20005 		movw	r5, #:lower16:rlist
 974 0006 C0F20005 		movt	r5, #:upper16:rlist
 975              		.loc 1 450 0
 976 000a 40F20004 		movw	r4, #:lower16:.LANCHOR2
 977              		.loc 1 448 0
 978 000e EB69     		ldr	r3, [r5, #28]
 979              		.loc 1 450 0
 980 0010 C0F20004 		movt	r4, #:upper16:.LANCHOR2
 981 0014 2046     		mov	r0, r4
 982              		.loc 1 448 0
 983 0016 9E68     		ldr	r6, [r3, #8]
 984              	.LVL25:
 985              		.loc 1 450 0
 986 0018 FFF7FEFF 		bl	chMtxTryLock
 987              	.LVL26:
 988 001c 0146     		mov	r1, r0
 989              	.LVL27:
 990              		.loc 1 451 0
 991 001e 0120     		movs	r0, #1
 992              	.LVL28:
 993 0020 FFF7FEFF 		bl	_test_assert
 994              	.LVL29:
 995 0024 00B1     		cbz	r0, .L22
 996              	.L20:
 997 0026 F8BD     		pop	{r3, r4, r5, r6, r7, pc}
 998              	.L22:
 999              		.loc 1 453 0
 1000 0028 2046     		mov	r0, r4
 1001 002a FFF7FEFF 		bl	chMtxTryLock
 1002              	.LVL30:
 1003              		.loc 1 454 0
 1004 002e D0F10101 		rsbs	r1, r0, #1
 1005 0032 38BF     		it	cc
 1006 0034 0021     		movcc	r1, #0
 1007 0036 0220     		movs	r0, #2
 1008              	.LVL31:
 1009 0038 FFF7FEFF 		bl	_test_assert
 1010 003c 0746     		mov	r7, r0
 1011 003e 0028     		cmp	r0, #0
 1012 0040 F1D1     		bne	.L20
 1013              	.LBB5:
 1014              		.loc 1 456 0
 1015 0042 2023     		movs	r3, #32
ARM GAS  /tmp/ccnXe5XY.s 			page 19


 1016              	.LVL32:
 1017              	@ 456 "../../test/testmtx.c" 1
 1018 0044 83F31188 		msr     BASEPRI, r3
 1019              	@ 0 "" 2
 1020              	.LVL33:
 1021              		.thumb
 1022              	.LBE5:
 1023              		.loc 1 457 0
 1024 0048 FFF7FEFF 		bl	chMtxUnlockS
 1025              	.LVL34:
 1026              	.LBB6:
 1027              		.loc 1 458 0
 1028 004c 3B46     		mov	r3, r7
 1029              	.LVL35:
 1030              	@ 458 "../../test/testmtx.c" 1
 1031 004e 83F31188 		msr     BASEPRI, r3
 1032              	@ 0 "" 2
 1033              	.LVL36:
 1034              		.thumb
 1035              	.LBE6:
 1036              		.loc 1 460 0
 1037 0052 2368     		ldr	r3, [r4, #0]
 1038              	.LVL37:
 1039 0054 0320     		movs	r0, #3
 1040 0056 1A1B     		subs	r2, r3, r4
 1041 0058 5142     		rsbs	r1, r2, #0
 1042 005a 41EB0201 		adc	r1, r1, r2
 1043 005e FFF7FEFF 		bl	_test_assert
 1044 0062 0028     		cmp	r0, #0
 1045 0064 DFD1     		bne	.L20
 1046              		.loc 1 461 0
 1047 0066 A168     		ldr	r1, [r4, #8]
 1048 0068 0420     		movs	r0, #4
 1049 006a D1F10101 		rsbs	r1, r1, #1
 1050 006e 38BF     		it	cc
 1051 0070 0021     		movcc	r1, #0
 1052 0072 FFF7FEFF 		bl	_test_assert
 1053 0076 0028     		cmp	r0, #0
 1054 0078 D5D1     		bne	.L20
 1055              		.loc 1 462 0
 1056 007a EA69     		ldr	r2, [r5, #28]
 1057 007c 0520     		movs	r0, #5
 1058 007e 9168     		ldr	r1, [r2, #8]
 1059 0080 8B1B     		subs	r3, r1, r6
 1060 0082 5A42     		rsbs	r2, r3, #0
 1061 0084 42EB0301 		adc	r1, r2, r3
 1062 0088 FFF7FEFF 		bl	_test_assert
 1063 008c 0028     		cmp	r0, #0
 1064 008e CAD1     		bne	.L20
 1065              		.loc 1 464 0
 1066 0090 2046     		mov	r0, r4
 1067 0092 FFF7FEFF 		bl	chMtxLock
 1068              		.loc 1 465 0
 1069 0096 FFF7FEFF 		bl	chMtxUnlockAll
 1070              		.loc 1 466 0
 1071 009a 2268     		ldr	r2, [r4, #0]
 1072 009c 0620     		movs	r0, #6
ARM GAS  /tmp/ccnXe5XY.s 			page 20


 1073 009e 111B     		subs	r1, r2, r4
 1074 00a0 4B42     		rsbs	r3, r1, #0
 1075 00a2 43EB0101 		adc	r1, r3, r1
 1076 00a6 FFF7FEFF 		bl	_test_assert
 1077 00aa 0028     		cmp	r0, #0
 1078 00ac BBD1     		bne	.L20
 1079              		.loc 1 467 0
 1080 00ae A368     		ldr	r3, [r4, #8]
 1081 00b0 0720     		movs	r0, #7
 1082 00b2 D3F10101 		rsbs	r1, r3, #1
 1083 00b6 38BF     		it	cc
 1084 00b8 0021     		movcc	r1, #0
 1085              		.loc 1 468 0
 1086 00ba BDE8F840 		pop	{r3, r4, r5, r6, r7, lr}
 1087              		.loc 1 467 0
 1088 00be FFF7FEBF 		b	_test_assert
 1089              		.cfi_endproc
 1090              	.LFE27:
 1091              		.size	mtx5_execute, .-mtx5_execute
 1092 00c2 00BFAFF3 		.section	.text.mtx4_execute,"ax",%progbits
 1092      0080AFF3 
 1092      0080AFF3 
 1092      0080
 1093              		.align	2
 1094              		.p2align 4,,15
 1095              		.thumb
 1096              		.thumb_func
 1097              		.type	mtx4_execute, %function
 1098              	mtx4_execute:
 1099              	.LFB25:
 1100              		.loc 1 376 0
 1101              		.cfi_startproc
 1102              		@ args = 0, pretend = 0, frame = 0
 1103              		@ frame_needed = 0, uses_anonymous_args = 0
 1104 0000 2DE9F047 		push	{r4, r5, r6, r7, r8, r9, sl, lr}
 1105              	.LCFI18:
 1106              		.cfi_def_cfa_offset 32
 1107              		.cfi_offset 14, -4
 1108              		.cfi_offset 10, -8
 1109              		.cfi_offset 9, -12
 1110              		.cfi_offset 8, -16
 1111              		.cfi_offset 7, -20
 1112              		.cfi_offset 6, -24
 1113              		.cfi_offset 5, -28
 1114              		.cfi_offset 4, -32
 1115              		.loc 1 379 0
 1116 0004 40F20004 		movw	r4, #:lower16:rlist
 1117 0008 C0F20004 		movt	r4, #:upper16:rlist
 1118 000c E069     		ldr	r0, [r4, #28]
 1119              		.loc 1 382 0
 1120 000e 40F20006 		movw	r6, #:lower16:wa
 1121              		.loc 1 379 0
 1122 0012 8768     		ldr	r7, [r0, #8]
 1123              	.LVL38:
 1124              		.loc 1 382 0
 1125 0014 C0F20006 		movt	r6, #:upper16:wa
 1126 0018 D6F80090 		ldr	r9, [r6, #0]
ARM GAS  /tmp/ccnXe5XY.s 			page 21


 1127              		.loc 1 380 0
 1128 001c 07F10108 		add	r8, r7, #1
 1129              	.LVL39:
 1130              		.loc 1 382 0
 1131 0020 40F20005 		movw	r5, #:lower16:.LC2
 1132 0024 40F20003 		movw	r3, #:lower16:thread4a
 1133              		.loc 1 376 0
 1134 0028 82B0     		sub	sp, sp, #8
 1135              	.LCFI19:
 1136              		.cfi_def_cfa_offset 40
 1137              		.loc 1 382 0
 1138 002a C0F20005 		movt	r5, #:upper16:.LC2
 1139 002e 4FF49871 		mov	r1, #304
 1140 0032 4246     		mov	r2, r8
 1141 0034 C0F20003 		movt	r3, #:upper16:thread4a
 1142 0038 4846     		mov	r0, r9
 1143 003a 0095     		str	r5, [sp, #0]
 1144 003c FFF7FEFF 		bl	chThdCreateStatic
 1145              	.LVL40:
 1146 0040 40F20005 		movw	r5, #:lower16:threads
 1147              		.loc 1 383 0
 1148 0044 D6F804A0 		ldr	sl, [r6, #4]
 1149              		.loc 1 382 0
 1150 0048 C0F20005 		movt	r5, #:upper16:threads
 1151              		.loc 1 381 0
 1152 004c BE1C     		adds	r6, r7, #2
 1153              	.LVL41:
 1154              		.loc 1 383 0
 1155 004e 40F2000E 		movw	lr, #:lower16:.LC0
 1156 0052 40F20003 		movw	r3, #:lower16:thread4b
 1157 0056 4FF49871 		mov	r1, #304
 1158              		.loc 1 382 0
 1159 005a 2860     		str	r0, [r5, #0]
 1160              		.loc 1 383 0
 1161 005c C0F2000E 		movt	lr, #:upper16:.LC0
 1162 0060 3246     		mov	r2, r6
 1163 0062 C0F20003 		movt	r3, #:upper16:thread4b
 1164 0066 5046     		mov	r0, sl
 1165 0068 CDF800E0 		str	lr, [sp, #0]
 1166 006c FFF7FEFF 		bl	chThdCreateStatic
 1167 0070 6860     		str	r0, [r5, #4]
 1168              		.loc 1 384 0
 1169 0072 40F20000 		movw	r0, #:lower16:.LANCHOR1
 1170 0076 C0F20000 		movt	r0, #:upper16:.LANCHOR1
 1171 007a FFF7FEFF 		bl	chMtxLock
 1172              		.loc 1 385 0
 1173 007e E169     		ldr	r1, [r4, #28]
 1174 0080 0120     		movs	r0, #1
 1175 0082 8B68     		ldr	r3, [r1, #8]
 1176 0084 DA1B     		subs	r2, r3, r7
 1177 0086 5142     		rsbs	r1, r2, #0
 1178 0088 41EB0201 		adc	r1, r1, r2
 1179 008c FFF7FEFF 		bl	_test_assert
 1180 0090 10B1     		cbz	r0, .L25
 1181              	.L23:
 1182              		.loc 1 420 0
 1183 0092 02B0     		add	sp, sp, #8
ARM GAS  /tmp/ccnXe5XY.s 			page 22


 1184 0094 BDE8F087 		pop	{r4, r5, r6, r7, r8, r9, sl, pc}
 1185              	.L25:
 1186              		.loc 1 386 0
 1187 0098 6420     		movs	r0, #100
 1188 009a FFF7FEFF 		bl	chThdSleep
 1189              		.loc 1 387 0
 1190 009e E169     		ldr	r1, [r4, #28]
 1191 00a0 0220     		movs	r0, #2
 1192 00a2 8B68     		ldr	r3, [r1, #8]
 1193 00a4 C8EB030C 		rsb	ip, r8, r3
 1194 00a8 DCF10002 		rsbs	r2, ip, #0
 1195 00ac 42EB0C01 		adc	r1, r2, ip
 1196 00b0 FFF7FEFF 		bl	_test_assert
 1197 00b4 0028     		cmp	r0, #0
 1198 00b6 ECD1     		bne	.L23
 1199              		.loc 1 388 0
 1200 00b8 40F20000 		movw	r0, #:lower16:.LANCHOR2
 1201 00bc C0F20000 		movt	r0, #:upper16:.LANCHOR2
 1202 00c0 FFF7FEFF 		bl	chMtxLock
 1203              		.loc 1 389 0
 1204 00c4 E269     		ldr	r2, [r4, #28]
 1205 00c6 0320     		movs	r0, #3
 1206 00c8 9168     		ldr	r1, [r2, #8]
 1207 00ca C8EB0103 		rsb	r3, r8, r1
 1208 00ce 5A42     		rsbs	r2, r3, #0
 1209 00d0 42EB0301 		adc	r1, r2, r3
 1210 00d4 FFF7FEFF 		bl	_test_assert
 1211 00d8 0028     		cmp	r0, #0
 1212 00da DAD1     		bne	.L23
 1213              		.loc 1 390 0
 1214 00dc 6420     		movs	r0, #100
 1215 00de FFF7FEFF 		bl	chThdSleep
 1216              		.loc 1 391 0
 1217 00e2 E369     		ldr	r3, [r4, #28]
 1218 00e4 0420     		movs	r0, #4
 1219 00e6 9A68     		ldr	r2, [r3, #8]
 1220 00e8 911B     		subs	r1, r2, r6
 1221 00ea 4B42     		rsbs	r3, r1, #0
 1222 00ec 43EB0101 		adc	r1, r3, r1
 1223 00f0 FFF7FEFF 		bl	_test_assert
 1224 00f4 0028     		cmp	r0, #0
 1225 00f6 CCD1     		bne	.L23
 1226              		.loc 1 392 0
 1227 00f8 FFF7FEFF 		bl	chMtxUnlock
 1228              		.loc 1 393 0
 1229 00fc E369     		ldr	r3, [r4, #28]
 1230 00fe 0520     		movs	r0, #5
 1231 0100 9A68     		ldr	r2, [r3, #8]
 1232 0102 C8EB0201 		rsb	r1, r8, r2
 1233 0106 D1F1000C 		rsbs	ip, r1, #0
 1234 010a 4CEB0101 		adc	r1, ip, r1
 1235 010e FFF7FEFF 		bl	_test_assert
 1236 0112 0028     		cmp	r0, #0
 1237 0114 BDD1     		bne	.L23
 1238              		.loc 1 394 0
 1239 0116 6420     		movs	r0, #100
 1240 0118 FFF7FEFF 		bl	chThdSleep
ARM GAS  /tmp/ccnXe5XY.s 			page 23


 1241              		.loc 1 395 0
 1242 011c E369     		ldr	r3, [r4, #28]
 1243 011e 0620     		movs	r0, #6
 1244 0120 9A68     		ldr	r2, [r3, #8]
 1245 0122 C8EB0201 		rsb	r1, r8, r2
 1246 0126 D1F1000C 		rsbs	ip, r1, #0
 1247 012a 4CEB0101 		adc	r1, ip, r1
 1248 012e FFF7FEFF 		bl	_test_assert
 1249 0132 0028     		cmp	r0, #0
 1250 0134 ADD1     		bne	.L23
 1251              		.loc 1 396 0
 1252 0136 FFF7FEFF 		bl	chMtxUnlockAll
 1253              		.loc 1 397 0
 1254 013a E169     		ldr	r1, [r4, #28]
 1255 013c 0720     		movs	r0, #7
 1256 013e 8B68     		ldr	r3, [r1, #8]
 1257 0140 DA1B     		subs	r2, r3, r7
 1258 0142 5142     		rsbs	r1, r2, #0
 1259 0144 41EB0201 		adc	r1, r1, r2
 1260 0148 FFF7FEFF 		bl	_test_assert
 1261 014c 0028     		cmp	r0, #0
 1262 014e A0D1     		bne	.L23
 1263              		.loc 1 398 0
 1264 0150 FFF7FEFF 		bl	test_wait_threads
 1265              		.loc 1 401 0
 1266 0154 40F2000C 		movw	ip, #:lower16:.LC5
 1267 0158 40F20003 		movw	r3, #:lower16:thread4a
 1268 015c C0F2000C 		movt	ip, #:upper16:.LC5
 1269 0160 4FF49871 		mov	r1, #304
 1270 0164 4246     		mov	r2, r8
 1271 0166 C0F20003 		movt	r3, #:upper16:thread4a
 1272 016a 4846     		mov	r0, r9
 1273 016c CDF800C0 		str	ip, [sp, #0]
 1274 0170 FFF7FEFF 		bl	chThdCreateStatic
 1275              		.loc 1 402 0
 1276 0174 40F2000E 		movw	lr, #:lower16:.LC1
 1277 0178 40F20003 		movw	r3, #:lower16:thread4b
 1278 017c 4FF49871 		mov	r1, #304
 1279              		.loc 1 401 0
 1280 0180 2860     		str	r0, [r5, #0]
 1281              		.loc 1 402 0
 1282 0182 C0F2000E 		movt	lr, #:upper16:.LC1
 1283 0186 3246     		mov	r2, r6
 1284 0188 C0F20003 		movt	r3, #:upper16:thread4b
 1285 018c 5046     		mov	r0, sl
 1286 018e CDF800E0 		str	lr, [sp, #0]
 1287 0192 FFF7FEFF 		bl	chThdCreateStatic
 1288 0196 6860     		str	r0, [r5, #4]
 1289              		.loc 1 403 0
 1290 0198 40F20000 		movw	r0, #:lower16:.LANCHOR1
 1291 019c C0F20000 		movt	r0, #:upper16:.LANCHOR1
 1292 01a0 FFF7FEFF 		bl	chMtxLock
 1293              		.loc 1 404 0
 1294 01a4 E269     		ldr	r2, [r4, #28]
 1295 01a6 0820     		movs	r0, #8
 1296 01a8 9168     		ldr	r1, [r2, #8]
 1297 01aa CB1B     		subs	r3, r1, r7
ARM GAS  /tmp/ccnXe5XY.s 			page 24


 1298 01ac 5A42     		rsbs	r2, r3, #0
 1299 01ae 42EB0301 		adc	r1, r2, r3
 1300 01b2 FFF7FEFF 		bl	_test_assert
 1301 01b6 0028     		cmp	r0, #0
 1302 01b8 7FF46BAF 		bne	.L23
 1303              		.loc 1 405 0
 1304 01bc 6420     		movs	r0, #100
 1305 01be FFF7FEFF 		bl	chThdSleep
 1306              		.loc 1 406 0
 1307 01c2 E369     		ldr	r3, [r4, #28]
 1308 01c4 0920     		movs	r0, #9
 1309 01c6 9A68     		ldr	r2, [r3, #8]
 1310 01c8 C8EB0201 		rsb	r1, r8, r2
 1311 01cc 4B42     		rsbs	r3, r1, #0
 1312 01ce 43EB0101 		adc	r1, r3, r1
 1313 01d2 FFF7FEFF 		bl	_test_assert
 1314 01d6 0028     		cmp	r0, #0
 1315 01d8 7FF45BAF 		bne	.L23
 1316              		.loc 1 407 0
 1317 01dc 40F20000 		movw	r0, #:lower16:.LANCHOR2
 1318 01e0 C0F20000 		movt	r0, #:upper16:.LANCHOR2
 1319 01e4 FFF7FEFF 		bl	chMtxLock
 1320              		.loc 1 408 0
 1321 01e8 E369     		ldr	r3, [r4, #28]
 1322 01ea 0A20     		movs	r0, #10
 1323 01ec 9A68     		ldr	r2, [r3, #8]
 1324 01ee C8EB0201 		rsb	r1, r8, r2
 1325 01f2 D1F1000C 		rsbs	ip, r1, #0
 1326 01f6 4CEB0101 		adc	r1, ip, r1
 1327 01fa FFF7FEFF 		bl	_test_assert
 1328 01fe 0028     		cmp	r0, #0
 1329 0200 7FF447AF 		bne	.L23
 1330              		.loc 1 409 0
 1331 0204 6420     		movs	r0, #100
 1332 0206 FFF7FEFF 		bl	chThdSleep
 1333              		.loc 1 410 0
 1334 020a E469     		ldr	r4, [r4, #28]
 1335 020c 0B20     		movs	r0, #11
 1336 020e A268     		ldr	r2, [r4, #8]
 1337 0210 40F20004 		movw	r4, #:lower16:rlist
 1338 0214 911B     		subs	r1, r2, r6
 1339 0216 4D42     		rsbs	r5, r1, #0
 1340 0218 45EB0101 		adc	r1, r5, r1
 1341 021c FFF7FEFF 		bl	_test_assert
 1342 0220 C0F20004 		movt	r4, #:upper16:rlist
 1343 0224 0546     		mov	r5, r0
 1344 0226 0028     		cmp	r0, #0
 1345 0228 7FF433AF 		bne	.L23
 1346              	.LBB7:
 1347              		.loc 1 411 0
 1348 022c 2023     		movs	r3, #32
 1349              	.LVL42:
 1350              	@ 411 "../../test/testmtx.c" 1
 1351 022e 83F31188 		msr     BASEPRI, r3
 1352              	@ 0 "" 2
 1353              	.LVL43:
 1354              		.thumb
ARM GAS  /tmp/ccnXe5XY.s 			page 25


 1355              	.LBE7:
 1356              		.loc 1 412 0
 1357 0232 FFF7FEFF 		bl	chMtxUnlockS
 1358              	.LVL44:
 1359              	.LBB8:
 1360              		.loc 1 413 0
 1361 0236 2B46     		mov	r3, r5
 1362              	.LVL45:
 1363              	@ 413 "../../test/testmtx.c" 1
 1364 0238 83F31188 		msr     BASEPRI, r3
 1365              	@ 0 "" 2
 1366              	.LVL46:
 1367              		.thumb
 1368              	.LBE8:
 1369              		.loc 1 414 0
 1370 023c E369     		ldr	r3, [r4, #28]
 1371              	.LVL47:
 1372 023e 0C20     		movs	r0, #12
 1373 0240 9A68     		ldr	r2, [r3, #8]
 1374 0242 C8EB0201 		rsb	r1, r8, r2
 1375 0246 4B42     		rsbs	r3, r1, #0
 1376 0248 43EB0101 		adc	r1, r3, r1
 1377 024c FFF7FEFF 		bl	_test_assert
 1378 0250 0028     		cmp	r0, #0
 1379 0252 7FF41EAF 		bne	.L23
 1380              		.loc 1 415 0
 1381 0256 6420     		movs	r0, #100
 1382 0258 FFF7FEFF 		bl	chThdSleep
 1383              		.loc 1 416 0
 1384 025c E369     		ldr	r3, [r4, #28]
 1385 025e 0D20     		movs	r0, #13
 1386 0260 9A68     		ldr	r2, [r3, #8]
 1387 0262 C8EB0201 		rsb	r1, r8, r2
 1388 0266 D1F1000C 		rsbs	ip, r1, #0
 1389 026a 4CEB0101 		adc	r1, ip, r1
 1390 026e FFF7FEFF 		bl	_test_assert
 1391 0272 0028     		cmp	r0, #0
 1392 0274 7FF40DAF 		bne	.L23
 1393              		.loc 1 417 0
 1394 0278 FFF7FEFF 		bl	chMtxUnlockAll
 1395              		.loc 1 418 0
 1396 027c E369     		ldr	r3, [r4, #28]
 1397 027e 0E20     		movs	r0, #14
 1398 0280 9A68     		ldr	r2, [r3, #8]
 1399 0282 D11B     		subs	r1, r2, r7
 1400 0284 D1F1000C 		rsbs	ip, r1, #0
 1401 0288 4CEB0101 		adc	r1, ip, r1
 1402 028c FFF7FEFF 		bl	_test_assert
 1403 0290 0028     		cmp	r0, #0
 1404 0292 7FF4FEAE 		bne	.L23
 1405              		.loc 1 420 0
 1406 0296 02B0     		add	sp, sp, #8
 1407 0298 BDE8F047 		pop	{r4, r5, r6, r7, r8, r9, sl, lr}
 1408              		.loc 1 419 0
 1409 029c FFF7FEBF 		b	test_wait_threads
 1410              		.cfi_endproc
 1411              	.LFE25:
ARM GAS  /tmp/ccnXe5XY.s 			page 26


 1412              		.size	mtx4_execute, .-mtx4_execute
 1413              		.section	.text.thread4b,"ax",%progbits
 1414              		.align	2
 1415              		.p2align 4,,15
 1416              		.thumb
 1417              		.thumb_func
 1418              		.type	thread4b, %function
 1419              	thread4b:
 1420              	.LFB24:
 1421              		.loc 1 367 0
 1422              		.cfi_startproc
 1423              		@ args = 0, pretend = 0, frame = 0
 1424              		@ frame_needed = 0, uses_anonymous_args = 0
 1425              	.LVL48:
 1426 0000 08B5     		push	{r3, lr}
 1427              	.LCFI20:
 1428              		.cfi_def_cfa_offset 8
 1429              		.cfi_offset 14, -4
 1430              		.cfi_offset 3, -8
 1431              		.loc 1 370 0
 1432 0002 9620     		movs	r0, #150
 1433              	.LVL49:
 1434 0004 FFF7FEFF 		bl	chThdSleep
 1435              		.loc 1 371 0
 1436 0008 40F20000 		movw	r0, #:lower16:.LANCHOR2
 1437 000c C0F20000 		movt	r0, #:upper16:.LANCHOR2
 1438 0010 FFF7FEFF 		bl	chMtxLock
 1439              		.loc 1 372 0
 1440 0014 FFF7FEFF 		bl	chMtxUnlock
 1441              		.loc 1 374 0
 1442 0018 0020     		movs	r0, #0
 1443 001a 08BD     		pop	{r3, pc}
 1444              		.cfi_endproc
 1445              	.LFE24:
 1446              		.size	thread4b, .-thread4b
 1447 001c AFF30080 		.section	.text.thread4a,"ax",%progbits
 1448              		.align	2
 1449              		.p2align 4,,15
 1450              		.thumb
 1451              		.thumb_func
 1452              		.type	thread4a, %function
 1453              	thread4a:
 1454              	.LFB23:
 1455              		.loc 1 358 0
 1456              		.cfi_startproc
 1457              		@ args = 0, pretend = 0, frame = 0
 1458              		@ frame_needed = 0, uses_anonymous_args = 0
 1459              	.LVL50:
 1460 0000 08B5     		push	{r3, lr}
 1461              	.LCFI21:
 1462              		.cfi_def_cfa_offset 8
 1463              		.cfi_offset 14, -4
 1464              		.cfi_offset 3, -8
 1465              		.loc 1 361 0
 1466 0002 3220     		movs	r0, #50
 1467              	.LVL51:
 1468 0004 FFF7FEFF 		bl	chThdSleep
ARM GAS  /tmp/ccnXe5XY.s 			page 27


 1469              		.loc 1 362 0
 1470 0008 40F20000 		movw	r0, #:lower16:.LANCHOR1
 1471 000c C0F20000 		movt	r0, #:upper16:.LANCHOR1
 1472 0010 FFF7FEFF 		bl	chMtxLock
 1473              		.loc 1 363 0
 1474 0014 FFF7FEFF 		bl	chMtxUnlock
 1475              		.loc 1 365 0
 1476 0018 0020     		movs	r0, #0
 1477 001a 08BD     		pop	{r3, pc}
 1478              		.cfi_endproc
 1479              	.LFE23:
 1480              		.size	thread4a, .-thread4a
 1481 001c AFF30080 		.section	.text.mtx3_execute,"ax",%progbits
 1482              		.align	2
 1483              		.p2align 4,,15
 1484              		.thumb
 1485              		.thumb_func
 1486              		.type	mtx3_execute, %function
 1487              	mtx3_execute:
 1488              	.LFB21:
 1489              		.loc 1 319 0
 1490              		.cfi_startproc
 1491              		@ args = 0, pretend = 0, frame = 0
 1492              		@ frame_needed = 0, uses_anonymous_args = 0
 1493 0000 2DE9F041 		push	{r4, r5, r6, r7, r8, lr}
 1494              	.LCFI22:
 1495              		.cfi_def_cfa_offset 24
 1496              		.cfi_offset 14, -4
 1497              		.cfi_offset 8, -8
 1498              		.cfi_offset 7, -12
 1499              		.cfi_offset 6, -16
 1500              		.cfi_offset 5, -20
 1501              		.cfi_offset 4, -24
 1502              		.loc 1 324 0
 1503 0004 40F20006 		movw	r6, #:lower16:rlist
 1504              		.loc 1 319 0
 1505 0008 82B0     		sub	sp, sp, #8
 1506              	.LCFI23:
 1507              		.cfi_def_cfa_offset 32
 1508              		.loc 1 324 0
 1509 000a C0F20006 		movt	r6, #:upper16:rlist
 1510              		.loc 1 322 0
 1511 000e FFF7FEFF 		bl	test_wait_tick
 1512              		.loc 1 324 0
 1513 0012 F069     		ldr	r0, [r6, #28]
 1514 0014 40F20005 		movw	r5, #:lower16:wa
 1515 0018 8268     		ldr	r2, [r0, #8]
 1516 001a C0F20005 		movt	r5, #:upper16:wa
 1517              		.loc 1 323 0
 1518 001e 40F20008 		movw	r8, #:lower16:vtlist
 1519              		.loc 1 324 0
 1520 0022 40F20003 		movw	r3, #:lower16:thread3LL
 1521 0026 0027     		movs	r7, #0
 1522 0028 2868     		ldr	r0, [r5, #0]
 1523 002a 4FF49871 		mov	r1, #304
 1524 002e 053A     		subs	r2, r2, #5
 1525 0030 C0F20003 		movt	r3, #:upper16:thread3LL
ARM GAS  /tmp/ccnXe5XY.s 			page 28


 1526              		.loc 1 323 0
 1527 0034 C0F20008 		movt	r8, #:upper16:vtlist
 1528 0038 D8F80C80 		ldr	r8, [r8, #12]
 1529              	.LVL52:
 1530              		.loc 1 324 0
 1531 003c 0097     		str	r7, [sp, #0]
 1532 003e FFF7FEFF 		bl	chThdCreateStatic
 1533              		.loc 1 325 0
 1534 0042 F469     		ldr	r4, [r6, #28]
 1535 0044 D5F804E0 		ldr	lr, [r5, #4]
 1536 0048 A268     		ldr	r2, [r4, #8]
 1537              		.loc 1 324 0
 1538 004a 40F20004 		movw	r4, #:lower16:threads
 1539 004e C0F20004 		movt	r4, #:upper16:threads
 1540              		.loc 1 325 0
 1541 0052 40F20003 		movw	r3, #:lower16:thread3L
 1542              		.loc 1 324 0
 1543 0056 2060     		str	r0, [r4, #0]
 1544              		.loc 1 325 0
 1545 0058 4FF49871 		mov	r1, #304
 1546 005c 7046     		mov	r0, lr
 1547 005e 043A     		subs	r2, r2, #4
 1548 0060 C0F20003 		movt	r3, #:upper16:thread3L
 1549 0064 0097     		str	r7, [sp, #0]
 1550 0066 FFF7FEFF 		bl	chThdCreateStatic
 1551              		.loc 1 326 0
 1552 006a F369     		ldr	r3, [r6, #28]
 1553 006c D5F808C0 		ldr	ip, [r5, #8]
 1554 0070 9A68     		ldr	r2, [r3, #8]
 1555 0072 40F20003 		movw	r3, #:lower16:thread3M
 1556              		.loc 1 325 0
 1557 0076 6060     		str	r0, [r4, #4]
 1558              		.loc 1 326 0
 1559 0078 4FF49871 		mov	r1, #304
 1560 007c 6046     		mov	r0, ip
 1561 007e 033A     		subs	r2, r2, #3
 1562 0080 C0F20003 		movt	r3, #:upper16:thread3M
 1563 0084 0097     		str	r7, [sp, #0]
 1564 0086 FFF7FEFF 		bl	chThdCreateStatic
 1565              		.loc 1 327 0
 1566 008a F169     		ldr	r1, [r6, #28]
 1567 008c D5F80CE0 		ldr	lr, [r5, #12]
 1568 0090 8A68     		ldr	r2, [r1, #8]
 1569 0092 40F20003 		movw	r3, #:lower16:thread3H
 1570              		.loc 1 326 0
 1571 0096 A060     		str	r0, [r4, #8]
 1572              		.loc 1 327 0
 1573 0098 4FF49871 		mov	r1, #304
 1574 009c 7046     		mov	r0, lr
 1575 009e 023A     		subs	r2, r2, #2
 1576 00a0 C0F20003 		movt	r3, #:upper16:thread3H
 1577 00a4 0097     		str	r7, [sp, #0]
 1578 00a6 FFF7FEFF 		bl	chThdCreateStatic
 1579              		.loc 1 328 0
 1580 00aa F369     		ldr	r3, [r6, #28]
 1581 00ac 2D69     		ldr	r5, [r5, #16]
 1582 00ae 9A68     		ldr	r2, [r3, #8]
ARM GAS  /tmp/ccnXe5XY.s 			page 29


 1583 00b0 40F20003 		movw	r3, #:lower16:thread3HH
 1584 00b4 4FF49871 		mov	r1, #304
 1585              		.loc 1 327 0
 1586 00b8 E060     		str	r0, [r4, #12]
 1587              		.loc 1 328 0
 1588 00ba 013A     		subs	r2, r2, #1
 1589 00bc C0F20003 		movt	r3, #:upper16:thread3HH
 1590 00c0 2846     		mov	r0, r5
 1591 00c2 0097     		str	r7, [sp, #0]
 1592 00c4 FFF7FEFF 		bl	chThdCreateStatic
 1593 00c8 2061     		str	r0, [r4, #16]
 1594              		.loc 1 329 0
 1595 00ca FFF7FEFF 		bl	test_wait_threads
 1596              		.loc 1 330 0
 1597 00ce 40F20001 		movw	r1, #:lower16:.LC6
 1598 00d2 0120     		movs	r0, #1
 1599 00d4 C0F20001 		movt	r1, #:upper16:.LC6
 1600 00d8 FFF7FEFF 		bl	_test_assert_sequence
 1601 00dc 10B1     		cbz	r0, .L30
 1602              		.loc 1 332 0
 1603 00de 02B0     		add	sp, sp, #8
 1604 00e0 BDE8F081 		pop	{r4, r5, r6, r7, r8, pc}
 1605              	.L30:
 1606              		.loc 1 331 0
 1607 00e4 0220     		movs	r0, #2
 1608 00e6 08F16E01 		add	r1, r8, #110
 1609 00ea 08F17302 		add	r2, r8, #115
 1610              		.loc 1 332 0
 1611 00ee 02B0     		add	sp, sp, #8
 1612 00f0 BDE8F041 		pop	{r4, r5, r6, r7, r8, lr}
 1613              		.loc 1 331 0
 1614 00f4 FFF7FEBF 		b	_test_assert_time_window
 1615              		.cfi_endproc
 1616              	.LFE21:
 1617              		.size	mtx3_execute, .-mtx3_execute
 1618 00f8 AFF30080 		.section	.text.mtx2_execute,"ax",%progbits
 1618      AFF30080 
 1619              		.align	2
 1620              		.p2align 4,,15
 1621              		.thumb
 1622              		.thumb_func
 1623              		.type	mtx2_execute, %function
 1624              	mtx2_execute:
 1625              	.LFB14:
 1626              		.loc 1 201 0
 1627              		.cfi_startproc
 1628              		@ args = 0, pretend = 0, frame = 0
 1629              		@ frame_needed = 0, uses_anonymous_args = 0
 1630 0000 2DE9F041 		push	{r4, r5, r6, r7, r8, lr}
 1631              	.LCFI24:
 1632              		.cfi_def_cfa_offset 24
 1633              		.cfi_offset 14, -4
 1634              		.cfi_offset 8, -8
 1635              		.cfi_offset 7, -12
 1636              		.cfi_offset 6, -16
 1637              		.cfi_offset 5, -20
 1638              		.cfi_offset 4, -24
ARM GAS  /tmp/ccnXe5XY.s 			page 30


 1639              		.loc 1 206 0
 1640 0004 40F20006 		movw	r6, #:lower16:rlist
 1641              		.loc 1 201 0
 1642 0008 82B0     		sub	sp, sp, #8
 1643              	.LCFI25:
 1644              		.cfi_def_cfa_offset 32
 1645              		.loc 1 206 0
 1646 000a C0F20006 		movt	r6, #:upper16:rlist
 1647              		.loc 1 204 0
 1648 000e FFF7FEFF 		bl	test_wait_tick
 1649              		.loc 1 206 0
 1650 0012 F069     		ldr	r0, [r6, #28]
 1651 0014 40F20005 		movw	r5, #:lower16:wa
 1652 0018 8268     		ldr	r2, [r0, #8]
 1653 001a C0F20005 		movt	r5, #:upper16:wa
 1654              		.loc 1 205 0
 1655 001e 40F20004 		movw	r4, #:lower16:vtlist
 1656              		.loc 1 206 0
 1657 0022 40F20003 		movw	r3, #:lower16:thread2H
 1658 0026 0027     		movs	r7, #0
 1659 0028 2868     		ldr	r0, [r5, #0]
 1660              		.loc 1 205 0
 1661 002a C0F20004 		movt	r4, #:upper16:vtlist
 1662              		.loc 1 206 0
 1663 002e 4FF49871 		mov	r1, #304
 1664 0032 013A     		subs	r2, r2, #1
 1665 0034 C0F20003 		movt	r3, #:upper16:thread2H
 1666              		.loc 1 205 0
 1667 0038 D4F80C80 		ldr	r8, [r4, #12]
 1668              	.LVL53:
 1669              		.loc 1 206 0
 1670 003c 0097     		str	r7, [sp, #0]
 1671 003e FFF7FEFF 		bl	chThdCreateStatic
 1672              		.loc 1 207 0
 1673 0042 F169     		ldr	r1, [r6, #28]
 1674 0044 D5F804E0 		ldr	lr, [r5, #4]
 1675 0048 8A68     		ldr	r2, [r1, #8]
 1676              		.loc 1 206 0
 1677 004a 40F20004 		movw	r4, #:lower16:threads
 1678 004e C0F20004 		movt	r4, #:upper16:threads
 1679              		.loc 1 207 0
 1680 0052 40F20003 		movw	r3, #:lower16:thread2M
 1681              		.loc 1 206 0
 1682 0056 2060     		str	r0, [r4, #0]
 1683              		.loc 1 207 0
 1684 0058 4FF49871 		mov	r1, #304
 1685 005c 7046     		mov	r0, lr
 1686 005e 023A     		subs	r2, r2, #2
 1687 0060 C0F20003 		movt	r3, #:upper16:thread2M
 1688 0064 0097     		str	r7, [sp, #0]
 1689 0066 FFF7FEFF 		bl	chThdCreateStatic
 1690              		.loc 1 208 0
 1691 006a F369     		ldr	r3, [r6, #28]
 1692 006c AD68     		ldr	r5, [r5, #8]
 1693 006e 9A68     		ldr	r2, [r3, #8]
 1694 0070 40F20003 		movw	r3, #:lower16:thread2L
 1695 0074 4FF49871 		mov	r1, #304
ARM GAS  /tmp/ccnXe5XY.s 			page 31


 1696              		.loc 1 207 0
 1697 0078 6060     		str	r0, [r4, #4]
 1698              		.loc 1 208 0
 1699 007a 033A     		subs	r2, r2, #3
 1700 007c C0F20003 		movt	r3, #:upper16:thread2L
 1701 0080 2846     		mov	r0, r5
 1702 0082 0097     		str	r7, [sp, #0]
 1703 0084 FFF7FEFF 		bl	chThdCreateStatic
 1704 0088 A060     		str	r0, [r4, #8]
 1705              		.loc 1 209 0
 1706 008a FFF7FEFF 		bl	test_wait_threads
 1707              		.loc 1 210 0
 1708 008e 40F20001 		movw	r1, #:lower16:.LC3
 1709 0092 0120     		movs	r0, #1
 1710 0094 C0F20001 		movt	r1, #:upper16:.LC3
 1711 0098 FFF7FEFF 		bl	_test_assert_sequence
 1712 009c 10B1     		cbz	r0, .L33
 1713              		.loc 1 212 0
 1714 009e 02B0     		add	sp, sp, #8
 1715 00a0 BDE8F081 		pop	{r4, r5, r6, r7, r8, pc}
 1716              	.L33:
 1717              		.loc 1 211 0
 1718 00a4 0220     		movs	r0, #2
 1719 00a6 08F16401 		add	r1, r8, #100
 1720 00aa 08F16902 		add	r2, r8, #105
 1721              		.loc 1 212 0
 1722 00ae 02B0     		add	sp, sp, #8
 1723 00b0 BDE8F041 		pop	{r4, r5, r6, r7, r8, lr}
 1724              		.loc 1 211 0
 1725 00b4 FFF7FEBF 		b	_test_assert_time_window
 1726              		.cfi_endproc
 1727              	.LFE14:
 1728              		.size	mtx2_execute, .-mtx2_execute
 1729 00b8 AFF30080 		.section	.text.thread3HH,"ax",%progbits
 1729      AFF30080 
 1730              		.align	2
 1731              		.p2align 4,,15
 1732              		.thumb
 1733              		.thumb_func
 1734              		.type	thread3HH, %function
 1735              	thread3HH:
 1736              	.LFB20:
 1737              		.loc 1 308 0
 1738              		.cfi_startproc
 1739              		@ args = 0, pretend = 0, frame = 0
 1740              		@ frame_needed = 0, uses_anonymous_args = 0
 1741              	.LVL54:
 1742 0000 08B5     		push	{r3, lr}
 1743              	.LCFI26:
 1744              		.cfi_def_cfa_offset 8
 1745              		.cfi_offset 14, -4
 1746              		.cfi_offset 3, -8
 1747              		.loc 1 311 0
 1748 0002 3220     		movs	r0, #50
 1749              	.LVL55:
 1750 0004 FFF7FEFF 		bl	chThdSleep
 1751              		.loc 1 312 0
ARM GAS  /tmp/ccnXe5XY.s 			page 32


 1752 0008 40F20000 		movw	r0, #:lower16:.LANCHOR1
 1753 000c C0F20000 		movt	r0, #:upper16:.LANCHOR1
 1754 0010 FFF7FEFF 		bl	chMtxLock
 1755              		.loc 1 313 0
 1756 0014 0A20     		movs	r0, #10
 1757 0016 FFF7FEFF 		bl	test_cpu_pulse
 1758              		.loc 1 314 0
 1759 001a FFF7FEFF 		bl	chMtxUnlock
 1760              		.loc 1 315 0
 1761 001e 4120     		movs	r0, #65
 1762 0020 FFF7FEFF 		bl	test_emit_token
 1763              		.loc 1 317 0
 1764 0024 0020     		movs	r0, #0
 1765 0026 08BD     		pop	{r3, pc}
 1766              		.cfi_endproc
 1767              	.LFE20:
 1768              		.size	thread3HH, .-thread3HH
 1769 0028 AFF30080 		.section	.text.thread3H,"ax",%progbits
 1769      AFF30080 
 1770              		.align	2
 1771              		.p2align 4,,15
 1772              		.thumb
 1773              		.thumb_func
 1774              		.type	thread3H, %function
 1775              	thread3H:
 1776              	.LFB19:
 1777              		.loc 1 298 0
 1778              		.cfi_startproc
 1779              		@ args = 0, pretend = 0, frame = 0
 1780              		@ frame_needed = 0, uses_anonymous_args = 0
 1781              	.LVL56:
 1782 0000 08B5     		push	{r3, lr}
 1783              	.LCFI27:
 1784              		.cfi_def_cfa_offset 8
 1785              		.cfi_offset 14, -4
 1786              		.cfi_offset 3, -8
 1787              		.loc 1 301 0
 1788 0002 2820     		movs	r0, #40
 1789              	.LVL57:
 1790 0004 FFF7FEFF 		bl	chThdSleep
 1791              		.loc 1 302 0
 1792 0008 1420     		movs	r0, #20
 1793 000a FFF7FEFF 		bl	test_cpu_pulse
 1794              		.loc 1 303 0
 1795 000e 4220     		movs	r0, #66
 1796 0010 FFF7FEFF 		bl	test_emit_token
 1797              		.loc 1 305 0
 1798 0014 0020     		movs	r0, #0
 1799 0016 08BD     		pop	{r3, pc}
 1800              		.cfi_endproc
 1801              	.LFE19:
 1802              		.size	thread3H, .-thread3H
 1803 0018 AFF30080 		.section	.text.thread3M,"ax",%progbits
 1803      AFF30080 
 1804              		.align	2
 1805              		.p2align 4,,15
 1806              		.thumb
ARM GAS  /tmp/ccnXe5XY.s 			page 33


 1807              		.thumb_func
 1808              		.type	thread3M, %function
 1809              	thread3M:
 1810              	.LFB18:
 1811              		.loc 1 286 0
 1812              		.cfi_startproc
 1813              		@ args = 0, pretend = 0, frame = 0
 1814              		@ frame_needed = 0, uses_anonymous_args = 0
 1815              	.LVL58:
 1816 0000 08B5     		push	{r3, lr}
 1817              	.LCFI28:
 1818              		.cfi_def_cfa_offset 8
 1819              		.cfi_offset 14, -4
 1820              		.cfi_offset 3, -8
 1821              		.loc 1 289 0
 1822 0002 1420     		movs	r0, #20
 1823              	.LVL59:
 1824 0004 FFF7FEFF 		bl	chThdSleep
 1825              		.loc 1 290 0
 1826 0008 40F20000 		movw	r0, #:lower16:.LANCHOR1
 1827 000c C0F20000 		movt	r0, #:upper16:.LANCHOR1
 1828 0010 FFF7FEFF 		bl	chMtxLock
 1829              		.loc 1 291 0
 1830 0014 0A20     		movs	r0, #10
 1831 0016 FFF7FEFF 		bl	test_cpu_pulse
 1832              		.loc 1 292 0
 1833 001a FFF7FEFF 		bl	chMtxUnlock
 1834              		.loc 1 293 0
 1835 001e 4320     		movs	r0, #67
 1836 0020 FFF7FEFF 		bl	test_emit_token
 1837              		.loc 1 295 0
 1838 0024 0020     		movs	r0, #0
 1839 0026 08BD     		pop	{r3, pc}
 1840              		.cfi_endproc
 1841              	.LFE18:
 1842              		.size	thread3M, .-thread3M
 1843 0028 AFF30080 		.section	.text.thread3L,"ax",%progbits
 1843      AFF30080 
 1844              		.align	2
 1845              		.p2align 4,,15
 1846              		.thumb
 1847              		.thumb_func
 1848              		.type	thread3L, %function
 1849              	thread3L:
 1850              	.LFB17:
 1851              		.loc 1 270 0
 1852              		.cfi_startproc
 1853              		@ args = 0, pretend = 0, frame = 0
 1854              		@ frame_needed = 0, uses_anonymous_args = 0
 1855              	.LVL60:
 1856 0000 08B5     		push	{r3, lr}
 1857              	.LCFI29:
 1858              		.cfi_def_cfa_offset 8
 1859              		.cfi_offset 14, -4
 1860              		.cfi_offset 3, -8
 1861              		.loc 1 273 0
 1862 0002 0A20     		movs	r0, #10
ARM GAS  /tmp/ccnXe5XY.s 			page 34


 1863              	.LVL61:
 1864 0004 FFF7FEFF 		bl	chThdSleep
 1865              		.loc 1 274 0
 1866 0008 40F20000 		movw	r0, #:lower16:.LANCHOR1
 1867 000c C0F20000 		movt	r0, #:upper16:.LANCHOR1
 1868 0010 FFF7FEFF 		bl	chMtxLock
 1869              		.loc 1 275 0
 1870 0014 1420     		movs	r0, #20
 1871 0016 FFF7FEFF 		bl	test_cpu_pulse
 1872              		.loc 1 276 0
 1873 001a 40F20000 		movw	r0, #:lower16:.LANCHOR2
 1874 001e C0F20000 		movt	r0, #:upper16:.LANCHOR2
 1875 0022 FFF7FEFF 		bl	chMtxLock
 1876              		.loc 1 277 0
 1877 0026 0A20     		movs	r0, #10
 1878 0028 FFF7FEFF 		bl	test_cpu_pulse
 1879              		.loc 1 278 0
 1880 002c FFF7FEFF 		bl	chMtxUnlock
 1881              		.loc 1 279 0
 1882 0030 0A20     		movs	r0, #10
 1883 0032 FFF7FEFF 		bl	test_cpu_pulse
 1884              		.loc 1 280 0
 1885 0036 FFF7FEFF 		bl	chMtxUnlock
 1886              		.loc 1 281 0
 1887 003a 4420     		movs	r0, #68
 1888 003c FFF7FEFF 		bl	test_emit_token
 1889              		.loc 1 283 0
 1890 0040 0020     		movs	r0, #0
 1891 0042 08BD     		pop	{r3, pc}
 1892              		.cfi_endproc
 1893              	.LFE17:
 1894              		.size	thread3L, .-thread3L
 1895 0044 AFF30080 		.section	.text.thread3LL,"ax",%progbits
 1895      AFF30080 
 1895      AFF30080 
 1896              		.align	2
 1897              		.p2align 4,,15
 1898              		.thumb
 1899              		.thumb_func
 1900              		.type	thread3LL, %function
 1901              	thread3LL:
 1902              	.LFB16:
 1903              		.loc 1 259 0
 1904              		.cfi_startproc
 1905              		@ args = 0, pretend = 0, frame = 0
 1906              		@ frame_needed = 0, uses_anonymous_args = 0
 1907              	.LVL62:
 1908              		.loc 1 262 0
 1909 0000 40F20000 		movw	r0, #:lower16:.LANCHOR2
 1910              	.LVL63:
 1911              		.loc 1 259 0
 1912 0004 08B5     		push	{r3, lr}
 1913              	.LCFI30:
 1914              		.cfi_def_cfa_offset 8
 1915              		.cfi_offset 14, -4
 1916              		.cfi_offset 3, -8
 1917              		.loc 1 262 0
ARM GAS  /tmp/ccnXe5XY.s 			page 35


 1918 0006 C0F20000 		movt	r0, #:upper16:.LANCHOR2
 1919 000a FFF7FEFF 		bl	chMtxLock
 1920              		.loc 1 263 0
 1921 000e 1E20     		movs	r0, #30
 1922 0010 FFF7FEFF 		bl	test_cpu_pulse
 1923              		.loc 1 264 0
 1924 0014 FFF7FEFF 		bl	chMtxUnlock
 1925              		.loc 1 265 0
 1926 0018 4520     		movs	r0, #69
 1927 001a FFF7FEFF 		bl	test_emit_token
 1928              		.loc 1 267 0
 1929 001e 0020     		movs	r0, #0
 1930 0020 08BD     		pop	{r3, pc}
 1931              		.cfi_endproc
 1932              	.LFE16:
 1933              		.size	thread3LL, .-thread3LL
 1934 0022 00BFAFF3 		.section	.text.thread2L,"ax",%progbits
 1934      0080AFF3 
 1934      0080AFF3 
 1934      0080
 1935              		.align	2
 1936              		.p2align 4,,15
 1937              		.thumb
 1938              		.thumb_func
 1939              		.type	thread2L, %function
 1940              	thread2L:
 1941              	.LFB11:
 1942              		.loc 1 168 0
 1943              		.cfi_startproc
 1944              		@ args = 0, pretend = 0, frame = 0
 1945              		@ frame_needed = 0, uses_anonymous_args = 0
 1946              	.LVL64:
 1947              		.loc 1 171 0
 1948 0000 40F20000 		movw	r0, #:lower16:.LANCHOR2
 1949              	.LVL65:
 1950              		.loc 1 168 0
 1951 0004 08B5     		push	{r3, lr}
 1952              	.LCFI31:
 1953              		.cfi_def_cfa_offset 8
 1954              		.cfi_offset 14, -4
 1955              		.cfi_offset 3, -8
 1956              		.loc 1 171 0
 1957 0006 C0F20000 		movt	r0, #:upper16:.LANCHOR2
 1958 000a FFF7FEFF 		bl	chMtxLock
 1959              		.loc 1 172 0
 1960 000e 2820     		movs	r0, #40
 1961 0010 FFF7FEFF 		bl	test_cpu_pulse
 1962              		.loc 1 173 0
 1963 0014 FFF7FEFF 		bl	chMtxUnlock
 1964              		.loc 1 174 0
 1965 0018 0A20     		movs	r0, #10
 1966 001a FFF7FEFF 		bl	test_cpu_pulse
 1967              		.loc 1 175 0
 1968 001e 4320     		movs	r0, #67
 1969 0020 FFF7FEFF 		bl	test_emit_token
 1970              		.loc 1 177 0
 1971 0024 0020     		movs	r0, #0
ARM GAS  /tmp/ccnXe5XY.s 			page 36


 1972 0026 08BD     		pop	{r3, pc}
 1973              		.cfi_endproc
 1974              	.LFE11:
 1975              		.size	thread2L, .-thread2L
 1976 0028 AFF30080 		.section	.text.thread2M,"ax",%progbits
 1976      AFF30080 
 1977              		.align	2
 1978              		.p2align 4,,15
 1979              		.thumb
 1980              		.thumb_func
 1981              		.type	thread2M, %function
 1982              	thread2M:
 1983              	.LFB12:
 1984              		.loc 1 180 0
 1985              		.cfi_startproc
 1986              		@ args = 0, pretend = 0, frame = 0
 1987              		@ frame_needed = 0, uses_anonymous_args = 0
 1988              	.LVL66:
 1989 0000 08B5     		push	{r3, lr}
 1990              	.LCFI32:
 1991              		.cfi_def_cfa_offset 8
 1992              		.cfi_offset 14, -4
 1993              		.cfi_offset 3, -8
 1994              		.loc 1 183 0
 1995 0002 1420     		movs	r0, #20
 1996              	.LVL67:
 1997 0004 FFF7FEFF 		bl	chThdSleep
 1998              		.loc 1 184 0
 1999 0008 2820     		movs	r0, #40
 2000 000a FFF7FEFF 		bl	test_cpu_pulse
 2001              		.loc 1 185 0
 2002 000e 4220     		movs	r0, #66
 2003 0010 FFF7FEFF 		bl	test_emit_token
 2004              		.loc 1 187 0
 2005 0014 0020     		movs	r0, #0
 2006 0016 08BD     		pop	{r3, pc}
 2007              		.cfi_endproc
 2008              	.LFE12:
 2009              		.size	thread2M, .-thread2M
 2010 0018 AFF30080 		.section	.text.thread2H,"ax",%progbits
 2010      AFF30080 
 2011              		.align	2
 2012              		.p2align 4,,15
 2013              		.thumb
 2014              		.thumb_func
 2015              		.type	thread2H, %function
 2016              	thread2H:
 2017              	.LFB13:
 2018              		.loc 1 190 0
 2019              		.cfi_startproc
 2020              		@ args = 0, pretend = 0, frame = 0
 2021              		@ frame_needed = 0, uses_anonymous_args = 0
 2022              	.LVL68:
 2023 0000 08B5     		push	{r3, lr}
 2024              	.LCFI33:
 2025              		.cfi_def_cfa_offset 8
 2026              		.cfi_offset 14, -4
ARM GAS  /tmp/ccnXe5XY.s 			page 37


 2027              		.cfi_offset 3, -8
 2028              		.loc 1 193 0
 2029 0002 2820     		movs	r0, #40
 2030              	.LVL69:
 2031 0004 FFF7FEFF 		bl	chThdSleep
 2032              		.loc 1 194 0
 2033 0008 40F20000 		movw	r0, #:lower16:.LANCHOR2
 2034 000c C0F20000 		movt	r0, #:upper16:.LANCHOR2
 2035 0010 FFF7FEFF 		bl	chMtxLock
 2036              		.loc 1 195 0
 2037 0014 0A20     		movs	r0, #10
 2038 0016 FFF7FEFF 		bl	test_cpu_pulse
 2039              		.loc 1 196 0
 2040 001a FFF7FEFF 		bl	chMtxUnlock
 2041              		.loc 1 197 0
 2042 001e 4120     		movs	r0, #65
 2043 0020 FFF7FEFF 		bl	test_emit_token
 2044              		.loc 1 199 0
 2045 0024 0020     		movs	r0, #0
 2046 0026 08BD     		pop	{r3, pc}
 2047              		.cfi_endproc
 2048              	.LFE13:
 2049              		.size	thread2H, .-thread2H
 2050              		.global	patternmtx
 2051              		.global	testmtx8
 2052              		.global	testmtx7
 2053              		.global	testmtx6
 2054              		.global	testmtx5
 2055              		.global	testmtx4
 2056              		.global	testmtx3
 2057              		.global	testmtx2
 2058              		.global	testmtx1
 2059 0028 AFF30080 		.section	.rodata.testmtx5,"a",%progbits
 2059      AFF30080 
 2060              		.align	2
 2061              		.type	testmtx5, %object
 2062              		.size	testmtx5, 16
 2063              	testmtx5:
 2064 0000 64000000 		.word	.LC10
 2065 0004 00000000 		.word	mtx5_setup
 2066 0008 00000000 		.word	0
 2067 000c 00000000 		.word	mtx5_execute
 2068              		.section	.rodata.testmtx6,"a",%progbits
 2069              		.align	2
 2070              		.type	testmtx6, %object
 2071              		.size	testmtx6, 16
 2072              	testmtx6:
 2073 0000 4C000000 		.word	.LC9
 2074 0004 00000000 		.word	mtx6_setup
 2075 0008 00000000 		.word	0
 2076 000c 00000000 		.word	mtx6_execute
 2077              		.section	.rodata.testmtx7,"a",%progbits
 2078              		.align	2
 2079              		.type	testmtx7, %object
 2080              		.size	testmtx7, 16
 2081              	testmtx7:
 2082 0000 34000000 		.word	.LC8
ARM GAS  /tmp/ccnXe5XY.s 			page 38


 2083 0004 00000000 		.word	mtx7_setup
 2084 0008 00000000 		.word	0
 2085 000c 00000000 		.word	mtx7_execute
 2086              		.section	.rodata.testmtx8,"a",%progbits
 2087              		.align	2
 2088              		.type	testmtx8, %object
 2089              		.size	testmtx8, 16
 2090              	testmtx8:
 2091 0000 20000000 		.word	.LC7
 2092 0004 00000000 		.word	mtx8_setup
 2093 0008 00000000 		.word	0
 2094 000c 00000000 		.word	mtx8_execute
 2095              		.section	.data.m1,"aw",%progbits
 2096              		.align	2
 2097              		.set	.LANCHOR2,. + 0
 2098              		.type	m1, %object
 2099              		.size	m1, 16
 2100              	m1:
 2101 0000 00000000 		.word	m1
 2102 0004 00000000 		.word	m1
 2103 0008 00000000 		.word	0
 2104 000c 00000000 		.word	0
 2105              		.section	.data.m2,"aw",%progbits
 2106              		.align	2
 2107              		.set	.LANCHOR1,. + 0
 2108              		.type	m2, %object
 2109              		.size	m2, 16
 2110              	m2:
 2111 0000 00000000 		.word	m2
 2112 0004 00000000 		.word	m2
 2113 0008 00000000 		.word	0
 2114 000c 00000000 		.word	0
 2115              		.section	.rodata.str1.4,"aMS",%progbits,1
 2116              		.align	2
 2117              	.LC0:
 2118 0000 4100     		.ascii	"A\000"
 2119 0002 0000     		.space	2
 2120              	.LC1:
 2121 0004 4300     		.ascii	"C\000"
 2122 0006 0000     		.space	2
 2123              	.LC2:
 2124 0008 4200     		.ascii	"B\000"
 2125 000a 0000     		.space	2
 2126              	.LC3:
 2127 000c 41424300 		.ascii	"ABC\000"
 2128              	.LC4:
 2129 0010 4500     		.ascii	"E\000"
 2130 0012 0000     		.space	2
 2131              	.LC5:
 2132 0014 4400     		.ascii	"D\000"
 2133 0016 0000     		.space	2
 2134              	.LC6:
 2135 0018 41424344 		.ascii	"ABCDE\000"
 2135      4500
 2136 001e 0000     		.space	2
 2137              	.LC7:
 2138 0020 436F6E64 		.ascii	"CondVar, boost test\000"
ARM GAS  /tmp/ccnXe5XY.s 			page 39


 2138      5661722C 
 2138      20626F6F 
 2138      73742074 
 2138      65737400 
 2139              	.LC8:
 2140 0034 436F6E64 		.ascii	"CondVar, broadcast test\000"
 2140      5661722C 
 2140      2062726F 
 2140      61646361 
 2140      73742074 
 2141              	.LC9:
 2142 004c 436F6E64 		.ascii	"CondVar, signal test\000"
 2142      5661722C 
 2142      20736967 
 2142      6E616C20 
 2142      74657374 
 2143 0061 000000   		.space	3
 2144              	.LC10:
 2145 0064 4D757465 		.ascii	"Mutexes, status\000"
 2145      7865732C 
 2145      20737461 
 2145      74757300 
 2146              	.LC11:
 2147 0074 4D757465 		.ascii	"Mutexes, priority return\000"
 2147      7865732C 
 2147      20707269 
 2147      6F726974 
 2147      79207265 
 2148 008d 000000   		.space	3
 2149              	.LC12:
 2150 0090 4D757465 		.ascii	"Mutexes, priority inheritance, complex case\000"
 2150      7865732C 
 2150      20707269 
 2150      6F726974 
 2150      7920696E 
 2151              	.LC13:
 2152 00bc 4D757465 		.ascii	"Mutexes, priority inheritance, simple case\000"
 2152      7865732C 
 2152      20707269 
 2152      6F726974 
 2152      7920696E 
 2153 00e7 00       		.space	1
 2154              	.LC14:
 2155 00e8 4D757465 		.ascii	"Mutexes, priority enqueuing test\000"
 2155      7865732C 
 2155      20707269 
 2155      6F726974 
 2155      7920656E 
 2156 0109 000000   		.section	.rodata.patternmtx,"a",%progbits
 2157              		.align	2
 2158              		.type	patternmtx, %object
 2159              		.size	patternmtx, 36
 2160              	patternmtx:
 2161 0000 00000000 		.word	testmtx1
 2162 0004 00000000 		.word	testmtx2
 2163 0008 00000000 		.word	testmtx3
 2164 000c 00000000 		.word	testmtx4
ARM GAS  /tmp/ccnXe5XY.s 			page 40


 2165 0010 00000000 		.word	testmtx5
 2166 0014 00000000 		.word	testmtx6
 2167 0018 00000000 		.word	testmtx7
 2168 001c 00000000 		.word	testmtx8
 2169 0020 00000000 		.word	0
 2170              		.section	.data.c1,"aw",%progbits
 2171              		.align	2
 2172              		.set	.LANCHOR0,. + 0
 2173              		.type	c1, %object
 2174              		.size	c1, 8
 2175              	c1:
 2176 0000 00000000 		.word	c1
 2177 0004 00000000 		.word	c1
 2178              		.section	.rodata.testmtx1,"a",%progbits
 2179              		.align	2
 2180              		.type	testmtx1, %object
 2181              		.size	testmtx1, 16
 2182              	testmtx1:
 2183 0000 E8000000 		.word	.LC14
 2184 0004 00000000 		.word	mtx1_setup
 2185 0008 00000000 		.word	0
 2186 000c 00000000 		.word	mtx1_execute
 2187              		.section	.rodata.testmtx2,"a",%progbits
 2188              		.align	2
 2189              		.type	testmtx2, %object
 2190              		.size	testmtx2, 16
 2191              	testmtx2:
 2192 0000 BC000000 		.word	.LC13
 2193 0004 00000000 		.word	mtx2_setup
 2194 0008 00000000 		.word	0
 2195 000c 00000000 		.word	mtx2_execute
 2196              		.section	.rodata.testmtx3,"a",%progbits
 2197              		.align	2
 2198              		.type	testmtx3, %object
 2199              		.size	testmtx3, 16
 2200              	testmtx3:
 2201 0000 90000000 		.word	.LC12
 2202 0004 00000000 		.word	mtx3_setup
 2203 0008 00000000 		.word	0
 2204 000c 00000000 		.word	mtx3_execute
 2205              		.section	.rodata.testmtx4,"a",%progbits
 2206              		.align	2
 2207              		.type	testmtx4, %object
 2208              		.size	testmtx4, 16
 2209              	testmtx4:
 2210 0000 74000000 		.word	.LC11
 2211 0004 00000000 		.word	mtx4_setup
 2212 0008 00000000 		.word	0
 2213 000c 00000000 		.word	mtx4_execute
 2214              		.text
 2215              	.Letext0:
 2216              		.file 2 "/home/laura/Documentos/Embebidos/arm-2011q3/bin/../lib/gcc/arm-none-eabi/4.6.1/../../../.
 2217              		.file 3 "../../os/ports/GCC/ARMCMx/chtypes.h"
 2218              		.file 4 "../../os/kernel/include/chlists.h"
 2219              		.file 5 "../../os/kernel/include/chthreads.h"
 2220              		.file 6 "../../os/ports/GCC/ARMCMx/chcore_v7m.h"
 2221              		.file 7 "../../os/kernel/include/chvt.h"
ARM GAS  /tmp/ccnXe5XY.s 			page 41


 2222              		.file 8 "../../os/kernel/include/chschd.h"
 2223              		.file 9 "../../os/kernel/include/chmtx.h"
 2224              		.file 10 "../../os/kernel/include/chcond.h"
 2225              		.file 11 "../../test/test.h"
